{
	"sc/traceability_coffee.sol": {
		"CoffeeSupplyChain": {
			"abi": [
				{
					"inputs": [],
					"stateMutability": "nonpayable",
					"type": "constructor"
				},
				{
					"inputs": [
						{
							"internalType": "address",
							"name": "owner",
							"type": "address"
						}
					],
					"name": "OwnableInvalidOwner",
					"type": "error"
				},
				{
					"inputs": [
						{
							"internalType": "address",
							"name": "account",
							"type": "address"
						}
					],
					"name": "OwnableUnauthorizedAccount",
					"type": "error"
				},
				{
					"anonymous": false,
					"inputs": [
						{
							"indexed": true,
							"internalType": "address",
							"name": "previousOwner",
							"type": "address"
						},
						{
							"indexed": true,
							"internalType": "address",
							"name": "newOwner",
							"type": "address"
						}
					],
					"name": "OwnershipTransferred",
					"type": "event"
				},
				{
					"anonymous": false,
					"inputs": [
						{
							"indexed": false,
							"internalType": "string",
							"name": "produkID",
							"type": "string"
						},
						{
							"indexed": false,
							"internalType": "string",
							"name": "kopiID",
							"type": "string"
						},
						{
							"indexed": false,
							"internalType": "string",
							"name": "varietas",
							"type": "string"
						},
						{
							"indexed": false,
							"internalType": "uint256",
							"name": "kuantitas",
							"type": "uint256"
						},
						{
							"indexed": false,
							"internalType": "uint256",
							"name": "tanggalProduksi",
							"type": "uint256"
						},
						{
							"indexed": false,
							"internalType": "uint256",
							"name": "tanggalKadaluarsa",
							"type": "uint256"
						},
						{
							"indexed": false,
							"internalType": "string",
							"name": "foto",
							"type": "string"
						},
						{
							"indexed": false,
							"internalType": "address",
							"name": "pemilik",
							"type": "address"
						}
					],
					"name": "ProdukDitambahkan",
					"type": "event"
				},
				{
					"anonymous": false,
					"inputs": [
						{
							"indexed": false,
							"internalType": "string",
							"name": "produkID",
							"type": "string"
						},
						{
							"indexed": false,
							"internalType": "address",
							"name": "penerima",
							"type": "address"
						}
					],
					"name": "TransaksiDikonfirmasi",
					"type": "event"
				},
				{
					"anonymous": false,
					"inputs": [
						{
							"indexed": false,
							"internalType": "string",
							"name": "produkID",
							"type": "string"
						},
						{
							"indexed": false,
							"internalType": "string",
							"name": "varietas",
							"type": "string"
						},
						{
							"indexed": false,
							"internalType": "uint256",
							"name": "kuantitas",
							"type": "uint256"
						},
						{
							"indexed": false,
							"internalType": "address",
							"name": "pengirim",
							"type": "address"
						},
						{
							"indexed": false,
							"internalType": "address",
							"name": "penerima",
							"type": "address"
						},
						{
							"indexed": false,
							"internalType": "uint256",
							"name": "tanggalTransaksi",
							"type": "uint256"
						},
						{
							"indexed": false,
							"internalType": "string",
							"name": "status",
							"type": "string"
						}
					],
					"name": "TransaksiDitambahkan",
					"type": "event"
				},
				{
					"anonymous": false,
					"inputs": [
						{
							"indexed": false,
							"internalType": "address",
							"name": "walletAddress",
							"type": "address"
						},
						{
							"indexed": false,
							"internalType": "string",
							"name": "roleName",
							"type": "string"
						},
						{
							"indexed": false,
							"internalType": "uint256",
							"name": "roleID",
							"type": "uint256"
						},
						{
							"indexed": false,
							"internalType": "string",
							"name": "nama",
							"type": "string"
						},
						{
							"indexed": false,
							"internalType": "string",
							"name": "telepon",
							"type": "string"
						},
						{
							"indexed": false,
							"internalType": "string",
							"name": "alamat",
							"type": "string"
						},
						{
							"indexed": false,
							"internalType": "string",
							"name": "foto",
							"type": "string"
						}
					],
					"name": "UserDitambahkan",
					"type": "event"
				},
				{
					"inputs": [
						{
							"internalType": "string",
							"name": "_kopiID",
							"type": "string"
						},
						{
							"internalType": "string",
							"name": "_varietas",
							"type": "string"
						},
						{
							"internalType": "uint256",
							"name": "_kuantitas",
							"type": "uint256"
						},
						{
							"internalType": "uint256",
							"name": "_tanggalProduksi",
							"type": "uint256"
						},
						{
							"internalType": "uint256",
							"name": "_tanggalKadaluarsa",
							"type": "uint256"
						},
						{
							"internalType": "string",
							"name": "_foto",
							"type": "string"
						}
					],
					"name": "addProduk",
					"outputs": [],
					"stateMutability": "nonpayable",
					"type": "function"
				},
				{
					"inputs": [
						{
							"internalType": "string",
							"name": "_produkID",
							"type": "string"
						},
						{
							"internalType": "string",
							"name": "_varietas",
							"type": "string"
						},
						{
							"internalType": "uint256",
							"name": "_kuantitas",
							"type": "uint256"
						},
						{
							"internalType": "address",
							"name": "_penerima",
							"type": "address"
						}
					],
					"name": "addTransaksi",
					"outputs": [],
					"stateMutability": "nonpayable",
					"type": "function"
				},
				{
					"inputs": [
						{
							"internalType": "address",
							"name": "_walletAddress",
							"type": "address"
						},
						{
							"internalType": "string",
							"name": "_roleName",
							"type": "string"
						},
						{
							"internalType": "uint256",
							"name": "_roleID",
							"type": "uint256"
						},
						{
							"internalType": "string",
							"name": "_nama",
							"type": "string"
						},
						{
							"internalType": "string",
							"name": "_telepon",
							"type": "string"
						},
						{
							"internalType": "string",
							"name": "_alamat",
							"type": "string"
						},
						{
							"internalType": "string",
							"name": "_foto",
							"type": "string"
						}
					],
					"name": "addUser",
					"outputs": [],
					"stateMutability": "nonpayable",
					"type": "function"
				},
				{
					"inputs": [
						{
							"internalType": "string",
							"name": "_produkID",
							"type": "string"
						}
					],
					"name": "konfirmasiTransaksi",
					"outputs": [],
					"stateMutability": "nonpayable",
					"type": "function"
				},
				{
					"inputs": [],
					"name": "owner",
					"outputs": [
						{
							"internalType": "address",
							"name": "",
							"type": "address"
						}
					],
					"stateMutability": "view",
					"type": "function"
				},
				{
					"inputs": [
						{
							"internalType": "string",
							"name": "",
							"type": "string"
						}
					],
					"name": "produk",
					"outputs": [
						{
							"internalType": "string",
							"name": "produkID",
							"type": "string"
						},
						{
							"internalType": "string",
							"name": "kopiID",
							"type": "string"
						},
						{
							"internalType": "string",
							"name": "varietas",
							"type": "string"
						},
						{
							"internalType": "uint256",
							"name": "kuantitas",
							"type": "uint256"
						},
						{
							"internalType": "uint256",
							"name": "tanggalProduksi",
							"type": "uint256"
						},
						{
							"internalType": "uint256",
							"name": "tanggalKadaluarsa",
							"type": "uint256"
						},
						{
							"internalType": "string",
							"name": "foto",
							"type": "string"
						},
						{
							"internalType": "address",
							"name": "pemilik",
							"type": "address"
						}
					],
					"stateMutability": "view",
					"type": "function"
				},
				{
					"inputs": [],
					"name": "renounceOwnership",
					"outputs": [],
					"stateMutability": "nonpayable",
					"type": "function"
				},
				{
					"inputs": [
						{
							"internalType": "string",
							"name": "",
							"type": "string"
						}
					],
					"name": "transaksi",
					"outputs": [
						{
							"internalType": "string",
							"name": "produkID",
							"type": "string"
						},
						{
							"internalType": "string",
							"name": "varietas",
							"type": "string"
						},
						{
							"internalType": "uint256",
							"name": "kuantitas",
							"type": "uint256"
						},
						{
							"internalType": "address",
							"name": "pengirim",
							"type": "address"
						},
						{
							"internalType": "address",
							"name": "penerima",
							"type": "address"
						},
						{
							"internalType": "uint256",
							"name": "tanggalTransaksi",
							"type": "uint256"
						},
						{
							"internalType": "string",
							"name": "status",
							"type": "string"
						}
					],
					"stateMutability": "view",
					"type": "function"
				},
				{
					"inputs": [
						{
							"internalType": "address",
							"name": "newOwner",
							"type": "address"
						}
					],
					"name": "transferOwnership",
					"outputs": [],
					"stateMutability": "nonpayable",
					"type": "function"
				},
				{
					"inputs": [
						{
							"internalType": "address",
							"name": "",
							"type": "address"
						}
					],
					"name": "users",
					"outputs": [
						{
							"internalType": "address",
							"name": "walletAddress",
							"type": "address"
						},
						{
							"internalType": "string",
							"name": "roleName",
							"type": "string"
						},
						{
							"internalType": "uint256",
							"name": "roleID",
							"type": "uint256"
						},
						{
							"internalType": "string",
							"name": "nama",
							"type": "string"
						},
						{
							"internalType": "string",
							"name": "telepon",
							"type": "string"
						},
						{
							"internalType": "string",
							"name": "alamat",
							"type": "string"
						},
						{
							"internalType": "string",
							"name": "foto",
							"type": "string"
						}
					],
					"stateMutability": "view",
					"type": "function"
				}
			],
			"devdoc": {
				"errors": {
					"OwnableInvalidOwner(address)": [
						{
							"details": "The owner is not a valid owner account. (eg. `address(0)`)"
						}
					],
					"OwnableUnauthorizedAccount(address)": [
						{
							"details": "The caller account is not authorized to perform an operation."
						}
					]
				},
				"kind": "dev",
				"methods": {
					"owner()": {
						"details": "Returns the address of the current owner."
					},
					"renounceOwnership()": {
						"details": "Leaves the contract without owner. It will not be possible to call `onlyOwner` functions. Can only be called by the current owner. NOTE: Renouncing ownership will leave the contract without an owner, thereby disabling any functionality that is only available to the owner."
					},
					"transferOwnership(address)": {
						"details": "Transfers ownership of the contract to a new account (`newOwner`). Can only be called by the current owner."
					}
				},
				"version": 1
			},
			"evm": {
				"assembly": "    /* \"sc/traceability_coffee.sol\":112:4226  contract CoffeeSupplyChain is Ownable {... */\n  mstore(0x40, 0x80)\n    /* \"sc/traceability_coffee.sol\":1564:1600  constructor() Ownable(msg.sender) {} */\n  callvalue\n  dup1\n  iszero\n  tag_1\n  jumpi\n  0x00\n  dup1\n  revert\ntag_1:\n  pop\n    /* \"sc/traceability_coffee.sol\":1586:1596  msg.sender */\n  caller\n    /* \"@openzeppelin/contracts/access/Ownable.sol\":1297:1298  0 */\n  0x00\n    /* \"@openzeppelin/contracts/access/Ownable.sol\":1273:1299  initialOwner == address(0) */\n  0xffffffffffffffffffffffffffffffffffffffff\n  and\n    /* \"@openzeppelin/contracts/access/Ownable.sol\":1273:1285  initialOwner */\n  dup2\n    /* \"@openzeppelin/contracts/access/Ownable.sol\":1273:1299  initialOwner == address(0) */\n  0xffffffffffffffffffffffffffffffffffffffff\n  and\n  sub\n    /* \"@openzeppelin/contracts/access/Ownable.sol\":1269:1364  if (initialOwner == address(0)) {... */\n  tag_5\n  jumpi\n    /* \"@openzeppelin/contracts/access/Ownable.sol\":1350:1351  0 */\n  0x00\n    /* \"@openzeppelin/contracts/access/Ownable.sol\":1322:1353  OwnableInvalidOwner(address(0)) */\n  mload(0x40)\n  0x1e4fbdf700000000000000000000000000000000000000000000000000000000\n  dup2\n  mstore\n  0x04\n  add\n  tag_6\n  swap2\n  swap1\n  tag_7\n  jump\t// in\ntag_6:\n  mload(0x40)\n  dup1\n  swap2\n  sub\n  swap1\n  revert\n    /* \"@openzeppelin/contracts/access/Ownable.sol\":1269:1364  if (initialOwner == address(0)) {... */\ntag_5:\n    /* \"@openzeppelin/contracts/access/Ownable.sol\":1373:1405  _transferOwnership(initialOwner) */\n  tag_8\n    /* \"@openzeppelin/contracts/access/Ownable.sol\":1392:1404  initialOwner */\n  dup2\n    /* \"@openzeppelin/contracts/access/Ownable.sol\":1373:1391  _transferOwnership */\n  shl(0x20, tag_9)\n    /* \"@openzeppelin/contracts/access/Ownable.sol\":1373:1405  _transferOwnership(initialOwner) */\n  0x20\n  shr\n  jump\t// in\ntag_8:\n    /* \"@openzeppelin/contracts/access/Ownable.sol\":1225:1412  constructor(address initialOwner) {... */\n  pop\n    /* \"sc/traceability_coffee.sol\":112:4226  contract CoffeeSupplyChain is Ownable {... */\n  jump(tag_11)\n    /* \"@openzeppelin/contracts/access/Ownable.sol\":2912:3099  function _transferOwnership(address newOwner) internal virtual {... */\ntag_9:\n    /* \"@openzeppelin/contracts/access/Ownable.sol\":2985:3001  address oldOwner */\n  0x00\n    /* \"@openzeppelin/contracts/access/Ownable.sol\":3004:3010  _owner */\n  dup1\n  0x00\n  swap1\n  sload\n  swap1\n  0x0100\n  exp\n  swap1\n  div\n  0xffffffffffffffffffffffffffffffffffffffff\n  and\n    /* \"@openzeppelin/contracts/access/Ownable.sol\":2985:3010  address oldOwner = _owner */\n  swap1\n  pop\n    /* \"@openzeppelin/contracts/access/Ownable.sol\":3029:3037  newOwner */\n  dup2\n    /* \"@openzeppelin/contracts/access/Ownable.sol\":3020:3026  _owner */\n  0x00\n  dup1\n    /* \"@openzeppelin/contracts/access/Ownable.sol\":3020:3037  _owner = newOwner */\n  0x0100\n  exp\n  dup2\n  sload\n  dup2\n  0xffffffffffffffffffffffffffffffffffffffff\n  mul\n  not\n  and\n  swap1\n  dup4\n  0xffffffffffffffffffffffffffffffffffffffff\n  and\n  mul\n  or\n  swap1\n  sstore\n  pop\n    /* \"@openzeppelin/contracts/access/Ownable.sol\":3083:3091  newOwner */\n  dup2\n    /* \"@openzeppelin/contracts/access/Ownable.sol\":3052:3092  OwnershipTransferred(oldOwner, newOwner) */\n  0xffffffffffffffffffffffffffffffffffffffff\n  and\n    /* \"@openzeppelin/contracts/access/Ownable.sol\":3073:3081  oldOwner */\n  dup2\n    /* \"@openzeppelin/contracts/access/Ownable.sol\":3052:3092  OwnershipTransferred(oldOwner, newOwner) */\n  0xffffffffffffffffffffffffffffffffffffffff\n  and\n  0x8be0079c531659141344cd1fd0a4f28419497f9722a3daafe3b4186f6b6457e0\n  mload(0x40)\n  mload(0x40)\n  dup1\n  swap2\n  sub\n  swap1\n  log3\n    /* \"@openzeppelin/contracts/access/Ownable.sol\":2975:3099  {... */\n  pop\n    /* \"@openzeppelin/contracts/access/Ownable.sol\":2912:3099  function _transferOwnership(address newOwner) internal virtual {... */\n  pop\n  jump\t// out\n    /* \"#utility.yul\":7:133   */\ntag_13:\n    /* \"#utility.yul\":44:51   */\n  0x00\n    /* \"#utility.yul\":84:126   */\n  0xffffffffffffffffffffffffffffffffffffffff\n    /* \"#utility.yul\":77:82   */\n  dup3\n    /* \"#utility.yul\":73:127   */\n  and\n    /* \"#utility.yul\":62:127   */\n  swap1\n  pop\n    /* \"#utility.yul\":7:133   */\n  swap2\n  swap1\n  pop\n  jump\t// out\n    /* \"#utility.yul\":139:235   */\ntag_14:\n    /* \"#utility.yul\":176:183   */\n  0x00\n    /* \"#utility.yul\":205:229   */\n  tag_19\n    /* \"#utility.yul\":223:228   */\n  dup3\n    /* \"#utility.yul\":205:229   */\n  tag_13\n  jump\t// in\ntag_19:\n    /* \"#utility.yul\":194:229   */\n  swap1\n  pop\n    /* \"#utility.yul\":139:235   */\n  swap2\n  swap1\n  pop\n  jump\t// out\n    /* \"#utility.yul\":241:359   */\ntag_15:\n    /* \"#utility.yul\":328:352   */\n  tag_21\n    /* \"#utility.yul\":346:351   */\n  dup2\n    /* \"#utility.yul\":328:352   */\n  tag_14\n  jump\t// in\ntag_21:\n    /* \"#utility.yul\":323:326   */\n  dup3\n    /* \"#utility.yul\":316:353   */\n  mstore\n    /* \"#utility.yul\":241:359   */\n  pop\n  pop\n  jump\t// out\n    /* \"#utility.yul\":365:587   */\ntag_7:\n    /* \"#utility.yul\":458:462   */\n  0x00\n    /* \"#utility.yul\":496:498   */\n  0x20\n    /* \"#utility.yul\":485:494   */\n  dup3\n    /* \"#utility.yul\":481:499   */\n  add\n    /* \"#utility.yul\":473:499   */\n  swap1\n  pop\n    /* \"#utility.yul\":509:580   */\n  tag_23\n    /* \"#utility.yul\":577:578   */\n  0x00\n    /* \"#utility.yul\":566:575   */\n  dup4\n    /* \"#utility.yul\":562:579   */\n  add\n    /* \"#utility.yul\":553:559   */\n  dup5\n    /* \"#utility.yul\":509:580   */\n  tag_15\n  jump\t// in\ntag_23:\n    /* \"#utility.yul\":365:587   */\n  swap3\n  swap2\n  pop\n  pop\n  jump\t// out\n    /* \"sc/traceability_coffee.sol\":112:4226  contract CoffeeSupplyChain is Ownable {... */\ntag_11:\n  dataSize(sub_0)\n  dup1\n  dataOffset(sub_0)\n  0x00\n  codecopy\n  0x00\n  return\nstop\n\nsub_0: assembly {\n        /* \"sc/traceability_coffee.sol\":112:4226  contract CoffeeSupplyChain is Ownable {... */\n      mstore(0x40, 0x80)\n      callvalue\n      dup1\n      iszero\n      tag_1\n      jumpi\n      0x00\n      dup1\n      revert\n    tag_1:\n      pop\n      jumpi(tag_2, lt(calldatasize, 0x04))\n      shr(0xe0, calldataload(0x00))\n      dup1\n      0x9412bf4a\n      gt\n      tag_13\n      jumpi\n      dup1\n      0x9412bf4a\n      eq\n      tag_8\n      jumpi\n      dup1\n      0xa87430ba\n      eq\n      tag_9\n      jumpi\n      dup1\n      0xe532460b\n      eq\n      tag_10\n      jumpi\n      dup1\n      0xebac5e1d\n      eq\n      tag_11\n      jumpi\n      dup1\n      0xf2fde38b\n      eq\n      tag_12\n      jumpi\n      jump(tag_2)\n    tag_13:\n      dup1\n      0x0e7414d3\n      eq\n      tag_3\n      jumpi\n      dup1\n      0x22e6a4fe\n      eq\n      tag_4\n      jumpi\n      dup1\n      0x6a624fd9\n      eq\n      tag_5\n      jumpi\n      dup1\n      0x715018a6\n      eq\n      tag_6\n      jumpi\n      dup1\n      0x8da5cb5b\n      eq\n      tag_7\n      jumpi\n    tag_2:\n      0x00\n      dup1\n      revert\n        /* \"sc/traceability_coffee.sol\":1955:2354  function addUser(address _walletAddress, string memory _roleName, uint _roleID, string memory _nama, string memory _telepon, string memory _alamat, string memory _foto) public onlyOwner {... */\n    tag_3:\n      tag_14\n      0x04\n      dup1\n      calldatasize\n      sub\n      dup2\n      add\n      swap1\n      tag_15\n      swap2\n      swap1\n      tag_16\n      jump\t// in\n    tag_15:\n      tag_17\n      jump\t// in\n    tag_14:\n      stop\n        /* \"sc/traceability_coffee.sol\":2969:3677  function addProduk(string memory _kopiID, string memory _varietas, uint _kuantitas, uint _tanggalProduksi, uint _tanggalKadaluarsa, string memory _foto) public onlyAuthorizedRoles {... */\n    tag_4:\n      tag_18\n      0x04\n      dup1\n      calldatasize\n      sub\n      dup2\n      add\n      swap1\n      tag_19\n      swap2\n      swap1\n      tag_20\n      jump\t// in\n    tag_19:\n      tag_21\n      jump\t// in\n    tag_18:\n      stop\n        /* \"sc/traceability_coffee.sol\":863:908  mapping(string => Transaksi) public transaksi */\n    tag_5:\n      tag_22\n      0x04\n      dup1\n      calldatasize\n      sub\n      dup2\n      add\n      swap1\n      tag_23\n      swap2\n      swap1\n      tag_24\n      jump\t// in\n    tag_23:\n      tag_25\n      jump\t// in\n    tag_22:\n      mload(0x40)\n      tag_26\n      swap8\n      swap7\n      swap6\n      swap5\n      swap4\n      swap3\n      swap2\n      swap1\n      tag_27\n      jump\t// in\n    tag_26:\n      mload(0x40)\n      dup1\n      swap2\n      sub\n      swap1\n      return\n        /* \"@openzeppelin/contracts/access/Ownable.sol\":2293:2394  function renounceOwnership() public virtual onlyOwner {... */\n    tag_6:\n      tag_28\n      tag_29\n      jump\t// in\n    tag_28:\n      stop\n        /* \"@openzeppelin/contracts/access/Ownable.sol\":1638:1723  function owner() public view virtual returns (address) {... */\n    tag_7:\n      tag_30\n      tag_31\n      jump\t// in\n    tag_30:\n      mload(0x40)\n      tag_32\n      swap2\n      swap1\n      tag_33\n      jump\t// in\n    tag_32:\n      mload(0x40)\n      dup1\n      swap2\n      sub\n      swap1\n      return\n        /* \"sc/traceability_coffee.sol\":950:989  mapping(string => Produk) public produk */\n    tag_8:\n      tag_34\n      0x04\n      dup1\n      calldatasize\n      sub\n      dup2\n      add\n      swap1\n      tag_35\n      swap2\n      swap1\n      tag_24\n      jump\t// in\n    tag_35:\n      tag_36\n      jump\t// in\n    tag_34:\n      mload(0x40)\n      tag_37\n      swap9\n      swap8\n      swap7\n      swap6\n      swap5\n      swap4\n      swap3\n      swap2\n      swap1\n      tag_38\n      jump\t// in\n    tag_37:\n      mload(0x40)\n      dup1\n      swap2\n      sub\n      swap1\n      return\n        /* \"sc/traceability_coffee.sol\":820:857  mapping(address => User) public users */\n    tag_9:\n      tag_39\n      0x04\n      dup1\n      calldatasize\n      sub\n      dup2\n      add\n      swap1\n      tag_40\n      swap2\n      swap1\n      tag_41\n      jump\t// in\n    tag_40:\n      tag_42\n      jump\t// in\n    tag_39:\n      mload(0x40)\n      tag_43\n      swap8\n      swap7\n      swap6\n      swap5\n      swap4\n      swap3\n      swap2\n      swap1\n      tag_44\n      jump\t// in\n    tag_43:\n      mload(0x40)\n      dup1\n      swap2\n      sub\n      swap1\n      return\n        /* \"sc/traceability_coffee.sol\":2360:2751  function addTransaksi(string memory _produkID, string memory _varietas, uint _kuantitas, address _penerima) public onlyAuthorizedRoles {... */\n    tag_10:\n      tag_45\n      0x04\n      dup1\n      calldatasize\n      sub\n      dup2\n      add\n      swap1\n      tag_46\n      swap2\n      swap1\n      tag_47\n      jump\t// in\n    tag_46:\n      tag_48\n      jump\t// in\n    tag_45:\n      stop\n        /* \"sc/traceability_coffee.sol\":2757:2963  function konfirmasiTransaksi(string memory _produkID) public onlyPenerima(_produkID) {... */\n    tag_11:\n      tag_49\n      0x04\n      dup1\n      calldatasize\n      sub\n      dup2\n      add\n      swap1\n      tag_50\n      swap2\n      swap1\n      tag_24\n      jump\t// in\n    tag_50:\n      tag_51\n      jump\t// in\n    tag_49:\n      stop\n        /* \"@openzeppelin/contracts/access/Ownable.sol\":2543:2758  function transferOwnership(address newOwner) public virtual onlyOwner {... */\n    tag_12:\n      tag_52\n      0x04\n      dup1\n      calldatasize\n      sub\n      dup2\n      add\n      swap1\n      tag_53\n      swap2\n      swap1\n      tag_41\n      jump\t// in\n    tag_53:\n      tag_54\n      jump\t// in\n    tag_52:\n      stop\n        /* \"sc/traceability_coffee.sol\":1955:2354  function addUser(address _walletAddress, string memory _roleName, uint _roleID, string memory _nama, string memory _telepon, string memory _alamat, string memory _foto) public onlyOwner {... */\n    tag_17:\n        /* \"@openzeppelin/contracts/access/Ownable.sol\":1531:1544  _checkOwner() */\n      tag_56\n        /* \"@openzeppelin/contracts/access/Ownable.sol\":1531:1542  _checkOwner */\n      tag_57\n        /* \"@openzeppelin/contracts/access/Ownable.sol\":1531:1544  _checkOwner() */\n      jump\t// in\n    tag_56:\n        /* \"sc/traceability_coffee.sol\":2175:2248  User(_walletAddress, _roleName, _roleID, _nama, _telepon, _alamat, _foto) */\n      mload(0x40)\n      dup1\n      0xe0\n      add\n      0x40\n      mstore\n      dup1\n        /* \"sc/traceability_coffee.sol\":2180:2194  _walletAddress */\n      dup9\n        /* \"sc/traceability_coffee.sol\":2175:2248  User(_walletAddress, _roleName, _roleID, _nama, _telepon, _alamat, _foto) */\n      0xffffffffffffffffffffffffffffffffffffffff\n      and\n      dup2\n      mstore\n      0x20\n      add\n        /* \"sc/traceability_coffee.sol\":2196:2205  _roleName */\n      dup8\n        /* \"sc/traceability_coffee.sol\":2175:2248  User(_walletAddress, _roleName, _roleID, _nama, _telepon, _alamat, _foto) */\n      dup2\n      mstore\n      0x20\n      add\n        /* \"sc/traceability_coffee.sol\":2207:2214  _roleID */\n      dup7\n        /* \"sc/traceability_coffee.sol\":2175:2248  User(_walletAddress, _roleName, _roleID, _nama, _telepon, _alamat, _foto) */\n      dup2\n      mstore\n      0x20\n      add\n        /* \"sc/traceability_coffee.sol\":2216:2221  _nama */\n      dup6\n        /* \"sc/traceability_coffee.sol\":2175:2248  User(_walletAddress, _roleName, _roleID, _nama, _telepon, _alamat, _foto) */\n      dup2\n      mstore\n      0x20\n      add\n        /* \"sc/traceability_coffee.sol\":2223:2231  _telepon */\n      dup5\n        /* \"sc/traceability_coffee.sol\":2175:2248  User(_walletAddress, _roleName, _roleID, _nama, _telepon, _alamat, _foto) */\n      dup2\n      mstore\n      0x20\n      add\n        /* \"sc/traceability_coffee.sol\":2233:2240  _alamat */\n      dup4\n        /* \"sc/traceability_coffee.sol\":2175:2248  User(_walletAddress, _roleName, _roleID, _nama, _telepon, _alamat, _foto) */\n      dup2\n      mstore\n      0x20\n      add\n        /* \"sc/traceability_coffee.sol\":2242:2247  _foto */\n      dup3\n        /* \"sc/traceability_coffee.sol\":2175:2248  User(_walletAddress, _roleName, _roleID, _nama, _telepon, _alamat, _foto) */\n      dup2\n      mstore\n      pop\n        /* \"sc/traceability_coffee.sol\":2151:2156  users */\n      0x01\n        /* \"sc/traceability_coffee.sol\":2151:2172  users[_walletAddress] */\n      0x00\n        /* \"sc/traceability_coffee.sol\":2157:2171  _walletAddress */\n      dup10\n        /* \"sc/traceability_coffee.sol\":2151:2172  users[_walletAddress] */\n      0xffffffffffffffffffffffffffffffffffffffff\n      and\n      0xffffffffffffffffffffffffffffffffffffffff\n      and\n      dup2\n      mstore\n      0x20\n      add\n      swap1\n      dup2\n      mstore\n      0x20\n      add\n      0x00\n      keccak256\n        /* \"sc/traceability_coffee.sol\":2151:2248  users[_walletAddress] = User(_walletAddress, _roleName, _roleID, _nama, _telepon, _alamat, _foto) */\n      0x00\n      dup3\n      add\n      mload\n      dup2\n      0x00\n      add\n      exp(0x0100, 0x00)\n      dup2\n      sload\n      dup2\n      0xffffffffffffffffffffffffffffffffffffffff\n      mul\n      not\n      and\n      swap1\n      dup4\n      0xffffffffffffffffffffffffffffffffffffffff\n      and\n      mul\n      or\n      swap1\n      sstore\n      pop\n      0x20\n      dup3\n      add\n      mload\n      dup2\n      0x01\n      add\n      swap1\n      dup2\n      tag_59\n      swap2\n      swap1\n      tag_60\n      jump\t// in\n    tag_59:\n      pop\n      0x40\n      dup3\n      add\n      mload\n      dup2\n      0x02\n      add\n      sstore\n      0x60\n      dup3\n      add\n      mload\n      dup2\n      0x03\n      add\n      swap1\n      dup2\n      tag_61\n      swap2\n      swap1\n      tag_60\n      jump\t// in\n    tag_61:\n      pop\n      0x80\n      dup3\n      add\n      mload\n      dup2\n      0x04\n      add\n      swap1\n      dup2\n      tag_62\n      swap2\n      swap1\n      tag_60\n      jump\t// in\n    tag_62:\n      pop\n      0xa0\n      dup3\n      add\n      mload\n      dup2\n      0x05\n      add\n      swap1\n      dup2\n      tag_63\n      swap2\n      swap1\n      tag_60\n      jump\t// in\n    tag_63:\n      pop\n      0xc0\n      dup3\n      add\n      mload\n      dup2\n      0x06\n      add\n      swap1\n      dup2\n      tag_64\n      swap2\n      swap1\n      tag_60\n      jump\t// in\n    tag_64:\n      pop\n      swap1\n      pop\n      pop\n        /* \"sc/traceability_coffee.sol\":2263:2347  UserDitambahkan(_walletAddress, _roleName, _roleID, _nama, _telepon, _alamat, _foto) */\n      0xc37e53df220b9d40fa53f3b01f7312eeaf9901ac9905768d53f1b08b5b498bd5\n        /* \"sc/traceability_coffee.sol\":2279:2293  _walletAddress */\n      dup8\n        /* \"sc/traceability_coffee.sol\":2295:2304  _roleName */\n      dup8\n        /* \"sc/traceability_coffee.sol\":2306:2313  _roleID */\n      dup8\n        /* \"sc/traceability_coffee.sol\":2315:2320  _nama */\n      dup8\n        /* \"sc/traceability_coffee.sol\":2322:2330  _telepon */\n      dup8\n        /* \"sc/traceability_coffee.sol\":2332:2339  _alamat */\n      dup8\n        /* \"sc/traceability_coffee.sol\":2341:2346  _foto */\n      dup8\n        /* \"sc/traceability_coffee.sol\":2263:2347  UserDitambahkan(_walletAddress, _roleName, _roleID, _nama, _telepon, _alamat, _foto) */\n      mload(0x40)\n      tag_65\n      swap8\n      swap7\n      swap6\n      swap5\n      swap4\n      swap3\n      swap2\n      swap1\n      tag_44\n      jump\t// in\n    tag_65:\n      mload(0x40)\n      dup1\n      swap2\n      sub\n      swap1\n      log1\n        /* \"sc/traceability_coffee.sol\":1955:2354  function addUser(address _walletAddress, string memory _roleName, uint _roleID, string memory _nama, string memory _telepon, string memory _alamat, string memory _foto) public onlyOwner {... */\n      pop\n      pop\n      pop\n      pop\n      pop\n      pop\n      pop\n      jump\t// out\n        /* \"sc/traceability_coffee.sol\":2969:3677  function addProduk(string memory _kopiID, string memory _varietas, uint _kuantitas, uint _tanggalProduksi, uint _tanggalKadaluarsa, string memory _foto) public onlyAuthorizedRoles {... */\n    tag_21:\n        /* \"sc/traceability_coffee.sol\":1682:1683  0 */\n      0x00\n        /* \"sc/traceability_coffee.sol\":1655:1660  users */\n      0x01\n        /* \"sc/traceability_coffee.sol\":1655:1672  users[msg.sender] */\n      0x00\n        /* \"sc/traceability_coffee.sol\":1661:1671  msg.sender */\n      caller\n        /* \"sc/traceability_coffee.sol\":1655:1672  users[msg.sender] */\n      0xffffffffffffffffffffffffffffffffffffffff\n      and\n      0xffffffffffffffffffffffffffffffffffffffff\n      and\n      dup2\n      mstore\n      0x20\n      add\n      swap1\n      dup2\n      mstore\n      0x20\n      add\n      0x00\n      keccak256\n        /* \"sc/traceability_coffee.sol\":1655:1679  users[msg.sender].roleID */\n      0x02\n      add\n      sload\n        /* \"sc/traceability_coffee.sol\":1655:1683  users[msg.sender].roleID > 0 */\n      gt\n        /* \"sc/traceability_coffee.sol\":1655:1716  users[msg.sender].roleID > 0 && users[msg.sender].roleID <= 5 */\n      dup1\n      iszero\n      tag_67\n      jumpi\n      pop\n        /* \"sc/traceability_coffee.sol\":1715:1716  5 */\n      0x05\n        /* \"sc/traceability_coffee.sol\":1687:1692  users */\n      0x01\n        /* \"sc/traceability_coffee.sol\":1687:1704  users[msg.sender] */\n      0x00\n        /* \"sc/traceability_coffee.sol\":1693:1703  msg.sender */\n      caller\n        /* \"sc/traceability_coffee.sol\":1687:1704  users[msg.sender] */\n      0xffffffffffffffffffffffffffffffffffffffff\n      and\n      0xffffffffffffffffffffffffffffffffffffffff\n      and\n      dup2\n      mstore\n      0x20\n      add\n      swap1\n      dup2\n      mstore\n      0x20\n      add\n      0x00\n      keccak256\n        /* \"sc/traceability_coffee.sol\":1687:1711  users[msg.sender].roleID */\n      0x02\n      add\n      sload\n        /* \"sc/traceability_coffee.sol\":1687:1716  users[msg.sender].roleID <= 5 */\n      gt\n      iszero\n        /* \"sc/traceability_coffee.sol\":1655:1716  users[msg.sender].roleID > 0 && users[msg.sender].roleID <= 5 */\n    tag_67:\n        /* \"sc/traceability_coffee.sol\":1647:1742  require(users[msg.sender].roleID > 0 && users[msg.sender].roleID <= 5, \"Peran tidak diizinkan\") */\n      tag_68\n      jumpi\n      mload(0x40)\n      0x08c379a000000000000000000000000000000000000000000000000000000000\n      dup2\n      mstore\n      0x04\n      add\n      tag_69\n      swap1\n      tag_70\n      jump\t// in\n    tag_69:\n      mload(0x40)\n      dup1\n      swap2\n      sub\n      swap1\n      revert\n    tag_68:\n        /* \"sc/traceability_coffee.sol\":3159:3181  string memory produkID */\n      0x00\n        /* \"sc/traceability_coffee.sol\":3208:3215  _kopiID */\n      dup7\n        /* \"sc/traceability_coffee.sol\":3217:3242  uint2str(block.timestamp) */\n      tag_72\n        /* \"sc/traceability_coffee.sol\":3226:3241  block.timestamp */\n      timestamp\n        /* \"sc/traceability_coffee.sol\":3217:3225  uint2str */\n      tag_73\n        /* \"sc/traceability_coffee.sol\":3217:3242  uint2str(block.timestamp) */\n      jump\t// in\n    tag_72:\n        /* \"sc/traceability_coffee.sol\":3191:3243  abi.encodePacked(_kopiID, uint2str(block.timestamp)) */\n      add(0x20, mload(0x40))\n      tag_74\n      swap3\n      swap2\n      swap1\n      tag_75\n      jump\t// in\n    tag_74:\n      mload(0x40)\n      0x20\n      dup2\n      dup4\n      sub\n      sub\n      dup2\n      mstore\n      swap1\n      0x40\n      mstore\n        /* \"sc/traceability_coffee.sol\":3159:3244  string memory produkID = string(abi.encodePacked(_kopiID, uint2str(block.timestamp))) */\n      swap1\n      pop\n        /* \"sc/traceability_coffee.sol\":3303:3408  Produk(produkID, _kopiID, _varietas, _kuantitas, _tanggalProduksi, _tanggalKadaluarsa, _foto, msg.sender) */\n      mload(0x40)\n      dup1\n      0x0100\n      add\n      0x40\n      mstore\n      dup1\n        /* \"sc/traceability_coffee.sol\":3310:3318  produkID */\n      dup3\n        /* \"sc/traceability_coffee.sol\":3303:3408  Produk(produkID, _kopiID, _varietas, _kuantitas, _tanggalProduksi, _tanggalKadaluarsa, _foto, msg.sender) */\n      dup2\n      mstore\n      0x20\n      add\n        /* \"sc/traceability_coffee.sol\":3320:3327  _kopiID */\n      dup9\n        /* \"sc/traceability_coffee.sol\":3303:3408  Produk(produkID, _kopiID, _varietas, _kuantitas, _tanggalProduksi, _tanggalKadaluarsa, _foto, msg.sender) */\n      dup2\n      mstore\n      0x20\n      add\n        /* \"sc/traceability_coffee.sol\":3329:3338  _varietas */\n      dup8\n        /* \"sc/traceability_coffee.sol\":3303:3408  Produk(produkID, _kopiID, _varietas, _kuantitas, _tanggalProduksi, _tanggalKadaluarsa, _foto, msg.sender) */\n      dup2\n      mstore\n      0x20\n      add\n        /* \"sc/traceability_coffee.sol\":3340:3350  _kuantitas */\n      dup7\n        /* \"sc/traceability_coffee.sol\":3303:3408  Produk(produkID, _kopiID, _varietas, _kuantitas, _tanggalProduksi, _tanggalKadaluarsa, _foto, msg.sender) */\n      dup2\n      mstore\n      0x20\n      add\n        /* \"sc/traceability_coffee.sol\":3352:3368  _tanggalProduksi */\n      dup6\n        /* \"sc/traceability_coffee.sol\":3303:3408  Produk(produkID, _kopiID, _varietas, _kuantitas, _tanggalProduksi, _tanggalKadaluarsa, _foto, msg.sender) */\n      dup2\n      mstore\n      0x20\n      add\n        /* \"sc/traceability_coffee.sol\":3370:3388  _tanggalKadaluarsa */\n      dup5\n        /* \"sc/traceability_coffee.sol\":3303:3408  Produk(produkID, _kopiID, _varietas, _kuantitas, _tanggalProduksi, _tanggalKadaluarsa, _foto, msg.sender) */\n      dup2\n      mstore\n      0x20\n      add\n        /* \"sc/traceability_coffee.sol\":3390:3395  _foto */\n      dup4\n        /* \"sc/traceability_coffee.sol\":3303:3408  Produk(produkID, _kopiID, _varietas, _kuantitas, _tanggalProduksi, _tanggalKadaluarsa, _foto, msg.sender) */\n      dup2\n      mstore\n      0x20\n      add\n        /* \"sc/traceability_coffee.sol\":3397:3407  msg.sender */\n      caller\n        /* \"sc/traceability_coffee.sol\":3303:3408  Produk(produkID, _kopiID, _varietas, _kuantitas, _tanggalProduksi, _tanggalKadaluarsa, _foto, msg.sender) */\n      0xffffffffffffffffffffffffffffffffffffffff\n      and\n      dup2\n      mstore\n      pop\n        /* \"sc/traceability_coffee.sol\":3284:3290  produk */\n      0x03\n        /* \"sc/traceability_coffee.sol\":3291:3299  produkID */\n      dup3\n        /* \"sc/traceability_coffee.sol\":3284:3300  produk[produkID] */\n      mload(0x40)\n      tag_76\n      swap2\n      swap1\n      tag_77\n      jump\t// in\n    tag_76:\n      swap1\n      dup2\n      mstore\n      0x20\n      add\n      mload(0x40)\n      dup1\n      swap2\n      sub\n      swap1\n      keccak256\n        /* \"sc/traceability_coffee.sol\":3284:3408  produk[produkID] = Produk(produkID, _kopiID, _varietas, _kuantitas, _tanggalProduksi, _tanggalKadaluarsa, _foto, msg.sender) */\n      0x00\n      dup3\n      add\n      mload\n      dup2\n      0x00\n      add\n      swap1\n      dup2\n      tag_78\n      swap2\n      swap1\n      tag_60\n      jump\t// in\n    tag_78:\n      pop\n      0x20\n      dup3\n      add\n      mload\n      dup2\n      0x01\n      add\n      swap1\n      dup2\n      tag_79\n      swap2\n      swap1\n      tag_60\n      jump\t// in\n    tag_79:\n      pop\n      0x40\n      dup3\n      add\n      mload\n      dup2\n      0x02\n      add\n      swap1\n      dup2\n      tag_80\n      swap2\n      swap1\n      tag_60\n      jump\t// in\n    tag_80:\n      pop\n      0x60\n      dup3\n      add\n      mload\n      dup2\n      0x03\n      add\n      sstore\n      0x80\n      dup3\n      add\n      mload\n      dup2\n      0x04\n      add\n      sstore\n      0xa0\n      dup3\n      add\n      mload\n      dup2\n      0x05\n      add\n      sstore\n      0xc0\n      dup3\n      add\n      mload\n      dup2\n      0x06\n      add\n      swap1\n      dup2\n      tag_81\n      swap2\n      swap1\n      tag_60\n      jump\t// in\n    tag_81:\n      pop\n      0xe0\n      dup3\n      add\n      mload\n      dup2\n      0x07\n      add\n      exp(0x0100, 0x00)\n      dup2\n      sload\n      dup2\n      0xffffffffffffffffffffffffffffffffffffffff\n      mul\n      not\n      and\n      swap1\n      dup4\n      0xffffffffffffffffffffffffffffffffffffffff\n      and\n      mul\n      or\n      swap1\n      sstore\n      pop\n      swap1\n      pop\n      pop\n        /* \"sc/traceability_coffee.sol\":3481:3538  addTransaksi(produkID, _varietas, _kuantitas, msg.sender) */\n      tag_82\n        /* \"sc/traceability_coffee.sol\":3494:3502  produkID */\n      dup2\n        /* \"sc/traceability_coffee.sol\":3504:3513  _varietas */\n      dup8\n        /* \"sc/traceability_coffee.sol\":3515:3525  _kuantitas */\n      dup8\n        /* \"sc/traceability_coffee.sol\":3527:3537  msg.sender */\n      caller\n        /* \"sc/traceability_coffee.sol\":3481:3493  addTransaksi */\n      tag_48\n        /* \"sc/traceability_coffee.sol\":3481:3538  addTransaksi(produkID, _varietas, _kuantitas, msg.sender) */\n      jump\t// in\n    tag_82:\n        /* \"sc/traceability_coffee.sol\":3554:3670  ProdukDitambahkan(produkID, _kopiID, _varietas, _kuantitas, _tanggalProduksi, _tanggalKadaluarsa, _foto, msg.sender) */\n      0x1e9f7e0713c76c01ac54cd1a1fd3869e638b2c6908f95340ba377c059a608ea1\n        /* \"sc/traceability_coffee.sol\":3572:3580  produkID */\n      dup2\n        /* \"sc/traceability_coffee.sol\":3582:3589  _kopiID */\n      dup9\n        /* \"sc/traceability_coffee.sol\":3591:3600  _varietas */\n      dup9\n        /* \"sc/traceability_coffee.sol\":3602:3612  _kuantitas */\n      dup9\n        /* \"sc/traceability_coffee.sol\":3614:3630  _tanggalProduksi */\n      dup9\n        /* \"sc/traceability_coffee.sol\":3632:3650  _tanggalKadaluarsa */\n      dup9\n        /* \"sc/traceability_coffee.sol\":3652:3657  _foto */\n      dup9\n        /* \"sc/traceability_coffee.sol\":3659:3669  msg.sender */\n      caller\n        /* \"sc/traceability_coffee.sol\":3554:3670  ProdukDitambahkan(produkID, _kopiID, _varietas, _kuantitas, _tanggalProduksi, _tanggalKadaluarsa, _foto, msg.sender) */\n      mload(0x40)\n      tag_83\n      swap9\n      swap8\n      swap7\n      swap6\n      swap5\n      swap4\n      swap3\n      swap2\n      swap1\n      tag_38\n      jump\t// in\n    tag_83:\n      mload(0x40)\n      dup1\n      swap2\n      sub\n      swap1\n      log1\n        /* \"sc/traceability_coffee.sol\":3149:3677  {... */\n      pop\n        /* \"sc/traceability_coffee.sol\":2969:3677  function addProduk(string memory _kopiID, string memory _varietas, uint _kuantitas, uint _tanggalProduksi, uint _tanggalKadaluarsa, string memory _foto) public onlyAuthorizedRoles {... */\n      pop\n      pop\n      pop\n      pop\n      pop\n      pop\n      jump\t// out\n        /* \"sc/traceability_coffee.sol\":863:908  mapping(string => Transaksi) public transaksi */\n    tag_25:\n      0x02\n      dup2\n      dup1\n      mload\n      0x20\n      dup2\n      add\n      dup3\n      add\n      dup1\n      mload\n      dup5\n      dup3\n      mstore\n      0x20\n      dup4\n      add\n      0x20\n      dup6\n      add\n      keccak256\n      dup2\n      dup4\n      mstore\n      dup1\n      swap6\n      pop\n      pop\n      pop\n      pop\n      pop\n      pop\n      0x00\n      swap2\n      pop\n      swap1\n      pop\n      dup1\n      0x00\n      add\n      dup1\n      sload\n      tag_84\n      swap1\n      tag_85\n      jump\t// in\n    tag_84:\n      dup1\n      0x1f\n      add\n      0x20\n      dup1\n      swap2\n      div\n      mul\n      0x20\n      add\n      mload(0x40)\n      swap1\n      dup2\n      add\n      0x40\n      mstore\n      dup1\n      swap3\n      swap2\n      swap1\n      dup2\n      dup2\n      mstore\n      0x20\n      add\n      dup3\n      dup1\n      sload\n      tag_86\n      swap1\n      tag_85\n      jump\t// in\n    tag_86:\n      dup1\n      iszero\n      tag_87\n      jumpi\n      dup1\n      0x1f\n      lt\n      tag_88\n      jumpi\n      0x0100\n      dup1\n      dup4\n      sload\n      div\n      mul\n      dup4\n      mstore\n      swap2\n      0x20\n      add\n      swap2\n      jump(tag_87)\n    tag_88:\n      dup3\n      add\n      swap2\n      swap1\n      0x00\n      mstore\n      keccak256(0x00, 0x20)\n      swap1\n    tag_89:\n      dup2\n      sload\n      dup2\n      mstore\n      swap1\n      0x01\n      add\n      swap1\n      0x20\n      add\n      dup1\n      dup4\n      gt\n      tag_89\n      jumpi\n      dup3\n      swap1\n      sub\n      0x1f\n      and\n      dup3\n      add\n      swap2\n    tag_87:\n      pop\n      pop\n      pop\n      pop\n      pop\n      swap1\n      dup1\n      0x01\n      add\n      dup1\n      sload\n      tag_90\n      swap1\n      tag_85\n      jump\t// in\n    tag_90:\n      dup1\n      0x1f\n      add\n      0x20\n      dup1\n      swap2\n      div\n      mul\n      0x20\n      add\n      mload(0x40)\n      swap1\n      dup2\n      add\n      0x40\n      mstore\n      dup1\n      swap3\n      swap2\n      swap1\n      dup2\n      dup2\n      mstore\n      0x20\n      add\n      dup3\n      dup1\n      sload\n      tag_91\n      swap1\n      tag_85\n      jump\t// in\n    tag_91:\n      dup1\n      iszero\n      tag_92\n      jumpi\n      dup1\n      0x1f\n      lt\n      tag_93\n      jumpi\n      0x0100\n      dup1\n      dup4\n      sload\n      div\n      mul\n      dup4\n      mstore\n      swap2\n      0x20\n      add\n      swap2\n      jump(tag_92)\n    tag_93:\n      dup3\n      add\n      swap2\n      swap1\n      0x00\n      mstore\n      keccak256(0x00, 0x20)\n      swap1\n    tag_94:\n      dup2\n      sload\n      dup2\n      mstore\n      swap1\n      0x01\n      add\n      swap1\n      0x20\n      add\n      dup1\n      dup4\n      gt\n      tag_94\n      jumpi\n      dup3\n      swap1\n      sub\n      0x1f\n      and\n      dup3\n      add\n      swap2\n    tag_92:\n      pop\n      pop\n      pop\n      pop\n      pop\n      swap1\n      dup1\n      0x02\n      add\n      sload\n      swap1\n      dup1\n      0x03\n      add\n      0x00\n      swap1\n      sload\n      swap1\n      0x0100\n      exp\n      swap1\n      div\n      0xffffffffffffffffffffffffffffffffffffffff\n      and\n      swap1\n      dup1\n      0x04\n      add\n      0x00\n      swap1\n      sload\n      swap1\n      0x0100\n      exp\n      swap1\n      div\n      0xffffffffffffffffffffffffffffffffffffffff\n      and\n      swap1\n      dup1\n      0x05\n      add\n      sload\n      swap1\n      dup1\n      0x06\n      add\n      dup1\n      sload\n      tag_95\n      swap1\n      tag_85\n      jump\t// in\n    tag_95:\n      dup1\n      0x1f\n      add\n      0x20\n      dup1\n      swap2\n      div\n      mul\n      0x20\n      add\n      mload(0x40)\n      swap1\n      dup2\n      add\n      0x40\n      mstore\n      dup1\n      swap3\n      swap2\n      swap1\n      dup2\n      dup2\n      mstore\n      0x20\n      add\n      dup3\n      dup1\n      sload\n      tag_96\n      swap1\n      tag_85\n      jump\t// in\n    tag_96:\n      dup1\n      iszero\n      tag_97\n      jumpi\n      dup1\n      0x1f\n      lt\n      tag_98\n      jumpi\n      0x0100\n      dup1\n      dup4\n      sload\n      div\n      mul\n      dup4\n      mstore\n      swap2\n      0x20\n      add\n      swap2\n      jump(tag_97)\n    tag_98:\n      dup3\n      add\n      swap2\n      swap1\n      0x00\n      mstore\n      keccak256(0x00, 0x20)\n      swap1\n    tag_99:\n      dup2\n      sload\n      dup2\n      mstore\n      swap1\n      0x01\n      add\n      swap1\n      0x20\n      add\n      dup1\n      dup4\n      gt\n      tag_99\n      jumpi\n      dup3\n      swap1\n      sub\n      0x1f\n      and\n      dup3\n      add\n      swap2\n    tag_97:\n      pop\n      pop\n      pop\n      pop\n      pop\n      swap1\n      pop\n      dup8\n      jump\t// out\n        /* \"@openzeppelin/contracts/access/Ownable.sol\":2293:2394  function renounceOwnership() public virtual onlyOwner {... */\n    tag_29:\n        /* \"@openzeppelin/contracts/access/Ownable.sol\":1531:1544  _checkOwner() */\n      tag_101\n        /* \"@openzeppelin/contracts/access/Ownable.sol\":1531:1542  _checkOwner */\n      tag_57\n        /* \"@openzeppelin/contracts/access/Ownable.sol\":1531:1544  _checkOwner() */\n      jump\t// in\n    tag_101:\n        /* \"@openzeppelin/contracts/access/Ownable.sol\":2357:2387  _transferOwnership(address(0)) */\n      tag_103\n        /* \"@openzeppelin/contracts/access/Ownable.sol\":2384:2385  0 */\n      0x00\n        /* \"@openzeppelin/contracts/access/Ownable.sol\":2357:2375  _transferOwnership */\n      tag_104\n        /* \"@openzeppelin/contracts/access/Ownable.sol\":2357:2387  _transferOwnership(address(0)) */\n      jump\t// in\n    tag_103:\n        /* \"@openzeppelin/contracts/access/Ownable.sol\":2293:2394  function renounceOwnership() public virtual onlyOwner {... */\n      jump\t// out\n        /* \"@openzeppelin/contracts/access/Ownable.sol\":1638:1723  function owner() public view virtual returns (address) {... */\n    tag_31:\n        /* \"@openzeppelin/contracts/access/Ownable.sol\":1684:1691  address */\n      0x00\n        /* \"@openzeppelin/contracts/access/Ownable.sol\":1710:1716  _owner */\n      dup1\n      0x00\n      swap1\n      sload\n      swap1\n      0x0100\n      exp\n      swap1\n      div\n      0xffffffffffffffffffffffffffffffffffffffff\n      and\n        /* \"@openzeppelin/contracts/access/Ownable.sol\":1703:1716  return _owner */\n      swap1\n      pop\n        /* \"@openzeppelin/contracts/access/Ownable.sol\":1638:1723  function owner() public view virtual returns (address) {... */\n      swap1\n      jump\t// out\n        /* \"sc/traceability_coffee.sol\":950:989  mapping(string => Produk) public produk */\n    tag_36:\n      0x03\n      dup2\n      dup1\n      mload\n      0x20\n      dup2\n      add\n      dup3\n      add\n      dup1\n      mload\n      dup5\n      dup3\n      mstore\n      0x20\n      dup4\n      add\n      0x20\n      dup6\n      add\n      keccak256\n      dup2\n      dup4\n      mstore\n      dup1\n      swap6\n      pop\n      pop\n      pop\n      pop\n      pop\n      pop\n      0x00\n      swap2\n      pop\n      swap1\n      pop\n      dup1\n      0x00\n      add\n      dup1\n      sload\n      tag_106\n      swap1\n      tag_85\n      jump\t// in\n    tag_106:\n      dup1\n      0x1f\n      add\n      0x20\n      dup1\n      swap2\n      div\n      mul\n      0x20\n      add\n      mload(0x40)\n      swap1\n      dup2\n      add\n      0x40\n      mstore\n      dup1\n      swap3\n      swap2\n      swap1\n      dup2\n      dup2\n      mstore\n      0x20\n      add\n      dup3\n      dup1\n      sload\n      tag_107\n      swap1\n      tag_85\n      jump\t// in\n    tag_107:\n      dup1\n      iszero\n      tag_108\n      jumpi\n      dup1\n      0x1f\n      lt\n      tag_109\n      jumpi\n      0x0100\n      dup1\n      dup4\n      sload\n      div\n      mul\n      dup4\n      mstore\n      swap2\n      0x20\n      add\n      swap2\n      jump(tag_108)\n    tag_109:\n      dup3\n      add\n      swap2\n      swap1\n      0x00\n      mstore\n      keccak256(0x00, 0x20)\n      swap1\n    tag_110:\n      dup2\n      sload\n      dup2\n      mstore\n      swap1\n      0x01\n      add\n      swap1\n      0x20\n      add\n      dup1\n      dup4\n      gt\n      tag_110\n      jumpi\n      dup3\n      swap1\n      sub\n      0x1f\n      and\n      dup3\n      add\n      swap2\n    tag_108:\n      pop\n      pop\n      pop\n      pop\n      pop\n      swap1\n      dup1\n      0x01\n      add\n      dup1\n      sload\n      tag_111\n      swap1\n      tag_85\n      jump\t// in\n    tag_111:\n      dup1\n      0x1f\n      add\n      0x20\n      dup1\n      swap2\n      div\n      mul\n      0x20\n      add\n      mload(0x40)\n      swap1\n      dup2\n      add\n      0x40\n      mstore\n      dup1\n      swap3\n      swap2\n      swap1\n      dup2\n      dup2\n      mstore\n      0x20\n      add\n      dup3\n      dup1\n      sload\n      tag_112\n      swap1\n      tag_85\n      jump\t// in\n    tag_112:\n      dup1\n      iszero\n      tag_113\n      jumpi\n      dup1\n      0x1f\n      lt\n      tag_114\n      jumpi\n      0x0100\n      dup1\n      dup4\n      sload\n      div\n      mul\n      dup4\n      mstore\n      swap2\n      0x20\n      add\n      swap2\n      jump(tag_113)\n    tag_114:\n      dup3\n      add\n      swap2\n      swap1\n      0x00\n      mstore\n      keccak256(0x00, 0x20)\n      swap1\n    tag_115:\n      dup2\n      sload\n      dup2\n      mstore\n      swap1\n      0x01\n      add\n      swap1\n      0x20\n      add\n      dup1\n      dup4\n      gt\n      tag_115\n      jumpi\n      dup3\n      swap1\n      sub\n      0x1f\n      and\n      dup3\n      add\n      swap2\n    tag_113:\n      pop\n      pop\n      pop\n      pop\n      pop\n      swap1\n      dup1\n      0x02\n      add\n      dup1\n      sload\n      tag_116\n      swap1\n      tag_85\n      jump\t// in\n    tag_116:\n      dup1\n      0x1f\n      add\n      0x20\n      dup1\n      swap2\n      div\n      mul\n      0x20\n      add\n      mload(0x40)\n      swap1\n      dup2\n      add\n      0x40\n      mstore\n      dup1\n      swap3\n      swap2\n      swap1\n      dup2\n      dup2\n      mstore\n      0x20\n      add\n      dup3\n      dup1\n      sload\n      tag_117\n      swap1\n      tag_85\n      jump\t// in\n    tag_117:\n      dup1\n      iszero\n      tag_118\n      jumpi\n      dup1\n      0x1f\n      lt\n      tag_119\n      jumpi\n      0x0100\n      dup1\n      dup4\n      sload\n      div\n      mul\n      dup4\n      mstore\n      swap2\n      0x20\n      add\n      swap2\n      jump(tag_118)\n    tag_119:\n      dup3\n      add\n      swap2\n      swap1\n      0x00\n      mstore\n      keccak256(0x00, 0x20)\n      swap1\n    tag_120:\n      dup2\n      sload\n      dup2\n      mstore\n      swap1\n      0x01\n      add\n      swap1\n      0x20\n      add\n      dup1\n      dup4\n      gt\n      tag_120\n      jumpi\n      dup3\n      swap1\n      sub\n      0x1f\n      and\n      dup3\n      add\n      swap2\n    tag_118:\n      pop\n      pop\n      pop\n      pop\n      pop\n      swap1\n      dup1\n      0x03\n      add\n      sload\n      swap1\n      dup1\n      0x04\n      add\n      sload\n      swap1\n      dup1\n      0x05\n      add\n      sload\n      swap1\n      dup1\n      0x06\n      add\n      dup1\n      sload\n      tag_121\n      swap1\n      tag_85\n      jump\t// in\n    tag_121:\n      dup1\n      0x1f\n      add\n      0x20\n      dup1\n      swap2\n      div\n      mul\n      0x20\n      add\n      mload(0x40)\n      swap1\n      dup2\n      add\n      0x40\n      mstore\n      dup1\n      swap3\n      swap2\n      swap1\n      dup2\n      dup2\n      mstore\n      0x20\n      add\n      dup3\n      dup1\n      sload\n      tag_122\n      swap1\n      tag_85\n      jump\t// in\n    tag_122:\n      dup1\n      iszero\n      tag_123\n      jumpi\n      dup1\n      0x1f\n      lt\n      tag_124\n      jumpi\n      0x0100\n      dup1\n      dup4\n      sload\n      div\n      mul\n      dup4\n      mstore\n      swap2\n      0x20\n      add\n      swap2\n      jump(tag_123)\n    tag_124:\n      dup3\n      add\n      swap2\n      swap1\n      0x00\n      mstore\n      keccak256(0x00, 0x20)\n      swap1\n    tag_125:\n      dup2\n      sload\n      dup2\n      mstore\n      swap1\n      0x01\n      add\n      swap1\n      0x20\n      add\n      dup1\n      dup4\n      gt\n      tag_125\n      jumpi\n      dup3\n      swap1\n      sub\n      0x1f\n      and\n      dup3\n      add\n      swap2\n    tag_123:\n      pop\n      pop\n      pop\n      pop\n      pop\n      swap1\n      dup1\n      0x07\n      add\n      0x00\n      swap1\n      sload\n      swap1\n      0x0100\n      exp\n      swap1\n      div\n      0xffffffffffffffffffffffffffffffffffffffff\n      and\n      swap1\n      pop\n      dup9\n      jump\t// out\n        /* \"sc/traceability_coffee.sol\":820:857  mapping(address => User) public users */\n    tag_42:\n      mstore(0x20, 0x01)\n      dup1\n      0x00\n      mstore\n      keccak256(0x00, 0x40)\n      0x00\n      swap2\n      pop\n      swap1\n      pop\n      dup1\n      0x00\n      add\n      0x00\n      swap1\n      sload\n      swap1\n      0x0100\n      exp\n      swap1\n      div\n      0xffffffffffffffffffffffffffffffffffffffff\n      and\n      swap1\n      dup1\n      0x01\n      add\n      dup1\n      sload\n      tag_126\n      swap1\n      tag_85\n      jump\t// in\n    tag_126:\n      dup1\n      0x1f\n      add\n      0x20\n      dup1\n      swap2\n      div\n      mul\n      0x20\n      add\n      mload(0x40)\n      swap1\n      dup2\n      add\n      0x40\n      mstore\n      dup1\n      swap3\n      swap2\n      swap1\n      dup2\n      dup2\n      mstore\n      0x20\n      add\n      dup3\n      dup1\n      sload\n      tag_127\n      swap1\n      tag_85\n      jump\t// in\n    tag_127:\n      dup1\n      iszero\n      tag_128\n      jumpi\n      dup1\n      0x1f\n      lt\n      tag_129\n      jumpi\n      0x0100\n      dup1\n      dup4\n      sload\n      div\n      mul\n      dup4\n      mstore\n      swap2\n      0x20\n      add\n      swap2\n      jump(tag_128)\n    tag_129:\n      dup3\n      add\n      swap2\n      swap1\n      0x00\n      mstore\n      keccak256(0x00, 0x20)\n      swap1\n    tag_130:\n      dup2\n      sload\n      dup2\n      mstore\n      swap1\n      0x01\n      add\n      swap1\n      0x20\n      add\n      dup1\n      dup4\n      gt\n      tag_130\n      jumpi\n      dup3\n      swap1\n      sub\n      0x1f\n      and\n      dup3\n      add\n      swap2\n    tag_128:\n      pop\n      pop\n      pop\n      pop\n      pop\n      swap1\n      dup1\n      0x02\n      add\n      sload\n      swap1\n      dup1\n      0x03\n      add\n      dup1\n      sload\n      tag_131\n      swap1\n      tag_85\n      jump\t// in\n    tag_131:\n      dup1\n      0x1f\n      add\n      0x20\n      dup1\n      swap2\n      div\n      mul\n      0x20\n      add\n      mload(0x40)\n      swap1\n      dup2\n      add\n      0x40\n      mstore\n      dup1\n      swap3\n      swap2\n      swap1\n      dup2\n      dup2\n      mstore\n      0x20\n      add\n      dup3\n      dup1\n      sload\n      tag_132\n      swap1\n      tag_85\n      jump\t// in\n    tag_132:\n      dup1\n      iszero\n      tag_133\n      jumpi\n      dup1\n      0x1f\n      lt\n      tag_134\n      jumpi\n      0x0100\n      dup1\n      dup4\n      sload\n      div\n      mul\n      dup4\n      mstore\n      swap2\n      0x20\n      add\n      swap2\n      jump(tag_133)\n    tag_134:\n      dup3\n      add\n      swap2\n      swap1\n      0x00\n      mstore\n      keccak256(0x00, 0x20)\n      swap1\n    tag_135:\n      dup2\n      sload\n      dup2\n      mstore\n      swap1\n      0x01\n      add\n      swap1\n      0x20\n      add\n      dup1\n      dup4\n      gt\n      tag_135\n      jumpi\n      dup3\n      swap1\n      sub\n      0x1f\n      and\n      dup3\n      add\n      swap2\n    tag_133:\n      pop\n      pop\n      pop\n      pop\n      pop\n      swap1\n      dup1\n      0x04\n      add\n      dup1\n      sload\n      tag_136\n      swap1\n      tag_85\n      jump\t// in\n    tag_136:\n      dup1\n      0x1f\n      add\n      0x20\n      dup1\n      swap2\n      div\n      mul\n      0x20\n      add\n      mload(0x40)\n      swap1\n      dup2\n      add\n      0x40\n      mstore\n      dup1\n      swap3\n      swap2\n      swap1\n      dup2\n      dup2\n      mstore\n      0x20\n      add\n      dup3\n      dup1\n      sload\n      tag_137\n      swap1\n      tag_85\n      jump\t// in\n    tag_137:\n      dup1\n      iszero\n      tag_138\n      jumpi\n      dup1\n      0x1f\n      lt\n      tag_139\n      jumpi\n      0x0100\n      dup1\n      dup4\n      sload\n      div\n      mul\n      dup4\n      mstore\n      swap2\n      0x20\n      add\n      swap2\n      jump(tag_138)\n    tag_139:\n      dup3\n      add\n      swap2\n      swap1\n      0x00\n      mstore\n      keccak256(0x00, 0x20)\n      swap1\n    tag_140:\n      dup2\n      sload\n      dup2\n      mstore\n      swap1\n      0x01\n      add\n      swap1\n      0x20\n      add\n      dup1\n      dup4\n      gt\n      tag_140\n      jumpi\n      dup3\n      swap1\n      sub\n      0x1f\n      and\n      dup3\n      add\n      swap2\n    tag_138:\n      pop\n      pop\n      pop\n      pop\n      pop\n      swap1\n      dup1\n      0x05\n      add\n      dup1\n      sload\n      tag_141\n      swap1\n      tag_85\n      jump\t// in\n    tag_141:\n      dup1\n      0x1f\n      add\n      0x20\n      dup1\n      swap2\n      div\n      mul\n      0x20\n      add\n      mload(0x40)\n      swap1\n      dup2\n      add\n      0x40\n      mstore\n      dup1\n      swap3\n      swap2\n      swap1\n      dup2\n      dup2\n      mstore\n      0x20\n      add\n      dup3\n      dup1\n      sload\n      tag_142\n      swap1\n      tag_85\n      jump\t// in\n    tag_142:\n      dup1\n      iszero\n      tag_143\n      jumpi\n      dup1\n      0x1f\n      lt\n      tag_144\n      jumpi\n      0x0100\n      dup1\n      dup4\n      sload\n      div\n      mul\n      dup4\n      mstore\n      swap2\n      0x20\n      add\n      swap2\n      jump(tag_143)\n    tag_144:\n      dup3\n      add\n      swap2\n      swap1\n      0x00\n      mstore\n      keccak256(0x00, 0x20)\n      swap1\n    tag_145:\n      dup2\n      sload\n      dup2\n      mstore\n      swap1\n      0x01\n      add\n      swap1\n      0x20\n      add\n      dup1\n      dup4\n      gt\n      tag_145\n      jumpi\n      dup3\n      swap1\n      sub\n      0x1f\n      and\n      dup3\n      add\n      swap2\n    tag_143:\n      pop\n      pop\n      pop\n      pop\n      pop\n      swap1\n      dup1\n      0x06\n      add\n      dup1\n      sload\n      tag_146\n      swap1\n      tag_85\n      jump\t// in\n    tag_146:\n      dup1\n      0x1f\n      add\n      0x20\n      dup1\n      swap2\n      div\n      mul\n      0x20\n      add\n      mload(0x40)\n      swap1\n      dup2\n      add\n      0x40\n      mstore\n      dup1\n      swap3\n      swap2\n      swap1\n      dup2\n      dup2\n      mstore\n      0x20\n      add\n      dup3\n      dup1\n      sload\n      tag_147\n      swap1\n      tag_85\n      jump\t// in\n    tag_147:\n      dup1\n      iszero\n      tag_148\n      jumpi\n      dup1\n      0x1f\n      lt\n      tag_149\n      jumpi\n      0x0100\n      dup1\n      dup4\n      sload\n      div\n      mul\n      dup4\n      mstore\n      swap2\n      0x20\n      add\n      swap2\n      jump(tag_148)\n    tag_149:\n      dup3\n      add\n      swap2\n      swap1\n      0x00\n      mstore\n      keccak256(0x00, 0x20)\n      swap1\n    tag_150:\n      dup2\n      sload\n      dup2\n      mstore\n      swap1\n      0x01\n      add\n      swap1\n      0x20\n      add\n      dup1\n      dup4\n      gt\n      tag_150\n      jumpi\n      dup3\n      swap1\n      sub\n      0x1f\n      and\n      dup3\n      add\n      swap2\n    tag_148:\n      pop\n      pop\n      pop\n      pop\n      pop\n      swap1\n      pop\n      dup8\n      jump\t// out\n        /* \"sc/traceability_coffee.sol\":2360:2751  function addTransaksi(string memory _produkID, string memory _varietas, uint _kuantitas, address _penerima) public onlyAuthorizedRoles {... */\n    tag_48:\n        /* \"sc/traceability_coffee.sol\":1682:1683  0 */\n      0x00\n        /* \"sc/traceability_coffee.sol\":1655:1660  users */\n      0x01\n        /* \"sc/traceability_coffee.sol\":1655:1672  users[msg.sender] */\n      0x00\n        /* \"sc/traceability_coffee.sol\":1661:1671  msg.sender */\n      caller\n        /* \"sc/traceability_coffee.sol\":1655:1672  users[msg.sender] */\n      0xffffffffffffffffffffffffffffffffffffffff\n      and\n      0xffffffffffffffffffffffffffffffffffffffff\n      and\n      dup2\n      mstore\n      0x20\n      add\n      swap1\n      dup2\n      mstore\n      0x20\n      add\n      0x00\n      keccak256\n        /* \"sc/traceability_coffee.sol\":1655:1679  users[msg.sender].roleID */\n      0x02\n      add\n      sload\n        /* \"sc/traceability_coffee.sol\":1655:1683  users[msg.sender].roleID > 0 */\n      gt\n        /* \"sc/traceability_coffee.sol\":1655:1716  users[msg.sender].roleID > 0 && users[msg.sender].roleID <= 5 */\n      dup1\n      iszero\n      tag_152\n      jumpi\n      pop\n        /* \"sc/traceability_coffee.sol\":1715:1716  5 */\n      0x05\n        /* \"sc/traceability_coffee.sol\":1687:1692  users */\n      0x01\n        /* \"sc/traceability_coffee.sol\":1687:1704  users[msg.sender] */\n      0x00\n        /* \"sc/traceability_coffee.sol\":1693:1703  msg.sender */\n      caller\n        /* \"sc/traceability_coffee.sol\":1687:1704  users[msg.sender] */\n      0xffffffffffffffffffffffffffffffffffffffff\n      and\n      0xffffffffffffffffffffffffffffffffffffffff\n      and\n      dup2\n      mstore\n      0x20\n      add\n      swap1\n      dup2\n      mstore\n      0x20\n      add\n      0x00\n      keccak256\n        /* \"sc/traceability_coffee.sol\":1687:1711  users[msg.sender].roleID */\n      0x02\n      add\n      sload\n        /* \"sc/traceability_coffee.sol\":1687:1716  users[msg.sender].roleID <= 5 */\n      gt\n      iszero\n        /* \"sc/traceability_coffee.sol\":1655:1716  users[msg.sender].roleID > 0 && users[msg.sender].roleID <= 5 */\n    tag_152:\n        /* \"sc/traceability_coffee.sol\":1647:1742  require(users[msg.sender].roleID > 0 && users[msg.sender].roleID <= 5, \"Peran tidak diizinkan\") */\n      tag_153\n      jumpi\n      mload(0x40)\n      0x08c379a000000000000000000000000000000000000000000000000000000000\n      dup2\n      mstore\n      0x04\n      add\n      tag_154\n      swap1\n      tag_70\n      jump\t// in\n    tag_154:\n      mload(0x40)\n      dup1\n      swap2\n      sub\n      swap1\n      revert\n    tag_153:\n        /* \"sc/traceability_coffee.sol\":2528:2623  Transaksi(_produkID, _varietas, _kuantitas, msg.sender, _penerima, block.timestamp, \"Tertunda\") */\n      mload(0x40)\n      dup1\n      0xe0\n      add\n      0x40\n      mstore\n      dup1\n        /* \"sc/traceability_coffee.sol\":2538:2547  _produkID */\n      dup6\n        /* \"sc/traceability_coffee.sol\":2528:2623  Transaksi(_produkID, _varietas, _kuantitas, msg.sender, _penerima, block.timestamp, \"Tertunda\") */\n      dup2\n      mstore\n      0x20\n      add\n        /* \"sc/traceability_coffee.sol\":2549:2558  _varietas */\n      dup5\n        /* \"sc/traceability_coffee.sol\":2528:2623  Transaksi(_produkID, _varietas, _kuantitas, msg.sender, _penerima, block.timestamp, \"Tertunda\") */\n      dup2\n      mstore\n      0x20\n      add\n        /* \"sc/traceability_coffee.sol\":2560:2570  _kuantitas */\n      dup4\n        /* \"sc/traceability_coffee.sol\":2528:2623  Transaksi(_produkID, _varietas, _kuantitas, msg.sender, _penerima, block.timestamp, \"Tertunda\") */\n      dup2\n      mstore\n      0x20\n      add\n        /* \"sc/traceability_coffee.sol\":2572:2582  msg.sender */\n      caller\n        /* \"sc/traceability_coffee.sol\":2528:2623  Transaksi(_produkID, _varietas, _kuantitas, msg.sender, _penerima, block.timestamp, \"Tertunda\") */\n      0xffffffffffffffffffffffffffffffffffffffff\n      and\n      dup2\n      mstore\n      0x20\n      add\n        /* \"sc/traceability_coffee.sol\":2584:2593  _penerima */\n      dup3\n        /* \"sc/traceability_coffee.sol\":2528:2623  Transaksi(_produkID, _varietas, _kuantitas, msg.sender, _penerima, block.timestamp, \"Tertunda\") */\n      0xffffffffffffffffffffffffffffffffffffffff\n      and\n      dup2\n      mstore\n      0x20\n      add\n        /* \"sc/traceability_coffee.sol\":2595:2610  block.timestamp */\n      timestamp\n        /* \"sc/traceability_coffee.sol\":2528:2623  Transaksi(_produkID, _varietas, _kuantitas, msg.sender, _penerima, block.timestamp, \"Tertunda\") */\n      dup2\n      mstore\n      0x20\n      add\n      mload(0x40)\n      dup1\n      0x40\n      add\n      0x40\n      mstore\n      dup1\n      0x08\n      dup2\n      mstore\n      0x20\n      add\n      0x54657274756e6461000000000000000000000000000000000000000000000000\n      dup2\n      mstore\n      pop\n      dup2\n      mstore\n      pop\n        /* \"sc/traceability_coffee.sol\":2505:2514  transaksi */\n      0x02\n        /* \"sc/traceability_coffee.sol\":2515:2524  _produkID */\n      dup6\n        /* \"sc/traceability_coffee.sol\":2505:2525  transaksi[_produkID] */\n      mload(0x40)\n      tag_156\n      swap2\n      swap1\n      tag_77\n      jump\t// in\n    tag_156:\n      swap1\n      dup2\n      mstore\n      0x20\n      add\n      mload(0x40)\n      dup1\n      swap2\n      sub\n      swap1\n      keccak256\n        /* \"sc/traceability_coffee.sol\":2505:2623  transaksi[_produkID] = Transaksi(_produkID, _varietas, _kuantitas, msg.sender, _penerima, block.timestamp, \"Tertunda\") */\n      0x00\n      dup3\n      add\n      mload\n      dup2\n      0x00\n      add\n      swap1\n      dup2\n      tag_157\n      swap2\n      swap1\n      tag_60\n      jump\t// in\n    tag_157:\n      pop\n      0x20\n      dup3\n      add\n      mload\n      dup2\n      0x01\n      add\n      swap1\n      dup2\n      tag_158\n      swap2\n      swap1\n      tag_60\n      jump\t// in\n    tag_158:\n      pop\n      0x40\n      dup3\n      add\n      mload\n      dup2\n      0x02\n      add\n      sstore\n      0x60\n      dup3\n      add\n      mload\n      dup2\n      0x03\n      add\n      exp(0x0100, 0x00)\n      dup2\n      sload\n      dup2\n      0xffffffffffffffffffffffffffffffffffffffff\n      mul\n      not\n      and\n      swap1\n      dup4\n      0xffffffffffffffffffffffffffffffffffffffff\n      and\n      mul\n      or\n      swap1\n      sstore\n      pop\n      0x80\n      dup3\n      add\n      mload\n      dup2\n      0x04\n      add\n      exp(0x0100, 0x00)\n      dup2\n      sload\n      dup2\n      0xffffffffffffffffffffffffffffffffffffffff\n      mul\n      not\n      and\n      swap1\n      dup4\n      0xffffffffffffffffffffffffffffffffffffffff\n      and\n      mul\n      or\n      swap1\n      sstore\n      pop\n      0xa0\n      dup3\n      add\n      mload\n      dup2\n      0x05\n      add\n      sstore\n      0xc0\n      dup3\n      add\n      mload\n      dup2\n      0x06\n      add\n      swap1\n      dup2\n      tag_159\n      swap2\n      swap1\n      tag_60\n      jump\t// in\n    tag_159:\n      pop\n      swap1\n      pop\n      pop\n        /* \"sc/traceability_coffee.sol\":2638:2744  TransaksiDitambahkan(_produkID, _varietas, _kuantitas, msg.sender, _penerima, block.timestamp, \"Tertunda\") */\n      0x4c1398facb24a2c5512d4e158a39aa72c8d583ad08d5cdbdb54322b5ac80ad9b\n        /* \"sc/traceability_coffee.sol\":2659:2668  _produkID */\n      dup5\n        /* \"sc/traceability_coffee.sol\":2670:2679  _varietas */\n      dup5\n        /* \"sc/traceability_coffee.sol\":2681:2691  _kuantitas */\n      dup5\n        /* \"sc/traceability_coffee.sol\":2693:2703  msg.sender */\n      caller\n        /* \"sc/traceability_coffee.sol\":2705:2714  _penerima */\n      dup6\n        /* \"sc/traceability_coffee.sol\":2716:2731  block.timestamp */\n      timestamp\n        /* \"sc/traceability_coffee.sol\":2638:2744  TransaksiDitambahkan(_produkID, _varietas, _kuantitas, msg.sender, _penerima, block.timestamp, \"Tertunda\") */\n      mload(0x40)\n      tag_160\n      swap7\n      swap6\n      swap5\n      swap4\n      swap3\n      swap2\n      swap1\n      tag_161\n      jump\t// in\n    tag_160:\n      mload(0x40)\n      dup1\n      swap2\n      sub\n      swap1\n      log1\n        /* \"sc/traceability_coffee.sol\":2360:2751  function addTransaksi(string memory _produkID, string memory _varietas, uint _kuantitas, address _penerima) public onlyAuthorizedRoles {... */\n      pop\n      pop\n      pop\n      pop\n      jump\t// out\n        /* \"sc/traceability_coffee.sol\":2757:2963  function konfirmasiTransaksi(string memory _produkID) public onlyPenerima(_produkID) {... */\n    tag_51:\n        /* \"sc/traceability_coffee.sol\":2831:2840  _produkID */\n      dup1\n        /* \"sc/traceability_coffee.sol\":1864:1874  msg.sender */\n      caller\n        /* \"sc/traceability_coffee.sol\":1831:1874  transaksi[_produkID].penerima == msg.sender */\n      0xffffffffffffffffffffffffffffffffffffffff\n      and\n        /* \"sc/traceability_coffee.sol\":1831:1840  transaksi */\n      0x02\n        /* \"sc/traceability_coffee.sol\":1841:1850  _produkID */\n      dup3\n        /* \"sc/traceability_coffee.sol\":1831:1851  transaksi[_produkID] */\n      mload(0x40)\n      tag_163\n      swap2\n      swap1\n      tag_77\n      jump\t// in\n    tag_163:\n      swap1\n      dup2\n      mstore\n      0x20\n      add\n      mload(0x40)\n      dup1\n      swap2\n      sub\n      swap1\n      keccak256\n        /* \"sc/traceability_coffee.sol\":1831:1860  transaksi[_produkID].penerima */\n      0x04\n      add\n      0x00\n      swap1\n      sload\n      swap1\n      0x0100\n      exp\n      swap1\n      div\n      0xffffffffffffffffffffffffffffffffffffffff\n      and\n        /* \"sc/traceability_coffee.sol\":1831:1874  transaksi[_produkID].penerima == msg.sender */\n      0xffffffffffffffffffffffffffffffffffffffff\n      and\n      eq\n        /* \"sc/traceability_coffee.sol\":1823:1931  require(transaksi[_produkID].penerima == msg.sender, \"Hanya penerima yang bisa mengonfirmasi transaksi ini\") */\n      tag_164\n      jumpi\n      mload(0x40)\n      0x08c379a000000000000000000000000000000000000000000000000000000000\n      dup2\n      mstore\n      0x04\n      add\n      tag_165\n      swap1\n      tag_166\n      jump\t// in\n    tag_165:\n      mload(0x40)\n      dup1\n      swap2\n      sub\n      swap1\n      revert\n    tag_164:\n        /* \"sc/traceability_coffee.sol\":2852:2897  transaksi[_produkID].status = \"Terkonfirmasi\" */\n      mload(0x40)\n      dup1\n      0x40\n      add\n      0x40\n      mstore\n      dup1\n      0x0d\n      dup2\n      mstore\n      0x20\n      add\n      0x5465726b6f6e6669726d61736900000000000000000000000000000000000000\n      dup2\n      mstore\n      pop\n        /* \"sc/traceability_coffee.sol\":2852:2861  transaksi */\n      0x02\n        /* \"sc/traceability_coffee.sol\":2862:2871  _produkID */\n      dup4\n        /* \"sc/traceability_coffee.sol\":2852:2872  transaksi[_produkID] */\n      mload(0x40)\n      tag_168\n      swap2\n      swap1\n      tag_77\n      jump\t// in\n    tag_168:\n      swap1\n      dup2\n      mstore\n      0x20\n      add\n      mload(0x40)\n      dup1\n      swap2\n      sub\n      swap1\n      keccak256\n        /* \"sc/traceability_coffee.sol\":2852:2879  transaksi[_produkID].status */\n      0x06\n      add\n        /* \"sc/traceability_coffee.sol\":2852:2897  transaksi[_produkID].status = \"Terkonfirmasi\" */\n      swap1\n      dup2\n      tag_169\n      swap2\n      swap1\n      tag_60\n      jump\t// in\n    tag_169:\n      pop\n        /* \"sc/traceability_coffee.sol\":2912:2956  TransaksiDikonfirmasi(_produkID, msg.sender) */\n      0x68c681a1634fe788e939749303856066fa25a038a23654e0d77127e5d29f9e78\n        /* \"sc/traceability_coffee.sol\":2934:2943  _produkID */\n      dup3\n        /* \"sc/traceability_coffee.sol\":2945:2955  msg.sender */\n      caller\n        /* \"sc/traceability_coffee.sol\":2912:2956  TransaksiDikonfirmasi(_produkID, msg.sender) */\n      mload(0x40)\n      tag_170\n      swap3\n      swap2\n      swap1\n      tag_171\n      jump\t// in\n    tag_170:\n      mload(0x40)\n      dup1\n      swap2\n      sub\n      swap1\n      log1\n        /* \"sc/traceability_coffee.sol\":2757:2963  function konfirmasiTransaksi(string memory _produkID) public onlyPenerima(_produkID) {... */\n      pop\n      pop\n      jump\t// out\n        /* \"@openzeppelin/contracts/access/Ownable.sol\":2543:2758  function transferOwnership(address newOwner) public virtual onlyOwner {... */\n    tag_54:\n        /* \"@openzeppelin/contracts/access/Ownable.sol\":1531:1544  _checkOwner() */\n      tag_173\n        /* \"@openzeppelin/contracts/access/Ownable.sol\":1531:1542  _checkOwner */\n      tag_57\n        /* \"@openzeppelin/contracts/access/Ownable.sol\":1531:1544  _checkOwner() */\n      jump\t// in\n    tag_173:\n        /* \"@openzeppelin/contracts/access/Ownable.sol\":2647:2648  0 */\n      0x00\n        /* \"@openzeppelin/contracts/access/Ownable.sol\":2627:2649  newOwner == address(0) */\n      0xffffffffffffffffffffffffffffffffffffffff\n      and\n        /* \"@openzeppelin/contracts/access/Ownable.sol\":2627:2635  newOwner */\n      dup2\n        /* \"@openzeppelin/contracts/access/Ownable.sol\":2627:2649  newOwner == address(0) */\n      0xffffffffffffffffffffffffffffffffffffffff\n      and\n      sub\n        /* \"@openzeppelin/contracts/access/Ownable.sol\":2623:2714  if (newOwner == address(0)) {... */\n      tag_175\n      jumpi\n        /* \"@openzeppelin/contracts/access/Ownable.sol\":2700:2701  0 */\n      0x00\n        /* \"@openzeppelin/contracts/access/Ownable.sol\":2672:2703  OwnableInvalidOwner(address(0)) */\n      mload(0x40)\n      0x1e4fbdf700000000000000000000000000000000000000000000000000000000\n      dup2\n      mstore\n      0x04\n      add\n      tag_176\n      swap2\n      swap1\n      tag_33\n      jump\t// in\n    tag_176:\n      mload(0x40)\n      dup1\n      swap2\n      sub\n      swap1\n      revert\n        /* \"@openzeppelin/contracts/access/Ownable.sol\":2623:2714  if (newOwner == address(0)) {... */\n    tag_175:\n        /* \"@openzeppelin/contracts/access/Ownable.sol\":2723:2751  _transferOwnership(newOwner) */\n      tag_177\n        /* \"@openzeppelin/contracts/access/Ownable.sol\":2742:2750  newOwner */\n      dup2\n        /* \"@openzeppelin/contracts/access/Ownable.sol\":2723:2741  _transferOwnership */\n      tag_104\n        /* \"@openzeppelin/contracts/access/Ownable.sol\":2723:2751  _transferOwnership(newOwner) */\n      jump\t// in\n    tag_177:\n        /* \"@openzeppelin/contracts/access/Ownable.sol\":2543:2758  function transferOwnership(address newOwner) public virtual onlyOwner {... */\n      pop\n      jump\t// out\n        /* \"@openzeppelin/contracts/access/Ownable.sol\":1796:1958  function _checkOwner() internal view virtual {... */\n    tag_57:\n        /* \"@openzeppelin/contracts/access/Ownable.sol\":1866:1878  _msgSender() */\n      tag_179\n        /* \"@openzeppelin/contracts/access/Ownable.sol\":1866:1876  _msgSender */\n      tag_180\n        /* \"@openzeppelin/contracts/access/Ownable.sol\":1866:1878  _msgSender() */\n      jump\t// in\n    tag_179:\n        /* \"@openzeppelin/contracts/access/Ownable.sol\":1855:1878  owner() != _msgSender() */\n      0xffffffffffffffffffffffffffffffffffffffff\n      and\n        /* \"@openzeppelin/contracts/access/Ownable.sol\":1855:1862  owner() */\n      tag_181\n        /* \"@openzeppelin/contracts/access/Ownable.sol\":1855:1860  owner */\n      tag_31\n        /* \"@openzeppelin/contracts/access/Ownable.sol\":1855:1862  owner() */\n      jump\t// in\n    tag_181:\n        /* \"@openzeppelin/contracts/access/Ownable.sol\":1855:1878  owner() != _msgSender() */\n      0xffffffffffffffffffffffffffffffffffffffff\n      and\n      eq\n        /* \"@openzeppelin/contracts/access/Ownable.sol\":1851:1952  if (owner() != _msgSender()) {... */\n      tag_182\n      jumpi\n        /* \"@openzeppelin/contracts/access/Ownable.sol\":1928:1940  _msgSender() */\n      tag_183\n        /* \"@openzeppelin/contracts/access/Ownable.sol\":1928:1938  _msgSender */\n      tag_180\n        /* \"@openzeppelin/contracts/access/Ownable.sol\":1928:1940  _msgSender() */\n      jump\t// in\n    tag_183:\n        /* \"@openzeppelin/contracts/access/Ownable.sol\":1901:1941  OwnableUnauthorizedAccount(_msgSender()) */\n      mload(0x40)\n      0x118cdaa700000000000000000000000000000000000000000000000000000000\n      dup2\n      mstore\n      0x04\n      add\n      tag_184\n      swap2\n      swap1\n      tag_33\n      jump\t// in\n    tag_184:\n      mload(0x40)\n      dup1\n      swap2\n      sub\n      swap1\n      revert\n        /* \"@openzeppelin/contracts/access/Ownable.sol\":1851:1952  if (owner() != _msgSender()) {... */\n    tag_182:\n        /* \"@openzeppelin/contracts/access/Ownable.sol\":1796:1958  function _checkOwner() internal view virtual {... */\n      jump\t// out\n        /* \"sc/traceability_coffee.sol\":3683:4224  function uint2str(uint _i) internal pure returns (string memory) {... */\n    tag_73:\n        /* \"sc/traceability_coffee.sol\":3733:3746  string memory */\n      0x60\n        /* \"sc/traceability_coffee.sol\":3768:3769  0 */\n      0x00\n        /* \"sc/traceability_coffee.sol\":3762:3764  _i */\n      dup3\n        /* \"sc/traceability_coffee.sol\":3762:3769  _i == 0 */\n      sub\n        /* \"sc/traceability_coffee.sol\":3758:3806  if (_i == 0) {... */\n      tag_186\n      jumpi\n        /* \"sc/traceability_coffee.sol\":3785:3795  return \"0\" */\n      mload(0x40)\n      dup1\n      0x40\n      add\n      0x40\n      mstore\n      dup1\n      0x01\n      dup2\n      mstore\n      0x20\n      add\n      0x3000000000000000000000000000000000000000000000000000000000000000\n      dup2\n      mstore\n      pop\n      swap1\n      pop\n      jump(tag_185)\n        /* \"sc/traceability_coffee.sol\":3758:3806  if (_i == 0) {... */\n    tag_186:\n        /* \"sc/traceability_coffee.sol\":3815:3821  uint j */\n      0x00\n        /* \"sc/traceability_coffee.sol\":3824:3826  _i */\n      dup3\n        /* \"sc/traceability_coffee.sol\":3815:3826  uint j = _i */\n      swap1\n      pop\n        /* \"sc/traceability_coffee.sol\":3836:3844  uint len */\n      0x00\n        /* \"sc/traceability_coffee.sol\":3854:3920  while (j != 0) {... */\n    tag_187:\n        /* \"sc/traceability_coffee.sol\":3866:3867  0 */\n      0x00\n        /* \"sc/traceability_coffee.sol\":3861:3862  j */\n      dup3\n        /* \"sc/traceability_coffee.sol\":3861:3867  j != 0 */\n      eq\n        /* \"sc/traceability_coffee.sol\":3854:3920  while (j != 0) {... */\n      tag_188\n      jumpi\n        /* \"sc/traceability_coffee.sol\":3883:3888  len++ */\n      dup1\n      dup1\n      tag_189\n      swap1\n      tag_190\n      jump\t// in\n    tag_189:\n      swap2\n      pop\n      pop\n        /* \"sc/traceability_coffee.sol\":3907:3909  10 */\n      0x0a\n        /* \"sc/traceability_coffee.sol\":3902:3909  j /= 10 */\n      dup3\n      tag_191\n      swap2\n      swap1\n      tag_192\n      jump\t// in\n    tag_191:\n      swap2\n      pop\n        /* \"sc/traceability_coffee.sol\":3854:3920  while (j != 0) {... */\n      jump(tag_187)\n    tag_188:\n        /* \"sc/traceability_coffee.sol\":3929:3946  bytes memory bstr */\n      0x00\n        /* \"sc/traceability_coffee.sol\":3959:3962  len */\n      dup2\n        /* \"sc/traceability_coffee.sol\":3949:3963  new bytes(len) */\n      0xffffffffffffffff\n      dup2\n      gt\n      iszero\n      tag_193\n      jumpi\n      tag_194\n      tag_195\n      jump\t// in\n    tag_194:\n    tag_193:\n      mload(0x40)\n      swap1\n      dup1\n      dup3\n      mstore\n      dup1\n      0x1f\n      add\n      not(0x1f)\n      and\n      0x20\n      add\n      dup3\n      add\n      0x40\n      mstore\n      dup1\n      iszero\n      tag_196\n      jumpi\n      dup2\n      0x20\n      add\n      0x01\n      dup3\n      mul\n      dup1\n      calldatasize\n      dup4\n      calldatacopy\n      dup1\n      dup3\n      add\n      swap2\n      pop\n      pop\n      swap1\n      pop\n    tag_196:\n      pop\n        /* \"sc/traceability_coffee.sol\":3929:3963  bytes memory bstr = new bytes(len) */\n      swap1\n      pop\n        /* \"sc/traceability_coffee.sol\":3973:3979  uint k */\n      0x00\n        /* \"sc/traceability_coffee.sol\":3982:3985  len */\n      dup3\n        /* \"sc/traceability_coffee.sol\":3973:3985  uint k = len */\n      swap1\n      pop\n        /* \"sc/traceability_coffee.sol\":3995:4189  while (_i != 0) {... */\n    tag_197:\n        /* \"sc/traceability_coffee.sol\":4008:4009  0 */\n      0x00\n        /* \"sc/traceability_coffee.sol\":4002:4004  _i */\n      dup7\n        /* \"sc/traceability_coffee.sol\":4002:4009  _i != 0 */\n      eq\n        /* \"sc/traceability_coffee.sol\":3995:4189  while (_i != 0) {... */\n      tag_198\n      jumpi\n        /* \"sc/traceability_coffee.sol\":4033:4034  1 */\n      0x01\n        /* \"sc/traceability_coffee.sol\":4029:4030  k */\n      dup2\n        /* \"sc/traceability_coffee.sol\":4029:4034  k - 1 */\n      tag_199\n      swap2\n      swap1\n      tag_200\n      jump\t// in\n    tag_199:\n        /* \"sc/traceability_coffee.sol\":4025:4034  k = k - 1 */\n      swap1\n      pop\n        /* \"sc/traceability_coffee.sol\":4048:4058  uint8 temp */\n      0x00\n        /* \"sc/traceability_coffee.sol\":4088:4090  10 */\n      0x0a\n        /* \"sc/traceability_coffee.sol\":4083:4085  10 */\n      dup1\n        /* \"sc/traceability_coffee.sol\":4078:4080  _i */\n      dup9\n        /* \"sc/traceability_coffee.sol\":4078:4085  _i / 10 */\n      tag_201\n      swap2\n      swap1\n      tag_192\n      jump\t// in\n    tag_201:\n        /* \"sc/traceability_coffee.sol\":4078:4090  _i / 10 * 10 */\n      tag_202\n      swap2\n      swap1\n      tag_203\n      jump\t// in\n    tag_202:\n        /* \"sc/traceability_coffee.sol\":4073:4075  _i */\n      dup8\n        /* \"sc/traceability_coffee.sol\":4073:4090  _i - _i / 10 * 10 */\n      tag_204\n      swap2\n      swap1\n      tag_200\n      jump\t// in\n    tag_204:\n        /* \"sc/traceability_coffee.sol\":4062:4064  48 */\n      0x30\n        /* \"sc/traceability_coffee.sol\":4062:4091  48 + uint8(_i - _i / 10 * 10) */\n      tag_205\n      swap2\n      swap1\n      tag_206\n      jump\t// in\n    tag_205:\n        /* \"sc/traceability_coffee.sol\":4048:4092  uint8 temp = (48 + uint8(_i - _i / 10 * 10)) */\n      swap1\n      pop\n        /* \"sc/traceability_coffee.sol\":4106:4115  bytes1 b1 */\n      0x00\n        /* \"sc/traceability_coffee.sol\":4125:4129  temp */\n      dup2\n        /* \"sc/traceability_coffee.sol\":4118:4130  bytes1(temp) */\n      0xf8\n      shl\n        /* \"sc/traceability_coffee.sol\":4106:4130  bytes1 b1 = bytes1(temp) */\n      swap1\n      pop\n        /* \"sc/traceability_coffee.sol\":4154:4156  b1 */\n      dup1\n        /* \"sc/traceability_coffee.sol\":4144:4148  bstr */\n      dup5\n        /* \"sc/traceability_coffee.sol\":4149:4150  k */\n      dup5\n        /* \"sc/traceability_coffee.sol\":4144:4151  bstr[k] */\n      dup2\n      mload\n      dup2\n      lt\n      tag_207\n      jumpi\n      tag_208\n      tag_209\n      jump\t// in\n    tag_208:\n    tag_207:\n      0x20\n      add\n      add\n        /* \"sc/traceability_coffee.sol\":4144:4156  bstr[k] = b1 */\n      swap1\n      not(0xffffffffffffffffffffffffffffffffffffffffffffffffffffffffffffff)\n      and\n      swap1\n      dup2\n      0x00\n      byte\n      swap1\n      mstore8\n      pop\n        /* \"sc/traceability_coffee.sol\":4176:4178  10 */\n      0x0a\n        /* \"sc/traceability_coffee.sol\":4170:4178  _i /= 10 */\n      dup9\n      tag_210\n      swap2\n      swap1\n      tag_192\n      jump\t// in\n    tag_210:\n      swap8\n      pop\n        /* \"sc/traceability_coffee.sol\":4011:4189  {... */\n      pop\n      pop\n        /* \"sc/traceability_coffee.sol\":3995:4189  while (_i != 0) {... */\n      jump(tag_197)\n    tag_198:\n        /* \"sc/traceability_coffee.sol\":4212:4216  bstr */\n      dup2\n        /* \"sc/traceability_coffee.sol\":4198:4217  return string(bstr) */\n      swap5\n      pop\n      pop\n      pop\n      pop\n      pop\n        /* \"sc/traceability_coffee.sol\":3683:4224  function uint2str(uint _i) internal pure returns (string memory) {... */\n    tag_185:\n      swap2\n      swap1\n      pop\n      jump\t// out\n        /* \"@openzeppelin/contracts/access/Ownable.sol\":2912:3099  function _transferOwnership(address newOwner) internal virtual {... */\n    tag_104:\n        /* \"@openzeppelin/contracts/access/Ownable.sol\":2985:3001  address oldOwner */\n      0x00\n        /* \"@openzeppelin/contracts/access/Ownable.sol\":3004:3010  _owner */\n      dup1\n      0x00\n      swap1\n      sload\n      swap1\n      0x0100\n      exp\n      swap1\n      div\n      0xffffffffffffffffffffffffffffffffffffffff\n      and\n        /* \"@openzeppelin/contracts/access/Ownable.sol\":2985:3010  address oldOwner = _owner */\n      swap1\n      pop\n        /* \"@openzeppelin/contracts/access/Ownable.sol\":3029:3037  newOwner */\n      dup2\n        /* \"@openzeppelin/contracts/access/Ownable.sol\":3020:3026  _owner */\n      0x00\n      dup1\n        /* \"@openzeppelin/contracts/access/Ownable.sol\":3020:3037  _owner = newOwner */\n      0x0100\n      exp\n      dup2\n      sload\n      dup2\n      0xffffffffffffffffffffffffffffffffffffffff\n      mul\n      not\n      and\n      swap1\n      dup4\n      0xffffffffffffffffffffffffffffffffffffffff\n      and\n      mul\n      or\n      swap1\n      sstore\n      pop\n        /* \"@openzeppelin/contracts/access/Ownable.sol\":3083:3091  newOwner */\n      dup2\n        /* \"@openzeppelin/contracts/access/Ownable.sol\":3052:3092  OwnershipTransferred(oldOwner, newOwner) */\n      0xffffffffffffffffffffffffffffffffffffffff\n      and\n        /* \"@openzeppelin/contracts/access/Ownable.sol\":3073:3081  oldOwner */\n      dup2\n        /* \"@openzeppelin/contracts/access/Ownable.sol\":3052:3092  OwnershipTransferred(oldOwner, newOwner) */\n      0xffffffffffffffffffffffffffffffffffffffff\n      and\n      0x8be0079c531659141344cd1fd0a4f28419497f9722a3daafe3b4186f6b6457e0\n      mload(0x40)\n      mload(0x40)\n      dup1\n      swap2\n      sub\n      swap1\n      log3\n        /* \"@openzeppelin/contracts/access/Ownable.sol\":2975:3099  {... */\n      pop\n        /* \"@openzeppelin/contracts/access/Ownable.sol\":2912:3099  function _transferOwnership(address newOwner) internal virtual {... */\n      pop\n      jump\t// out\n        /* \"@openzeppelin/contracts/utils/Context.sol\":656:752  function _msgSender() internal view virtual returns (address) {... */\n    tag_180:\n        /* \"@openzeppelin/contracts/utils/Context.sol\":709:716  address */\n      0x00\n        /* \"@openzeppelin/contracts/utils/Context.sol\":735:745  msg.sender */\n      caller\n        /* \"@openzeppelin/contracts/utils/Context.sol\":728:745  return msg.sender */\n      swap1\n      pop\n        /* \"@openzeppelin/contracts/utils/Context.sol\":656:752  function _msgSender() internal view virtual returns (address) {... */\n      swap1\n      jump\t// out\n        /* \"#utility.yul\":7:82   */\n    tag_213:\n        /* \"#utility.yul\":40:46   */\n      0x00\n        /* \"#utility.yul\":73:75   */\n      0x40\n        /* \"#utility.yul\":67:76   */\n      mload\n        /* \"#utility.yul\":57:76   */\n      swap1\n      pop\n        /* \"#utility.yul\":7:82   */\n      swap1\n      jump\t// out\n        /* \"#utility.yul\":88:205   */\n    tag_214:\n        /* \"#utility.yul\":197:198   */\n      0x00\n        /* \"#utility.yul\":194:195   */\n      dup1\n        /* \"#utility.yul\":187:199   */\n      revert\n        /* \"#utility.yul\":211:328   */\n    tag_215:\n        /* \"#utility.yul\":320:321   */\n      0x00\n        /* \"#utility.yul\":317:318   */\n      dup1\n        /* \"#utility.yul\":310:322   */\n      revert\n        /* \"#utility.yul\":334:460   */\n    tag_216:\n        /* \"#utility.yul\":371:378   */\n      0x00\n        /* \"#utility.yul\":411:453   */\n      0xffffffffffffffffffffffffffffffffffffffff\n        /* \"#utility.yul\":404:409   */\n      dup3\n        /* \"#utility.yul\":400:454   */\n      and\n        /* \"#utility.yul\":389:454   */\n      swap1\n      pop\n        /* \"#utility.yul\":334:460   */\n      swap2\n      swap1\n      pop\n      jump\t// out\n        /* \"#utility.yul\":466:562   */\n    tag_217:\n        /* \"#utility.yul\":503:510   */\n      0x00\n        /* \"#utility.yul\":532:556   */\n      tag_271\n        /* \"#utility.yul\":550:555   */\n      dup3\n        /* \"#utility.yul\":532:556   */\n      tag_216\n      jump\t// in\n    tag_271:\n        /* \"#utility.yul\":521:556   */\n      swap1\n      pop\n        /* \"#utility.yul\":466:562   */\n      swap2\n      swap1\n      pop\n      jump\t// out\n        /* \"#utility.yul\":568:690   */\n    tag_218:\n        /* \"#utility.yul\":641:665   */\n      tag_273\n        /* \"#utility.yul\":659:664   */\n      dup2\n        /* \"#utility.yul\":641:665   */\n      tag_217\n      jump\t// in\n    tag_273:\n        /* \"#utility.yul\":634:639   */\n      dup2\n        /* \"#utility.yul\":631:666   */\n      eq\n        /* \"#utility.yul\":621:684   */\n      tag_274\n      jumpi\n        /* \"#utility.yul\":680:681   */\n      0x00\n        /* \"#utility.yul\":677:678   */\n      dup1\n        /* \"#utility.yul\":670:682   */\n      revert\n        /* \"#utility.yul\":621:684   */\n    tag_274:\n        /* \"#utility.yul\":568:690   */\n      pop\n      jump\t// out\n        /* \"#utility.yul\":696:835   */\n    tag_219:\n        /* \"#utility.yul\":742:747   */\n      0x00\n        /* \"#utility.yul\":780:786   */\n      dup2\n        /* \"#utility.yul\":767:787   */\n      calldataload\n        /* \"#utility.yul\":758:787   */\n      swap1\n      pop\n        /* \"#utility.yul\":796:829   */\n      tag_276\n        /* \"#utility.yul\":823:828   */\n      dup2\n        /* \"#utility.yul\":796:829   */\n      tag_218\n      jump\t// in\n    tag_276:\n        /* \"#utility.yul\":696:835   */\n      swap3\n      swap2\n      pop\n      pop\n      jump\t// out\n        /* \"#utility.yul\":841:958   */\n    tag_220:\n        /* \"#utility.yul\":950:951   */\n      0x00\n        /* \"#utility.yul\":947:948   */\n      dup1\n        /* \"#utility.yul\":940:952   */\n      revert\n        /* \"#utility.yul\":964:1081   */\n    tag_221:\n        /* \"#utility.yul\":1073:1074   */\n      0x00\n        /* \"#utility.yul\":1070:1071   */\n      dup1\n        /* \"#utility.yul\":1063:1075   */\n      revert\n        /* \"#utility.yul\":1087:1189   */\n    tag_222:\n        /* \"#utility.yul\":1128:1134   */\n      0x00\n        /* \"#utility.yul\":1179:1181   */\n      0x1f\n        /* \"#utility.yul\":1175:1182   */\n      not\n        /* \"#utility.yul\":1170:1172   */\n      0x1f\n        /* \"#utility.yul\":1163:1168   */\n      dup4\n        /* \"#utility.yul\":1159:1173   */\n      add\n        /* \"#utility.yul\":1155:1183   */\n      and\n        /* \"#utility.yul\":1145:1183   */\n      swap1\n      pop\n        /* \"#utility.yul\":1087:1189   */\n      swap2\n      swap1\n      pop\n      jump\t// out\n        /* \"#utility.yul\":1195:1375   */\n    tag_195:\n        /* \"#utility.yul\":1243:1320   */\n      0x4e487b7100000000000000000000000000000000000000000000000000000000\n        /* \"#utility.yul\":1240:1241   */\n      0x00\n        /* \"#utility.yul\":1233:1321   */\n      mstore\n        /* \"#utility.yul\":1340:1344   */\n      0x41\n        /* \"#utility.yul\":1337:1338   */\n      0x04\n        /* \"#utility.yul\":1330:1345   */\n      mstore\n        /* \"#utility.yul\":1364:1368   */\n      0x24\n        /* \"#utility.yul\":1361:1362   */\n      0x00\n        /* \"#utility.yul\":1354:1369   */\n      revert\n        /* \"#utility.yul\":1381:1662   */\n    tag_223:\n        /* \"#utility.yul\":1464:1491   */\n      tag_282\n        /* \"#utility.yul\":1486:1490   */\n      dup3\n        /* \"#utility.yul\":1464:1491   */\n      tag_222\n      jump\t// in\n    tag_282:\n        /* \"#utility.yul\":1456:1462   */\n      dup2\n        /* \"#utility.yul\":1452:1492   */\n      add\n        /* \"#utility.yul\":1594:1600   */\n      dup2\n        /* \"#utility.yul\":1582:1592   */\n      dup2\n        /* \"#utility.yul\":1579:1601   */\n      lt\n        /* \"#utility.yul\":1558:1576   */\n      0xffffffffffffffff\n        /* \"#utility.yul\":1546:1556   */\n      dup3\n        /* \"#utility.yul\":1543:1577   */\n      gt\n        /* \"#utility.yul\":1540:1602   */\n      or\n        /* \"#utility.yul\":1537:1625   */\n      iszero\n      tag_283\n      jumpi\n        /* \"#utility.yul\":1605:1623   */\n      tag_284\n      tag_195\n      jump\t// in\n    tag_284:\n        /* \"#utility.yul\":1537:1625   */\n    tag_283:\n        /* \"#utility.yul\":1645:1655   */\n      dup1\n        /* \"#utility.yul\":1641:1643   */\n      0x40\n        /* \"#utility.yul\":1634:1656   */\n      mstore\n        /* \"#utility.yul\":1424:1662   */\n      pop\n        /* \"#utility.yul\":1381:1662   */\n      pop\n      pop\n      jump\t// out\n        /* \"#utility.yul\":1668:1797   */\n    tag_224:\n        /* \"#utility.yul\":1702:1708   */\n      0x00\n        /* \"#utility.yul\":1729:1749   */\n      tag_286\n      tag_213\n      jump\t// in\n    tag_286:\n        /* \"#utility.yul\":1719:1749   */\n      swap1\n      pop\n        /* \"#utility.yul\":1758:1791   */\n      tag_287\n        /* \"#utility.yul\":1786:1790   */\n      dup3\n        /* \"#utility.yul\":1778:1784   */\n      dup3\n        /* \"#utility.yul\":1758:1791   */\n      tag_223\n      jump\t// in\n    tag_287:\n        /* \"#utility.yul\":1668:1797   */\n      swap2\n      swap1\n      pop\n      jump\t// out\n        /* \"#utility.yul\":1803:2111   */\n    tag_225:\n        /* \"#utility.yul\":1865:1869   */\n      0x00\n        /* \"#utility.yul\":1955:1973   */\n      0xffffffffffffffff\n        /* \"#utility.yul\":1947:1953   */\n      dup3\n        /* \"#utility.yul\":1944:1974   */\n      gt\n        /* \"#utility.yul\":1941:1997   */\n      iszero\n      tag_289\n      jumpi\n        /* \"#utility.yul\":1977:1995   */\n      tag_290\n      tag_195\n      jump\t// in\n    tag_290:\n        /* \"#utility.yul\":1941:1997   */\n    tag_289:\n        /* \"#utility.yul\":2015:2044   */\n      tag_291\n        /* \"#utility.yul\":2037:2043   */\n      dup3\n        /* \"#utility.yul\":2015:2044   */\n      tag_222\n      jump\t// in\n    tag_291:\n        /* \"#utility.yul\":2007:2044   */\n      swap1\n      pop\n        /* \"#utility.yul\":2099:2103   */\n      0x20\n        /* \"#utility.yul\":2093:2097   */\n      dup2\n        /* \"#utility.yul\":2089:2104   */\n      add\n        /* \"#utility.yul\":2081:2104   */\n      swap1\n      pop\n        /* \"#utility.yul\":1803:2111   */\n      swap2\n      swap1\n      pop\n      jump\t// out\n        /* \"#utility.yul\":2117:2265   */\n    tag_226:\n        /* \"#utility.yul\":2215:2221   */\n      dup3\n        /* \"#utility.yul\":2210:2213   */\n      dup2\n        /* \"#utility.yul\":2205:2208   */\n      dup4\n        /* \"#utility.yul\":2192:2222   */\n      calldatacopy\n        /* \"#utility.yul\":2256:2257   */\n      0x00\n        /* \"#utility.yul\":2247:2253   */\n      dup4\n        /* \"#utility.yul\":2242:2245   */\n      dup4\n        /* \"#utility.yul\":2238:2254   */\n      add\n        /* \"#utility.yul\":2231:2258   */\n      mstore\n        /* \"#utility.yul\":2117:2265   */\n      pop\n      pop\n      pop\n      jump\t// out\n        /* \"#utility.yul\":2271:2696   */\n    tag_227:\n        /* \"#utility.yul\":2349:2354   */\n      0x00\n        /* \"#utility.yul\":2374:2440   */\n      tag_294\n        /* \"#utility.yul\":2390:2439   */\n      tag_295\n        /* \"#utility.yul\":2432:2438   */\n      dup5\n        /* \"#utility.yul\":2390:2439   */\n      tag_225\n      jump\t// in\n    tag_295:\n        /* \"#utility.yul\":2374:2440   */\n      tag_224\n      jump\t// in\n    tag_294:\n        /* \"#utility.yul\":2365:2440   */\n      swap1\n      pop\n        /* \"#utility.yul\":2463:2469   */\n      dup3\n        /* \"#utility.yul\":2456:2461   */\n      dup2\n        /* \"#utility.yul\":2449:2470   */\n      mstore\n        /* \"#utility.yul\":2501:2505   */\n      0x20\n        /* \"#utility.yul\":2494:2499   */\n      dup2\n        /* \"#utility.yul\":2490:2506   */\n      add\n        /* \"#utility.yul\":2539:2542   */\n      dup5\n        /* \"#utility.yul\":2530:2536   */\n      dup5\n        /* \"#utility.yul\":2525:2528   */\n      dup5\n        /* \"#utility.yul\":2521:2537   */\n      add\n        /* \"#utility.yul\":2518:2543   */\n      gt\n        /* \"#utility.yul\":2515:2627   */\n      iszero\n      tag_296\n      jumpi\n        /* \"#utility.yul\":2546:2625   */\n      tag_297\n      tag_221\n      jump\t// in\n    tag_297:\n        /* \"#utility.yul\":2515:2627   */\n    tag_296:\n        /* \"#utility.yul\":2636:2690   */\n      tag_298\n        /* \"#utility.yul\":2683:2689   */\n      dup5\n        /* \"#utility.yul\":2678:2681   */\n      dup3\n        /* \"#utility.yul\":2673:2676   */\n      dup6\n        /* \"#utility.yul\":2636:2690   */\n      tag_226\n      jump\t// in\n    tag_298:\n        /* \"#utility.yul\":2355:2696   */\n      pop\n        /* \"#utility.yul\":2271:2696   */\n      swap4\n      swap3\n      pop\n      pop\n      pop\n      jump\t// out\n        /* \"#utility.yul\":2716:3056   */\n    tag_228:\n        /* \"#utility.yul\":2772:2777   */\n      0x00\n        /* \"#utility.yul\":2821:2824   */\n      dup3\n        /* \"#utility.yul\":2814:2818   */\n      0x1f\n        /* \"#utility.yul\":2806:2812   */\n      dup4\n        /* \"#utility.yul\":2802:2819   */\n      add\n        /* \"#utility.yul\":2798:2825   */\n      slt\n        /* \"#utility.yul\":2788:2910   */\n      tag_300\n      jumpi\n        /* \"#utility.yul\":2829:2908   */\n      tag_301\n      tag_220\n      jump\t// in\n    tag_301:\n        /* \"#utility.yul\":2788:2910   */\n    tag_300:\n        /* \"#utility.yul\":2946:2952   */\n      dup2\n        /* \"#utility.yul\":2933:2953   */\n      calldataload\n        /* \"#utility.yul\":2971:3050   */\n      tag_302\n        /* \"#utility.yul\":3046:3049   */\n      dup5\n        /* \"#utility.yul\":3038:3044   */\n      dup3\n        /* \"#utility.yul\":3031:3035   */\n      0x20\n        /* \"#utility.yul\":3023:3029   */\n      dup7\n        /* \"#utility.yul\":3019:3036   */\n      add\n        /* \"#utility.yul\":2971:3050   */\n      tag_227\n      jump\t// in\n    tag_302:\n        /* \"#utility.yul\":2962:3050   */\n      swap2\n      pop\n        /* \"#utility.yul\":2778:3056   */\n      pop\n        /* \"#utility.yul\":2716:3056   */\n      swap3\n      swap2\n      pop\n      pop\n      jump\t// out\n        /* \"#utility.yul\":3062:3139   */\n    tag_229:\n        /* \"#utility.yul\":3099:3106   */\n      0x00\n        /* \"#utility.yul\":3128:3133   */\n      dup2\n        /* \"#utility.yul\":3117:3133   */\n      swap1\n      pop\n        /* \"#utility.yul\":3062:3139   */\n      swap2\n      swap1\n      pop\n      jump\t// out\n        /* \"#utility.yul\":3145:3267   */\n    tag_230:\n        /* \"#utility.yul\":3218:3242   */\n      tag_305\n        /* \"#utility.yul\":3236:3241   */\n      dup2\n        /* \"#utility.yul\":3218:3242   */\n      tag_229\n      jump\t// in\n    tag_305:\n        /* \"#utility.yul\":3211:3216   */\n      dup2\n        /* \"#utility.yul\":3208:3243   */\n      eq\n        /* \"#utility.yul\":3198:3261   */\n      tag_306\n      jumpi\n        /* \"#utility.yul\":3257:3258   */\n      0x00\n        /* \"#utility.yul\":3254:3255   */\n      dup1\n        /* \"#utility.yul\":3247:3259   */\n      revert\n        /* \"#utility.yul\":3198:3261   */\n    tag_306:\n        /* \"#utility.yul\":3145:3267   */\n      pop\n      jump\t// out\n        /* \"#utility.yul\":3273:3412   */\n    tag_231:\n        /* \"#utility.yul\":3319:3324   */\n      0x00\n        /* \"#utility.yul\":3357:3363   */\n      dup2\n        /* \"#utility.yul\":3344:3364   */\n      calldataload\n        /* \"#utility.yul\":3335:3364   */\n      swap1\n      pop\n        /* \"#utility.yul\":3373:3406   */\n      tag_308\n        /* \"#utility.yul\":3400:3405   */\n      dup2\n        /* \"#utility.yul\":3373:3406   */\n      tag_230\n      jump\t// in\n    tag_308:\n        /* \"#utility.yul\":3273:3412   */\n      swap3\n      swap2\n      pop\n      pop\n      jump\t// out\n        /* \"#utility.yul\":3418:5521   */\n    tag_16:\n        /* \"#utility.yul\":3581:3587   */\n      0x00\n        /* \"#utility.yul\":3589:3595   */\n      dup1\n        /* \"#utility.yul\":3597:3603   */\n      0x00\n        /* \"#utility.yul\":3605:3611   */\n      dup1\n        /* \"#utility.yul\":3613:3619   */\n      0x00\n        /* \"#utility.yul\":3621:3627   */\n      dup1\n        /* \"#utility.yul\":3629:3635   */\n      0x00\n        /* \"#utility.yul\":3678:3681   */\n      0xe0\n        /* \"#utility.yul\":3666:3675   */\n      dup9\n        /* \"#utility.yul\":3657:3664   */\n      dup11\n        /* \"#utility.yul\":3653:3676   */\n      sub\n        /* \"#utility.yul\":3649:3682   */\n      slt\n        /* \"#utility.yul\":3646:3766   */\n      iszero\n      tag_310\n      jumpi\n        /* \"#utility.yul\":3685:3764   */\n      tag_311\n      tag_214\n      jump\t// in\n    tag_311:\n        /* \"#utility.yul\":3646:3766   */\n    tag_310:\n        /* \"#utility.yul\":3805:3806   */\n      0x00\n        /* \"#utility.yul\":3830:3883   */\n      tag_312\n        /* \"#utility.yul\":3875:3882   */\n      dup11\n        /* \"#utility.yul\":3866:3872   */\n      dup3\n        /* \"#utility.yul\":3855:3864   */\n      dup12\n        /* \"#utility.yul\":3851:3873   */\n      add\n        /* \"#utility.yul\":3830:3883   */\n      tag_219\n      jump\t// in\n    tag_312:\n        /* \"#utility.yul\":3820:3883   */\n      swap8\n      pop\n        /* \"#utility.yul\":3776:3893   */\n      pop\n        /* \"#utility.yul\":3960:3962   */\n      0x20\n        /* \"#utility.yul\":3949:3958   */\n      dup9\n        /* \"#utility.yul\":3945:3963   */\n      add\n        /* \"#utility.yul\":3932:3964   */\n      calldataload\n        /* \"#utility.yul\":3991:4009   */\n      0xffffffffffffffff\n        /* \"#utility.yul\":3983:3989   */\n      dup2\n        /* \"#utility.yul\":3980:4010   */\n      gt\n        /* \"#utility.yul\":3977:4094   */\n      iszero\n      tag_313\n      jumpi\n        /* \"#utility.yul\":4013:4092   */\n      tag_314\n      tag_215\n      jump\t// in\n    tag_314:\n        /* \"#utility.yul\":3977:4094   */\n    tag_313:\n        /* \"#utility.yul\":4118:4181   */\n      tag_315\n        /* \"#utility.yul\":4173:4180   */\n      dup11\n        /* \"#utility.yul\":4164:4170   */\n      dup3\n        /* \"#utility.yul\":4153:4162   */\n      dup12\n        /* \"#utility.yul\":4149:4171   */\n      add\n        /* \"#utility.yul\":4118:4181   */\n      tag_228\n      jump\t// in\n    tag_315:\n        /* \"#utility.yul\":4108:4181   */\n      swap7\n      pop\n        /* \"#utility.yul\":3903:4191   */\n      pop\n        /* \"#utility.yul\":4230:4232   */\n      0x40\n        /* \"#utility.yul\":4256:4309   */\n      tag_316\n        /* \"#utility.yul\":4301:4308   */\n      dup11\n        /* \"#utility.yul\":4292:4298   */\n      dup3\n        /* \"#utility.yul\":4281:4290   */\n      dup12\n        /* \"#utility.yul\":4277:4299   */\n      add\n        /* \"#utility.yul\":4256:4309   */\n      tag_231\n      jump\t// in\n    tag_316:\n        /* \"#utility.yul\":4246:4309   */\n      swap6\n      pop\n        /* \"#utility.yul\":4201:4319   */\n      pop\n        /* \"#utility.yul\":4386:4388   */\n      0x60\n        /* \"#utility.yul\":4375:4384   */\n      dup9\n        /* \"#utility.yul\":4371:4389   */\n      add\n        /* \"#utility.yul\":4358:4390   */\n      calldataload\n        /* \"#utility.yul\":4417:4435   */\n      0xffffffffffffffff\n        /* \"#utility.yul\":4409:4415   */\n      dup2\n        /* \"#utility.yul\":4406:4436   */\n      gt\n        /* \"#utility.yul\":4403:4520   */\n      iszero\n      tag_317\n      jumpi\n        /* \"#utility.yul\":4439:4518   */\n      tag_318\n      tag_215\n      jump\t// in\n    tag_318:\n        /* \"#utility.yul\":4403:4520   */\n    tag_317:\n        /* \"#utility.yul\":4544:4607   */\n      tag_319\n        /* \"#utility.yul\":4599:4606   */\n      dup11\n        /* \"#utility.yul\":4590:4596   */\n      dup3\n        /* \"#utility.yul\":4579:4588   */\n      dup12\n        /* \"#utility.yul\":4575:4597   */\n      add\n        /* \"#utility.yul\":4544:4607   */\n      tag_228\n      jump\t// in\n    tag_319:\n        /* \"#utility.yul\":4534:4607   */\n      swap5\n      pop\n        /* \"#utility.yul\":4329:4617   */\n      pop\n        /* \"#utility.yul\":4684:4687   */\n      0x80\n        /* \"#utility.yul\":4673:4682   */\n      dup9\n        /* \"#utility.yul\":4669:4688   */\n      add\n        /* \"#utility.yul\":4656:4689   */\n      calldataload\n        /* \"#utility.yul\":4716:4734   */\n      0xffffffffffffffff\n        /* \"#utility.yul\":4708:4714   */\n      dup2\n        /* \"#utility.yul\":4705:4735   */\n      gt\n        /* \"#utility.yul\":4702:4819   */\n      iszero\n      tag_320\n      jumpi\n        /* \"#utility.yul\":4738:4817   */\n      tag_321\n      tag_215\n      jump\t// in\n    tag_321:\n        /* \"#utility.yul\":4702:4819   */\n    tag_320:\n        /* \"#utility.yul\":4843:4906   */\n      tag_322\n        /* \"#utility.yul\":4898:4905   */\n      dup11\n        /* \"#utility.yul\":4889:4895   */\n      dup3\n        /* \"#utility.yul\":4878:4887   */\n      dup12\n        /* \"#utility.yul\":4874:4896   */\n      add\n        /* \"#utility.yul\":4843:4906   */\n      tag_228\n      jump\t// in\n    tag_322:\n        /* \"#utility.yul\":4833:4906   */\n      swap4\n      pop\n        /* \"#utility.yul\":4627:4916   */\n      pop\n        /* \"#utility.yul\":4983:4986   */\n      0xa0\n        /* \"#utility.yul\":4972:4981   */\n      dup9\n        /* \"#utility.yul\":4968:4987   */\n      add\n        /* \"#utility.yul\":4955:4988   */\n      calldataload\n        /* \"#utility.yul\":5015:5033   */\n      0xffffffffffffffff\n        /* \"#utility.yul\":5007:5013   */\n      dup2\n        /* \"#utility.yul\":5004:5034   */\n      gt\n        /* \"#utility.yul\":5001:5118   */\n      iszero\n      tag_323\n      jumpi\n        /* \"#utility.yul\":5037:5116   */\n      tag_324\n      tag_215\n      jump\t// in\n    tag_324:\n        /* \"#utility.yul\":5001:5118   */\n    tag_323:\n        /* \"#utility.yul\":5142:5205   */\n      tag_325\n        /* \"#utility.yul\":5197:5204   */\n      dup11\n        /* \"#utility.yul\":5188:5194   */\n      dup3\n        /* \"#utility.yul\":5177:5186   */\n      dup12\n        /* \"#utility.yul\":5173:5195   */\n      add\n        /* \"#utility.yul\":5142:5205   */\n      tag_228\n      jump\t// in\n    tag_325:\n        /* \"#utility.yul\":5132:5205   */\n      swap3\n      pop\n        /* \"#utility.yul\":4926:5215   */\n      pop\n        /* \"#utility.yul\":5282:5285   */\n      0xc0\n        /* \"#utility.yul\":5271:5280   */\n      dup9\n        /* \"#utility.yul\":5267:5286   */\n      add\n        /* \"#utility.yul\":5254:5287   */\n      calldataload\n        /* \"#utility.yul\":5314:5332   */\n      0xffffffffffffffff\n        /* \"#utility.yul\":5306:5312   */\n      dup2\n        /* \"#utility.yul\":5303:5333   */\n      gt\n        /* \"#utility.yul\":5300:5417   */\n      iszero\n      tag_326\n      jumpi\n        /* \"#utility.yul\":5336:5415   */\n      tag_327\n      tag_215\n      jump\t// in\n    tag_327:\n        /* \"#utility.yul\":5300:5417   */\n    tag_326:\n        /* \"#utility.yul\":5441:5504   */\n      tag_328\n        /* \"#utility.yul\":5496:5503   */\n      dup11\n        /* \"#utility.yul\":5487:5493   */\n      dup3\n        /* \"#utility.yul\":5476:5485   */\n      dup12\n        /* \"#utility.yul\":5472:5494   */\n      add\n        /* \"#utility.yul\":5441:5504   */\n      tag_228\n      jump\t// in\n    tag_328:\n        /* \"#utility.yul\":5431:5504   */\n      swap2\n      pop\n        /* \"#utility.yul\":5225:5514   */\n      pop\n        /* \"#utility.yul\":3418:5521   */\n      swap3\n      swap6\n      swap9\n      swap2\n      swap5\n      swap8\n      pop\n      swap3\n      swap6\n      pop\n      jump\t// out\n        /* \"#utility.yul\":5527:7124   */\n    tag_20:\n        /* \"#utility.yul\":5661:5667   */\n      0x00\n        /* \"#utility.yul\":5669:5675   */\n      dup1\n        /* \"#utility.yul\":5677:5683   */\n      0x00\n        /* \"#utility.yul\":5685:5691   */\n      dup1\n        /* \"#utility.yul\":5693:5699   */\n      0x00\n        /* \"#utility.yul\":5701:5707   */\n      dup1\n        /* \"#utility.yul\":5750:5753   */\n      0xc0\n        /* \"#utility.yul\":5738:5747   */\n      dup8\n        /* \"#utility.yul\":5729:5736   */\n      dup10\n        /* \"#utility.yul\":5725:5748   */\n      sub\n        /* \"#utility.yul\":5721:5754   */\n      slt\n        /* \"#utility.yul\":5718:5838   */\n      iszero\n      tag_330\n      jumpi\n        /* \"#utility.yul\":5757:5836   */\n      tag_331\n      tag_214\n      jump\t// in\n    tag_331:\n        /* \"#utility.yul\":5718:5838   */\n    tag_330:\n        /* \"#utility.yul\":5905:5906   */\n      0x00\n        /* \"#utility.yul\":5894:5903   */\n      dup8\n        /* \"#utility.yul\":5890:5907   */\n      add\n        /* \"#utility.yul\":5877:5908   */\n      calldataload\n        /* \"#utility.yul\":5935:5953   */\n      0xffffffffffffffff\n        /* \"#utility.yul\":5927:5933   */\n      dup2\n        /* \"#utility.yul\":5924:5954   */\n      gt\n        /* \"#utility.yul\":5921:6038   */\n      iszero\n      tag_332\n      jumpi\n        /* \"#utility.yul\":5957:6036   */\n      tag_333\n      tag_215\n      jump\t// in\n    tag_333:\n        /* \"#utility.yul\":5921:6038   */\n    tag_332:\n        /* \"#utility.yul\":6062:6125   */\n      tag_334\n        /* \"#utility.yul\":6117:6124   */\n      dup10\n        /* \"#utility.yul\":6108:6114   */\n      dup3\n        /* \"#utility.yul\":6097:6106   */\n      dup11\n        /* \"#utility.yul\":6093:6115   */\n      add\n        /* \"#utility.yul\":6062:6125   */\n      tag_228\n      jump\t// in\n    tag_334:\n        /* \"#utility.yul\":6052:6125   */\n      swap7\n      pop\n        /* \"#utility.yul\":5848:6135   */\n      pop\n        /* \"#utility.yul\":6202:6204   */\n      0x20\n        /* \"#utility.yul\":6191:6200   */\n      dup8\n        /* \"#utility.yul\":6187:6205   */\n      add\n        /* \"#utility.yul\":6174:6206   */\n      calldataload\n        /* \"#utility.yul\":6233:6251   */\n      0xffffffffffffffff\n        /* \"#utility.yul\":6225:6231   */\n      dup2\n        /* \"#utility.yul\":6222:6252   */\n      gt\n        /* \"#utility.yul\":6219:6336   */\n      iszero\n      tag_335\n      jumpi\n        /* \"#utility.yul\":6255:6334   */\n      tag_336\n      tag_215\n      jump\t// in\n    tag_336:\n        /* \"#utility.yul\":6219:6336   */\n    tag_335:\n        /* \"#utility.yul\":6360:6423   */\n      tag_337\n        /* \"#utility.yul\":6415:6422   */\n      dup10\n        /* \"#utility.yul\":6406:6412   */\n      dup3\n        /* \"#utility.yul\":6395:6404   */\n      dup11\n        /* \"#utility.yul\":6391:6413   */\n      add\n        /* \"#utility.yul\":6360:6423   */\n      tag_228\n      jump\t// in\n    tag_337:\n        /* \"#utility.yul\":6350:6423   */\n      swap6\n      pop\n        /* \"#utility.yul\":6145:6433   */\n      pop\n        /* \"#utility.yul\":6472:6474   */\n      0x40\n        /* \"#utility.yul\":6498:6551   */\n      tag_338\n        /* \"#utility.yul\":6543:6550   */\n      dup10\n        /* \"#utility.yul\":6534:6540   */\n      dup3\n        /* \"#utility.yul\":6523:6532   */\n      dup11\n        /* \"#utility.yul\":6519:6541   */\n      add\n        /* \"#utility.yul\":6498:6551   */\n      tag_231\n      jump\t// in\n    tag_338:\n        /* \"#utility.yul\":6488:6551   */\n      swap5\n      pop\n        /* \"#utility.yul\":6443:6561   */\n      pop\n        /* \"#utility.yul\":6600:6602   */\n      0x60\n        /* \"#utility.yul\":6626:6679   */\n      tag_339\n        /* \"#utility.yul\":6671:6678   */\n      dup10\n        /* \"#utility.yul\":6662:6668   */\n      dup3\n        /* \"#utility.yul\":6651:6660   */\n      dup11\n        /* \"#utility.yul\":6647:6669   */\n      add\n        /* \"#utility.yul\":6626:6679   */\n      tag_231\n      jump\t// in\n    tag_339:\n        /* \"#utility.yul\":6616:6679   */\n      swap4\n      pop\n        /* \"#utility.yul\":6571:6689   */\n      pop\n        /* \"#utility.yul\":6728:6731   */\n      0x80\n        /* \"#utility.yul\":6755:6808   */\n      tag_340\n        /* \"#utility.yul\":6800:6807   */\n      dup10\n        /* \"#utility.yul\":6791:6797   */\n      dup3\n        /* \"#utility.yul\":6780:6789   */\n      dup11\n        /* \"#utility.yul\":6776:6798   */\n      add\n        /* \"#utility.yul\":6755:6808   */\n      tag_231\n      jump\t// in\n    tag_340:\n        /* \"#utility.yul\":6745:6808   */\n      swap3\n      pop\n        /* \"#utility.yul\":6699:6818   */\n      pop\n        /* \"#utility.yul\":6885:6888   */\n      0xa0\n        /* \"#utility.yul\":6874:6883   */\n      dup8\n        /* \"#utility.yul\":6870:6889   */\n      add\n        /* \"#utility.yul\":6857:6890   */\n      calldataload\n        /* \"#utility.yul\":6917:6935   */\n      0xffffffffffffffff\n        /* \"#utility.yul\":6909:6915   */\n      dup2\n        /* \"#utility.yul\":6906:6936   */\n      gt\n        /* \"#utility.yul\":6903:7020   */\n      iszero\n      tag_341\n      jumpi\n        /* \"#utility.yul\":6939:7018   */\n      tag_342\n      tag_215\n      jump\t// in\n    tag_342:\n        /* \"#utility.yul\":6903:7020   */\n    tag_341:\n        /* \"#utility.yul\":7044:7107   */\n      tag_343\n        /* \"#utility.yul\":7099:7106   */\n      dup10\n        /* \"#utility.yul\":7090:7096   */\n      dup3\n        /* \"#utility.yul\":7079:7088   */\n      dup11\n        /* \"#utility.yul\":7075:7097   */\n      add\n        /* \"#utility.yul\":7044:7107   */\n      tag_228\n      jump\t// in\n    tag_343:\n        /* \"#utility.yul\":7034:7107   */\n      swap2\n      pop\n        /* \"#utility.yul\":6828:7117   */\n      pop\n        /* \"#utility.yul\":5527:7124   */\n      swap3\n      swap6\n      pop\n      swap3\n      swap6\n      pop\n      swap3\n      swap6\n      jump\t// out\n        /* \"#utility.yul\":7130:7639   */\n    tag_24:\n        /* \"#utility.yul\":7199:7205   */\n      0x00\n        /* \"#utility.yul\":7248:7250   */\n      0x20\n        /* \"#utility.yul\":7236:7245   */\n      dup3\n        /* \"#utility.yul\":7227:7234   */\n      dup5\n        /* \"#utility.yul\":7223:7246   */\n      sub\n        /* \"#utility.yul\":7219:7251   */\n      slt\n        /* \"#utility.yul\":7216:7335   */\n      iszero\n      tag_345\n      jumpi\n        /* \"#utility.yul\":7254:7333   */\n      tag_346\n      tag_214\n      jump\t// in\n    tag_346:\n        /* \"#utility.yul\":7216:7335   */\n    tag_345:\n        /* \"#utility.yul\":7402:7403   */\n      0x00\n        /* \"#utility.yul\":7391:7400   */\n      dup3\n        /* \"#utility.yul\":7387:7404   */\n      add\n        /* \"#utility.yul\":7374:7405   */\n      calldataload\n        /* \"#utility.yul\":7432:7450   */\n      0xffffffffffffffff\n        /* \"#utility.yul\":7424:7430   */\n      dup2\n        /* \"#utility.yul\":7421:7451   */\n      gt\n        /* \"#utility.yul\":7418:7535   */\n      iszero\n      tag_347\n      jumpi\n        /* \"#utility.yul\":7454:7533   */\n      tag_348\n      tag_215\n      jump\t// in\n    tag_348:\n        /* \"#utility.yul\":7418:7535   */\n    tag_347:\n        /* \"#utility.yul\":7559:7622   */\n      tag_349\n        /* \"#utility.yul\":7614:7621   */\n      dup5\n        /* \"#utility.yul\":7605:7611   */\n      dup3\n        /* \"#utility.yul\":7594:7603   */\n      dup6\n        /* \"#utility.yul\":7590:7612   */\n      add\n        /* \"#utility.yul\":7559:7622   */\n      tag_228\n      jump\t// in\n    tag_349:\n        /* \"#utility.yul\":7549:7622   */\n      swap2\n      pop\n        /* \"#utility.yul\":7345:7632   */\n      pop\n        /* \"#utility.yul\":7130:7639   */\n      swap3\n      swap2\n      pop\n      pop\n      jump\t// out\n        /* \"#utility.yul\":7645:7744   */\n    tag_232:\n        /* \"#utility.yul\":7697:7703   */\n      0x00\n        /* \"#utility.yul\":7731:7736   */\n      dup2\n        /* \"#utility.yul\":7725:7737   */\n      mload\n        /* \"#utility.yul\":7715:7737   */\n      swap1\n      pop\n        /* \"#utility.yul\":7645:7744   */\n      swap2\n      swap1\n      pop\n      jump\t// out\n        /* \"#utility.yul\":7750:7919   */\n    tag_233:\n        /* \"#utility.yul\":7834:7845   */\n      0x00\n        /* \"#utility.yul\":7868:7874   */\n      dup3\n        /* \"#utility.yul\":7863:7866   */\n      dup3\n        /* \"#utility.yul\":7856:7875   */\n      mstore\n        /* \"#utility.yul\":7908:7912   */\n      0x20\n        /* \"#utility.yul\":7903:7906   */\n      dup3\n        /* \"#utility.yul\":7899:7913   */\n      add\n        /* \"#utility.yul\":7884:7913   */\n      swap1\n      pop\n        /* \"#utility.yul\":7750:7919   */\n      swap3\n      swap2\n      pop\n      pop\n      jump\t// out\n        /* \"#utility.yul\":7925:8064   */\n    tag_234:\n        /* \"#utility.yul\":8014:8020   */\n      dup3\n        /* \"#utility.yul\":8009:8012   */\n      dup2\n        /* \"#utility.yul\":8004:8007   */\n      dup4\n        /* \"#utility.yul\":7998:8021   */\n      mcopy\n        /* \"#utility.yul\":8055:8056   */\n      0x00\n        /* \"#utility.yul\":8046:8052   */\n      dup4\n        /* \"#utility.yul\":8041:8044   */\n      dup4\n        /* \"#utility.yul\":8037:8053   */\n      add\n        /* \"#utility.yul\":8030:8057   */\n      mstore\n        /* \"#utility.yul\":7925:8064   */\n      pop\n      pop\n      pop\n      jump\t// out\n        /* \"#utility.yul\":8070:8447   */\n    tag_235:\n        /* \"#utility.yul\":8158:8161   */\n      0x00\n        /* \"#utility.yul\":8186:8225   */\n      tag_354\n        /* \"#utility.yul\":8219:8224   */\n      dup3\n        /* \"#utility.yul\":8186:8225   */\n      tag_232\n      jump\t// in\n    tag_354:\n        /* \"#utility.yul\":8241:8312   */\n      tag_355\n        /* \"#utility.yul\":8305:8311   */\n      dup2\n        /* \"#utility.yul\":8300:8303   */\n      dup6\n        /* \"#utility.yul\":8241:8312   */\n      tag_233\n      jump\t// in\n    tag_355:\n        /* \"#utility.yul\":8234:8312   */\n      swap4\n      pop\n        /* \"#utility.yul\":8321:8386   */\n      tag_356\n        /* \"#utility.yul\":8379:8385   */\n      dup2\n        /* \"#utility.yul\":8374:8377   */\n      dup6\n        /* \"#utility.yul\":8367:8371   */\n      0x20\n        /* \"#utility.yul\":8360:8365   */\n      dup7\n        /* \"#utility.yul\":8356:8372   */\n      add\n        /* \"#utility.yul\":8321:8386   */\n      tag_234\n      jump\t// in\n    tag_356:\n        /* \"#utility.yul\":8411:8440   */\n      tag_357\n        /* \"#utility.yul\":8433:8439   */\n      dup2\n        /* \"#utility.yul\":8411:8440   */\n      tag_222\n      jump\t// in\n    tag_357:\n        /* \"#utility.yul\":8406:8409   */\n      dup5\n        /* \"#utility.yul\":8402:8441   */\n      add\n        /* \"#utility.yul\":8395:8441   */\n      swap2\n      pop\n        /* \"#utility.yul\":8162:8447   */\n      pop\n        /* \"#utility.yul\":8070:8447   */\n      swap3\n      swap2\n      pop\n      pop\n      jump\t// out\n        /* \"#utility.yul\":8453:8571   */\n    tag_236:\n        /* \"#utility.yul\":8540:8564   */\n      tag_359\n        /* \"#utility.yul\":8558:8563   */\n      dup2\n        /* \"#utility.yul\":8540:8564   */\n      tag_229\n      jump\t// in\n    tag_359:\n        /* \"#utility.yul\":8535:8538   */\n      dup3\n        /* \"#utility.yul\":8528:8565   */\n      mstore\n        /* \"#utility.yul\":8453:8571   */\n      pop\n      pop\n      jump\t// out\n        /* \"#utility.yul\":8577:8695   */\n    tag_237:\n        /* \"#utility.yul\":8664:8688   */\n      tag_361\n        /* \"#utility.yul\":8682:8687   */\n      dup2\n        /* \"#utility.yul\":8664:8688   */\n      tag_217\n      jump\t// in\n    tag_361:\n        /* \"#utility.yul\":8659:8662   */\n      dup3\n        /* \"#utility.yul\":8652:8689   */\n      mstore\n        /* \"#utility.yul\":8577:8695   */\n      pop\n      pop\n      jump\t// out\n        /* \"#utility.yul\":8701:9860   */\n    tag_27:\n        /* \"#utility.yul\":9022:9026   */\n      0x00\n        /* \"#utility.yul\":9060:9063   */\n      0xe0\n        /* \"#utility.yul\":9049:9058   */\n      dup3\n        /* \"#utility.yul\":9045:9064   */\n      add\n        /* \"#utility.yul\":9037:9064   */\n      swap1\n      pop\n        /* \"#utility.yul\":9110:9119   */\n      dup2\n        /* \"#utility.yul\":9104:9108   */\n      dup2\n        /* \"#utility.yul\":9100:9120   */\n      sub\n        /* \"#utility.yul\":9096:9097   */\n      0x00\n        /* \"#utility.yul\":9085:9094   */\n      dup4\n        /* \"#utility.yul\":9081:9098   */\n      add\n        /* \"#utility.yul\":9074:9121   */\n      mstore\n        /* \"#utility.yul\":9138:9216   */\n      tag_363\n        /* \"#utility.yul\":9211:9215   */\n      dup2\n        /* \"#utility.yul\":9202:9208   */\n      dup11\n        /* \"#utility.yul\":9138:9216   */\n      tag_235\n      jump\t// in\n    tag_363:\n        /* \"#utility.yul\":9130:9216   */\n      swap1\n      pop\n        /* \"#utility.yul\":9263:9272   */\n      dup2\n        /* \"#utility.yul\":9257:9261   */\n      dup2\n        /* \"#utility.yul\":9253:9273   */\n      sub\n        /* \"#utility.yul\":9248:9250   */\n      0x20\n        /* \"#utility.yul\":9237:9246   */\n      dup4\n        /* \"#utility.yul\":9233:9251   */\n      add\n        /* \"#utility.yul\":9226:9274   */\n      mstore\n        /* \"#utility.yul\":9291:9369   */\n      tag_364\n        /* \"#utility.yul\":9364:9368   */\n      dup2\n        /* \"#utility.yul\":9355:9361   */\n      dup10\n        /* \"#utility.yul\":9291:9369   */\n      tag_235\n      jump\t// in\n    tag_364:\n        /* \"#utility.yul\":9283:9369   */\n      swap1\n      pop\n        /* \"#utility.yul\":9379:9451   */\n      tag_365\n        /* \"#utility.yul\":9447:9449   */\n      0x40\n        /* \"#utility.yul\":9436:9445   */\n      dup4\n        /* \"#utility.yul\":9432:9450   */\n      add\n        /* \"#utility.yul\":9423:9429   */\n      dup9\n        /* \"#utility.yul\":9379:9451   */\n      tag_236\n      jump\t// in\n    tag_365:\n        /* \"#utility.yul\":9461:9533   */\n      tag_366\n        /* \"#utility.yul\":9529:9531   */\n      0x60\n        /* \"#utility.yul\":9518:9527   */\n      dup4\n        /* \"#utility.yul\":9514:9532   */\n      add\n        /* \"#utility.yul\":9505:9511   */\n      dup8\n        /* \"#utility.yul\":9461:9533   */\n      tag_237\n      jump\t// in\n    tag_366:\n        /* \"#utility.yul\":9543:9616   */\n      tag_367\n        /* \"#utility.yul\":9611:9614   */\n      0x80\n        /* \"#utility.yul\":9600:9609   */\n      dup4\n        /* \"#utility.yul\":9596:9615   */\n      add\n        /* \"#utility.yul\":9587:9593   */\n      dup7\n        /* \"#utility.yul\":9543:9616   */\n      tag_237\n      jump\t// in\n    tag_367:\n        /* \"#utility.yul\":9626:9699   */\n      tag_368\n        /* \"#utility.yul\":9694:9697   */\n      0xa0\n        /* \"#utility.yul\":9683:9692   */\n      dup4\n        /* \"#utility.yul\":9679:9698   */\n      add\n        /* \"#utility.yul\":9670:9676   */\n      dup6\n        /* \"#utility.yul\":9626:9699   */\n      tag_236\n      jump\t// in\n    tag_368:\n        /* \"#utility.yul\":9747:9756   */\n      dup2\n        /* \"#utility.yul\":9741:9745   */\n      dup2\n        /* \"#utility.yul\":9737:9757   */\n      sub\n        /* \"#utility.yul\":9731:9734   */\n      0xc0\n        /* \"#utility.yul\":9720:9729   */\n      dup4\n        /* \"#utility.yul\":9716:9735   */\n      add\n        /* \"#utility.yul\":9709:9758   */\n      mstore\n        /* \"#utility.yul\":9775:9853   */\n      tag_369\n        /* \"#utility.yul\":9848:9852   */\n      dup2\n        /* \"#utility.yul\":9839:9845   */\n      dup5\n        /* \"#utility.yul\":9775:9853   */\n      tag_235\n      jump\t// in\n    tag_369:\n        /* \"#utility.yul\":9767:9853   */\n      swap1\n      pop\n        /* \"#utility.yul\":8701:9860   */\n      swap9\n      swap8\n      pop\n      pop\n      pop\n      pop\n      pop\n      pop\n      pop\n      pop\n      jump\t// out\n        /* \"#utility.yul\":9866:10088   */\n    tag_33:\n        /* \"#utility.yul\":9959:9963   */\n      0x00\n        /* \"#utility.yul\":9997:9999   */\n      0x20\n        /* \"#utility.yul\":9986:9995   */\n      dup3\n        /* \"#utility.yul\":9982:10000   */\n      add\n        /* \"#utility.yul\":9974:10000   */\n      swap1\n      pop\n        /* \"#utility.yul\":10010:10081   */\n      tag_371\n        /* \"#utility.yul\":10078:10079   */\n      0x00\n        /* \"#utility.yul\":10067:10076   */\n      dup4\n        /* \"#utility.yul\":10063:10080   */\n      add\n        /* \"#utility.yul\":10054:10060   */\n      dup5\n        /* \"#utility.yul\":10010:10081   */\n      tag_237\n      jump\t// in\n    tag_371:\n        /* \"#utility.yul\":9866:10088   */\n      swap3\n      swap2\n      pop\n      pop\n      jump\t// out\n        /* \"#utility.yul\":10094:11455   */\n    tag_38:\n        /* \"#utility.yul\":10463:10467   */\n      0x00\n        /* \"#utility.yul\":10501:10504   */\n      0x0100\n        /* \"#utility.yul\":10490:10499   */\n      dup3\n        /* \"#utility.yul\":10486:10505   */\n      add\n        /* \"#utility.yul\":10478:10505   */\n      swap1\n      pop\n        /* \"#utility.yul\":10551:10560   */\n      dup2\n        /* \"#utility.yul\":10545:10549   */\n      dup2\n        /* \"#utility.yul\":10541:10561   */\n      sub\n        /* \"#utility.yul\":10537:10538   */\n      0x00\n        /* \"#utility.yul\":10526:10535   */\n      dup4\n        /* \"#utility.yul\":10522:10539   */\n      add\n        /* \"#utility.yul\":10515:10562   */\n      mstore\n        /* \"#utility.yul\":10579:10657   */\n      tag_373\n        /* \"#utility.yul\":10652:10656   */\n      dup2\n        /* \"#utility.yul\":10643:10649   */\n      dup12\n        /* \"#utility.yul\":10579:10657   */\n      tag_235\n      jump\t// in\n    tag_373:\n        /* \"#utility.yul\":10571:10657   */\n      swap1\n      pop\n        /* \"#utility.yul\":10704:10713   */\n      dup2\n        /* \"#utility.yul\":10698:10702   */\n      dup2\n        /* \"#utility.yul\":10694:10714   */\n      sub\n        /* \"#utility.yul\":10689:10691   */\n      0x20\n        /* \"#utility.yul\":10678:10687   */\n      dup4\n        /* \"#utility.yul\":10674:10692   */\n      add\n        /* \"#utility.yul\":10667:10715   */\n      mstore\n        /* \"#utility.yul\":10732:10810   */\n      tag_374\n        /* \"#utility.yul\":10805:10809   */\n      dup2\n        /* \"#utility.yul\":10796:10802   */\n      dup11\n        /* \"#utility.yul\":10732:10810   */\n      tag_235\n      jump\t// in\n    tag_374:\n        /* \"#utility.yul\":10724:10810   */\n      swap1\n      pop\n        /* \"#utility.yul\":10857:10866   */\n      dup2\n        /* \"#utility.yul\":10851:10855   */\n      dup2\n        /* \"#utility.yul\":10847:10867   */\n      sub\n        /* \"#utility.yul\":10842:10844   */\n      0x40\n        /* \"#utility.yul\":10831:10840   */\n      dup4\n        /* \"#utility.yul\":10827:10845   */\n      add\n        /* \"#utility.yul\":10820:10868   */\n      mstore\n        /* \"#utility.yul\":10885:10963   */\n      tag_375\n        /* \"#utility.yul\":10958:10962   */\n      dup2\n        /* \"#utility.yul\":10949:10955   */\n      dup10\n        /* \"#utility.yul\":10885:10963   */\n      tag_235\n      jump\t// in\n    tag_375:\n        /* \"#utility.yul\":10877:10963   */\n      swap1\n      pop\n        /* \"#utility.yul\":10973:11045   */\n      tag_376\n        /* \"#utility.yul\":11041:11043   */\n      0x60\n        /* \"#utility.yul\":11030:11039   */\n      dup4\n        /* \"#utility.yul\":11026:11044   */\n      add\n        /* \"#utility.yul\":11017:11023   */\n      dup9\n        /* \"#utility.yul\":10973:11045   */\n      tag_236\n      jump\t// in\n    tag_376:\n        /* \"#utility.yul\":11055:11128   */\n      tag_377\n        /* \"#utility.yul\":11123:11126   */\n      0x80\n        /* \"#utility.yul\":11112:11121   */\n      dup4\n        /* \"#utility.yul\":11108:11127   */\n      add\n        /* \"#utility.yul\":11099:11105   */\n      dup8\n        /* \"#utility.yul\":11055:11128   */\n      tag_236\n      jump\t// in\n    tag_377:\n        /* \"#utility.yul\":11138:11211   */\n      tag_378\n        /* \"#utility.yul\":11206:11209   */\n      0xa0\n        /* \"#utility.yul\":11195:11204   */\n      dup4\n        /* \"#utility.yul\":11191:11210   */\n      add\n        /* \"#utility.yul\":11182:11188   */\n      dup7\n        /* \"#utility.yul\":11138:11211   */\n      tag_236\n      jump\t// in\n    tag_378:\n        /* \"#utility.yul\":11259:11268   */\n      dup2\n        /* \"#utility.yul\":11253:11257   */\n      dup2\n        /* \"#utility.yul\":11249:11269   */\n      sub\n        /* \"#utility.yul\":11243:11246   */\n      0xc0\n        /* \"#utility.yul\":11232:11241   */\n      dup4\n        /* \"#utility.yul\":11228:11247   */\n      add\n        /* \"#utility.yul\":11221:11270   */\n      mstore\n        /* \"#utility.yul\":11287:11365   */\n      tag_379\n        /* \"#utility.yul\":11360:11364   */\n      dup2\n        /* \"#utility.yul\":11351:11357   */\n      dup6\n        /* \"#utility.yul\":11287:11365   */\n      tag_235\n      jump\t// in\n    tag_379:\n        /* \"#utility.yul\":11279:11365   */\n      swap1\n      pop\n        /* \"#utility.yul\":11375:11448   */\n      tag_380\n        /* \"#utility.yul\":11443:11446   */\n      0xe0\n        /* \"#utility.yul\":11432:11441   */\n      dup4\n        /* \"#utility.yul\":11428:11447   */\n      add\n        /* \"#utility.yul\":11419:11425   */\n      dup5\n        /* \"#utility.yul\":11375:11448   */\n      tag_237\n      jump\t// in\n    tag_380:\n        /* \"#utility.yul\":10094:11455   */\n      swap10\n      swap9\n      pop\n      pop\n      pop\n      pop\n      pop\n      pop\n      pop\n      pop\n      pop\n      jump\t// out\n        /* \"#utility.yul\":11461:11790   */\n    tag_41:\n        /* \"#utility.yul\":11520:11526   */\n      0x00\n        /* \"#utility.yul\":11569:11571   */\n      0x20\n        /* \"#utility.yul\":11557:11566   */\n      dup3\n        /* \"#utility.yul\":11548:11555   */\n      dup5\n        /* \"#utility.yul\":11544:11567   */\n      sub\n        /* \"#utility.yul\":11540:11572   */\n      slt\n        /* \"#utility.yul\":11537:11656   */\n      iszero\n      tag_382\n      jumpi\n        /* \"#utility.yul\":11575:11654   */\n      tag_383\n      tag_214\n      jump\t// in\n    tag_383:\n        /* \"#utility.yul\":11537:11656   */\n    tag_382:\n        /* \"#utility.yul\":11695:11696   */\n      0x00\n        /* \"#utility.yul\":11720:11773   */\n      tag_384\n        /* \"#utility.yul\":11765:11772   */\n      dup5\n        /* \"#utility.yul\":11756:11762   */\n      dup3\n        /* \"#utility.yul\":11745:11754   */\n      dup6\n        /* \"#utility.yul\":11741:11763   */\n      add\n        /* \"#utility.yul\":11720:11773   */\n      tag_219\n      jump\t// in\n    tag_384:\n        /* \"#utility.yul\":11710:11773   */\n      swap2\n      pop\n        /* \"#utility.yul\":11666:11783   */\n      pop\n        /* \"#utility.yul\":11461:11790   */\n      swap3\n      swap2\n      pop\n      pop\n      jump\t// out\n        /* \"#utility.yul\":11796:13137   */\n    tag_44:\n        /* \"#utility.yul\":12157:12161   */\n      0x00\n        /* \"#utility.yul\":12195:12198   */\n      0xe0\n        /* \"#utility.yul\":12184:12193   */\n      dup3\n        /* \"#utility.yul\":12180:12199   */\n      add\n        /* \"#utility.yul\":12172:12199   */\n      swap1\n      pop\n        /* \"#utility.yul\":12209:12280   */\n      tag_386\n        /* \"#utility.yul\":12277:12278   */\n      0x00\n        /* \"#utility.yul\":12266:12275   */\n      dup4\n        /* \"#utility.yul\":12262:12279   */\n      add\n        /* \"#utility.yul\":12253:12259   */\n      dup11\n        /* \"#utility.yul\":12209:12280   */\n      tag_237\n      jump\t// in\n    tag_386:\n        /* \"#utility.yul\":12327:12336   */\n      dup2\n        /* \"#utility.yul\":12321:12325   */\n      dup2\n        /* \"#utility.yul\":12317:12337   */\n      sub\n        /* \"#utility.yul\":12312:12314   */\n      0x20\n        /* \"#utility.yul\":12301:12310   */\n      dup4\n        /* \"#utility.yul\":12297:12315   */\n      add\n        /* \"#utility.yul\":12290:12338   */\n      mstore\n        /* \"#utility.yul\":12355:12433   */\n      tag_387\n        /* \"#utility.yul\":12428:12432   */\n      dup2\n        /* \"#utility.yul\":12419:12425   */\n      dup10\n        /* \"#utility.yul\":12355:12433   */\n      tag_235\n      jump\t// in\n    tag_387:\n        /* \"#utility.yul\":12347:12433   */\n      swap1\n      pop\n        /* \"#utility.yul\":12443:12515   */\n      tag_388\n        /* \"#utility.yul\":12511:12513   */\n      0x40\n        /* \"#utility.yul\":12500:12509   */\n      dup4\n        /* \"#utility.yul\":12496:12514   */\n      add\n        /* \"#utility.yul\":12487:12493   */\n      dup9\n        /* \"#utility.yul\":12443:12515   */\n      tag_236\n      jump\t// in\n    tag_388:\n        /* \"#utility.yul\":12562:12571   */\n      dup2\n        /* \"#utility.yul\":12556:12560   */\n      dup2\n        /* \"#utility.yul\":12552:12572   */\n      sub\n        /* \"#utility.yul\":12547:12549   */\n      0x60\n        /* \"#utility.yul\":12536:12545   */\n      dup4\n        /* \"#utility.yul\":12532:12550   */\n      add\n        /* \"#utility.yul\":12525:12573   */\n      mstore\n        /* \"#utility.yul\":12590:12668   */\n      tag_389\n        /* \"#utility.yul\":12663:12667   */\n      dup2\n        /* \"#utility.yul\":12654:12660   */\n      dup8\n        /* \"#utility.yul\":12590:12668   */\n      tag_235\n      jump\t// in\n    tag_389:\n        /* \"#utility.yul\":12582:12668   */\n      swap1\n      pop\n        /* \"#utility.yul\":12716:12725   */\n      dup2\n        /* \"#utility.yul\":12710:12714   */\n      dup2\n        /* \"#utility.yul\":12706:12726   */\n      sub\n        /* \"#utility.yul\":12700:12703   */\n      0x80\n        /* \"#utility.yul\":12689:12698   */\n      dup4\n        /* \"#utility.yul\":12685:12704   */\n      add\n        /* \"#utility.yul\":12678:12727   */\n      mstore\n        /* \"#utility.yul\":12744:12822   */\n      tag_390\n        /* \"#utility.yul\":12817:12821   */\n      dup2\n        /* \"#utility.yul\":12808:12814   */\n      dup7\n        /* \"#utility.yul\":12744:12822   */\n      tag_235\n      jump\t// in\n    tag_390:\n        /* \"#utility.yul\":12736:12822   */\n      swap1\n      pop\n        /* \"#utility.yul\":12870:12879   */\n      dup2\n        /* \"#utility.yul\":12864:12868   */\n      dup2\n        /* \"#utility.yul\":12860:12880   */\n      sub\n        /* \"#utility.yul\":12854:12857   */\n      0xa0\n        /* \"#utility.yul\":12843:12852   */\n      dup4\n        /* \"#utility.yul\":12839:12858   */\n      add\n        /* \"#utility.yul\":12832:12881   */\n      mstore\n        /* \"#utility.yul\":12898:12976   */\n      tag_391\n        /* \"#utility.yul\":12971:12975   */\n      dup2\n        /* \"#utility.yul\":12962:12968   */\n      dup6\n        /* \"#utility.yul\":12898:12976   */\n      tag_235\n      jump\t// in\n    tag_391:\n        /* \"#utility.yul\":12890:12976   */\n      swap1\n      pop\n        /* \"#utility.yul\":13024:13033   */\n      dup2\n        /* \"#utility.yul\":13018:13022   */\n      dup2\n        /* \"#utility.yul\":13014:13034   */\n      sub\n        /* \"#utility.yul\":13008:13011   */\n      0xc0\n        /* \"#utility.yul\":12997:13006   */\n      dup4\n        /* \"#utility.yul\":12993:13012   */\n      add\n        /* \"#utility.yul\":12986:13035   */\n      mstore\n        /* \"#utility.yul\":13052:13130   */\n      tag_392\n        /* \"#utility.yul\":13125:13129   */\n      dup2\n        /* \"#utility.yul\":13116:13122   */\n      dup5\n        /* \"#utility.yul\":13052:13130   */\n      tag_235\n      jump\t// in\n    tag_392:\n        /* \"#utility.yul\":13044:13130   */\n      swap1\n      pop\n        /* \"#utility.yul\":11796:13137   */\n      swap9\n      swap8\n      pop\n      pop\n      pop\n      pop\n      pop\n      pop\n      pop\n      pop\n      jump\t// out\n        /* \"#utility.yul\":13143:14268   */\n    tag_47:\n        /* \"#utility.yul\":13249:13255   */\n      0x00\n        /* \"#utility.yul\":13257:13263   */\n      dup1\n        /* \"#utility.yul\":13265:13271   */\n      0x00\n        /* \"#utility.yul\":13273:13279   */\n      dup1\n        /* \"#utility.yul\":13322:13325   */\n      0x80\n        /* \"#utility.yul\":13310:13319   */\n      dup6\n        /* \"#utility.yul\":13301:13308   */\n      dup8\n        /* \"#utility.yul\":13297:13320   */\n      sub\n        /* \"#utility.yul\":13293:13326   */\n      slt\n        /* \"#utility.yul\":13290:13410   */\n      iszero\n      tag_394\n      jumpi\n        /* \"#utility.yul\":13329:13408   */\n      tag_395\n      tag_214\n      jump\t// in\n    tag_395:\n        /* \"#utility.yul\":13290:13410   */\n    tag_394:\n        /* \"#utility.yul\":13477:13478   */\n      0x00\n        /* \"#utility.yul\":13466:13475   */\n      dup6\n        /* \"#utility.yul\":13462:13479   */\n      add\n        /* \"#utility.yul\":13449:13480   */\n      calldataload\n        /* \"#utility.yul\":13507:13525   */\n      0xffffffffffffffff\n        /* \"#utility.yul\":13499:13505   */\n      dup2\n        /* \"#utility.yul\":13496:13526   */\n      gt\n        /* \"#utility.yul\":13493:13610   */\n      iszero\n      tag_396\n      jumpi\n        /* \"#utility.yul\":13529:13608   */\n      tag_397\n      tag_215\n      jump\t// in\n    tag_397:\n        /* \"#utility.yul\":13493:13610   */\n    tag_396:\n        /* \"#utility.yul\":13634:13697   */\n      tag_398\n        /* \"#utility.yul\":13689:13696   */\n      dup8\n        /* \"#utility.yul\":13680:13686   */\n      dup3\n        /* \"#utility.yul\":13669:13678   */\n      dup9\n        /* \"#utility.yul\":13665:13687   */\n      add\n        /* \"#utility.yul\":13634:13697   */\n      tag_228\n      jump\t// in\n    tag_398:\n        /* \"#utility.yul\":13624:13697   */\n      swap5\n      pop\n        /* \"#utility.yul\":13420:13707   */\n      pop\n        /* \"#utility.yul\":13774:13776   */\n      0x20\n        /* \"#utility.yul\":13763:13772   */\n      dup6\n        /* \"#utility.yul\":13759:13777   */\n      add\n        /* \"#utility.yul\":13746:13778   */\n      calldataload\n        /* \"#utility.yul\":13805:13823   */\n      0xffffffffffffffff\n        /* \"#utility.yul\":13797:13803   */\n      dup2\n        /* \"#utility.yul\":13794:13824   */\n      gt\n        /* \"#utility.yul\":13791:13908   */\n      iszero\n      tag_399\n      jumpi\n        /* \"#utility.yul\":13827:13906   */\n      tag_400\n      tag_215\n      jump\t// in\n    tag_400:\n        /* \"#utility.yul\":13791:13908   */\n    tag_399:\n        /* \"#utility.yul\":13932:13995   */\n      tag_401\n        /* \"#utility.yul\":13987:13994   */\n      dup8\n        /* \"#utility.yul\":13978:13984   */\n      dup3\n        /* \"#utility.yul\":13967:13976   */\n      dup9\n        /* \"#utility.yul\":13963:13985   */\n      add\n        /* \"#utility.yul\":13932:13995   */\n      tag_228\n      jump\t// in\n    tag_401:\n        /* \"#utility.yul\":13922:13995   */\n      swap4\n      pop\n        /* \"#utility.yul\":13717:14005   */\n      pop\n        /* \"#utility.yul\":14044:14046   */\n      0x40\n        /* \"#utility.yul\":14070:14123   */\n      tag_402\n        /* \"#utility.yul\":14115:14122   */\n      dup8\n        /* \"#utility.yul\":14106:14112   */\n      dup3\n        /* \"#utility.yul\":14095:14104   */\n      dup9\n        /* \"#utility.yul\":14091:14113   */\n      add\n        /* \"#utility.yul\":14070:14123   */\n      tag_231\n      jump\t// in\n    tag_402:\n        /* \"#utility.yul\":14060:14123   */\n      swap3\n      pop\n        /* \"#utility.yul\":14015:14133   */\n      pop\n        /* \"#utility.yul\":14172:14174   */\n      0x60\n        /* \"#utility.yul\":14198:14251   */\n      tag_403\n        /* \"#utility.yul\":14243:14250   */\n      dup8\n        /* \"#utility.yul\":14234:14240   */\n      dup3\n        /* \"#utility.yul\":14223:14232   */\n      dup9\n        /* \"#utility.yul\":14219:14241   */\n      add\n        /* \"#utility.yul\":14198:14251   */\n      tag_219\n      jump\t// in\n    tag_403:\n        /* \"#utility.yul\":14188:14251   */\n      swap2\n      pop\n        /* \"#utility.yul\":14143:14261   */\n      pop\n        /* \"#utility.yul\":13143:14268   */\n      swap3\n      swap6\n      swap2\n      swap5\n      pop\n      swap3\n      pop\n      jump\t// out\n        /* \"#utility.yul\":14274:14454   */\n    tag_238:\n        /* \"#utility.yul\":14322:14399   */\n      0x4e487b7100000000000000000000000000000000000000000000000000000000\n        /* \"#utility.yul\":14319:14320   */\n      0x00\n        /* \"#utility.yul\":14312:14400   */\n      mstore\n        /* \"#utility.yul\":14419:14423   */\n      0x22\n        /* \"#utility.yul\":14416:14417   */\n      0x04\n        /* \"#utility.yul\":14409:14424   */\n      mstore\n        /* \"#utility.yul\":14443:14447   */\n      0x24\n        /* \"#utility.yul\":14440:14441   */\n      0x00\n        /* \"#utility.yul\":14433:14448   */\n      revert\n        /* \"#utility.yul\":14460:14780   */\n    tag_85:\n        /* \"#utility.yul\":14504:14510   */\n      0x00\n        /* \"#utility.yul\":14541:14542   */\n      0x02\n        /* \"#utility.yul\":14535:14539   */\n      dup3\n        /* \"#utility.yul\":14531:14543   */\n      div\n        /* \"#utility.yul\":14521:14543   */\n      swap1\n      pop\n        /* \"#utility.yul\":14588:14589   */\n      0x01\n        /* \"#utility.yul\":14582:14586   */\n      dup3\n        /* \"#utility.yul\":14578:14590   */\n      and\n        /* \"#utility.yul\":14609:14627   */\n      dup1\n        /* \"#utility.yul\":14599:14680   */\n      tag_406\n      jumpi\n        /* \"#utility.yul\":14665:14669   */\n      0x7f\n        /* \"#utility.yul\":14657:14663   */\n      dup3\n        /* \"#utility.yul\":14653:14670   */\n      and\n        /* \"#utility.yul\":14643:14670   */\n      swap2\n      pop\n        /* \"#utility.yul\":14599:14680   */\n    tag_406:\n        /* \"#utility.yul\":14727:14729   */\n      0x20\n        /* \"#utility.yul\":14719:14725   */\n      dup3\n        /* \"#utility.yul\":14716:14730   */\n      lt\n        /* \"#utility.yul\":14696:14714   */\n      dup2\n        /* \"#utility.yul\":14693:14731   */\n      sub\n        /* \"#utility.yul\":14690:14774   */\n      tag_407\n      jumpi\n        /* \"#utility.yul\":14746:14764   */\n      tag_408\n      tag_238\n      jump\t// in\n    tag_408:\n        /* \"#utility.yul\":14690:14774   */\n    tag_407:\n        /* \"#utility.yul\":14511:14780   */\n      pop\n        /* \"#utility.yul\":14460:14780   */\n      swap2\n      swap1\n      pop\n      jump\t// out\n        /* \"#utility.yul\":14786:14927   */\n    tag_239:\n        /* \"#utility.yul\":14835:14839   */\n      0x00\n        /* \"#utility.yul\":14858:14861   */\n      dup2\n        /* \"#utility.yul\":14850:14861   */\n      swap1\n      pop\n        /* \"#utility.yul\":14881:14884   */\n      dup2\n        /* \"#utility.yul\":14878:14879   */\n      0x00\n        /* \"#utility.yul\":14871:14885   */\n      mstore\n        /* \"#utility.yul\":14915:14919   */\n      0x20\n        /* \"#utility.yul\":14912:14913   */\n      0x00\n        /* \"#utility.yul\":14902:14920   */\n      keccak256\n        /* \"#utility.yul\":14894:14920   */\n      swap1\n      pop\n        /* \"#utility.yul\":14786:14927   */\n      swap2\n      swap1\n      pop\n      jump\t// out\n        /* \"#utility.yul\":14933:15026   */\n    tag_240:\n        /* \"#utility.yul\":14970:14976   */\n      0x00\n        /* \"#utility.yul\":15017:15019   */\n      0x20\n        /* \"#utility.yul\":15012:15014   */\n      0x1f\n        /* \"#utility.yul\":15005:15010   */\n      dup4\n        /* \"#utility.yul\":15001:15015   */\n      add\n        /* \"#utility.yul\":14997:15020   */\n      div\n        /* \"#utility.yul\":14987:15020   */\n      swap1\n      pop\n        /* \"#utility.yul\":14933:15026   */\n      swap2\n      swap1\n      pop\n      jump\t// out\n        /* \"#utility.yul\":15032:15139   */\n    tag_241:\n        /* \"#utility.yul\":15076:15084   */\n      0x00\n        /* \"#utility.yul\":15126:15131   */\n      dup3\n        /* \"#utility.yul\":15120:15124   */\n      dup3\n        /* \"#utility.yul\":15116:15132   */\n      shl\n        /* \"#utility.yul\":15095:15132   */\n      swap1\n      pop\n        /* \"#utility.yul\":15032:15139   */\n      swap3\n      swap2\n      pop\n      pop\n      jump\t// out\n        /* \"#utility.yul\":15145:15538   */\n    tag_242:\n        /* \"#utility.yul\":15214:15220   */\n      0x00\n        /* \"#utility.yul\":15264:15265   */\n      0x08\n        /* \"#utility.yul\":15252:15262   */\n      dup4\n        /* \"#utility.yul\":15248:15266   */\n      mul\n        /* \"#utility.yul\":15287:15384   */\n      tag_413\n        /* \"#utility.yul\":15317:15383   */\n      0xffffffffffffffffffffffffffffffffffffffffffffffffffffffffffffffff\n        /* \"#utility.yul\":15306:15315   */\n      dup3\n        /* \"#utility.yul\":15287:15384   */\n      tag_241\n      jump\t// in\n    tag_413:\n        /* \"#utility.yul\":15405:15444   */\n      tag_414\n        /* \"#utility.yul\":15435:15443   */\n      dup7\n        /* \"#utility.yul\":15424:15433   */\n      dup4\n        /* \"#utility.yul\":15405:15444   */\n      tag_241\n      jump\t// in\n    tag_414:\n        /* \"#utility.yul\":15393:15444   */\n      swap6\n      pop\n        /* \"#utility.yul\":15477:15481   */\n      dup1\n        /* \"#utility.yul\":15473:15482   */\n      not\n        /* \"#utility.yul\":15466:15471   */\n      dup5\n        /* \"#utility.yul\":15462:15483   */\n      and\n        /* \"#utility.yul\":15453:15483   */\n      swap4\n      pop\n        /* \"#utility.yul\":15526:15530   */\n      dup1\n        /* \"#utility.yul\":15516:15524   */\n      dup7\n        /* \"#utility.yul\":15512:15531   */\n      and\n        /* \"#utility.yul\":15505:15510   */\n      dup5\n        /* \"#utility.yul\":15502:15532   */\n      or\n        /* \"#utility.yul\":15492:15532   */\n      swap3\n      pop\n        /* \"#utility.yul\":15221:15538   */\n      pop\n      pop\n        /* \"#utility.yul\":15145:15538   */\n      swap4\n      swap3\n      pop\n      pop\n      pop\n      jump\t// out\n        /* \"#utility.yul\":15544:15604   */\n    tag_243:\n        /* \"#utility.yul\":15572:15575   */\n      0x00\n        /* \"#utility.yul\":15593:15598   */\n      dup2\n        /* \"#utility.yul\":15586:15598   */\n      swap1\n      pop\n        /* \"#utility.yul\":15544:15604   */\n      swap2\n      swap1\n      pop\n      jump\t// out\n        /* \"#utility.yul\":15610:15752   */\n    tag_244:\n        /* \"#utility.yul\":15660:15669   */\n      0x00\n        /* \"#utility.yul\":15693:15746   */\n      tag_417\n        /* \"#utility.yul\":15711:15745   */\n      tag_418\n        /* \"#utility.yul\":15720:15744   */\n      tag_419\n        /* \"#utility.yul\":15738:15743   */\n      dup5\n        /* \"#utility.yul\":15720:15744   */\n      tag_229\n      jump\t// in\n    tag_419:\n        /* \"#utility.yul\":15711:15745   */\n      tag_243\n      jump\t// in\n    tag_418:\n        /* \"#utility.yul\":15693:15746   */\n      tag_229\n      jump\t// in\n    tag_417:\n        /* \"#utility.yul\":15680:15746   */\n      swap1\n      pop\n        /* \"#utility.yul\":15610:15752   */\n      swap2\n      swap1\n      pop\n      jump\t// out\n        /* \"#utility.yul\":15758:15833   */\n    tag_245:\n        /* \"#utility.yul\":15801:15804   */\n      0x00\n        /* \"#utility.yul\":15822:15827   */\n      dup2\n        /* \"#utility.yul\":15815:15827   */\n      swap1\n      pop\n        /* \"#utility.yul\":15758:15833   */\n      swap2\n      swap1\n      pop\n      jump\t// out\n        /* \"#utility.yul\":15839:16108   */\n    tag_246:\n        /* \"#utility.yul\":15949:15988   */\n      tag_422\n        /* \"#utility.yul\":15980:15987   */\n      dup4\n        /* \"#utility.yul\":15949:15988   */\n      tag_244\n      jump\t// in\n    tag_422:\n        /* \"#utility.yul\":16010:16101   */\n      tag_423\n        /* \"#utility.yul\":16059:16100   */\n      tag_424\n        /* \"#utility.yul\":16083:16099   */\n      dup3\n        /* \"#utility.yul\":16059:16100   */\n      tag_245\n      jump\t// in\n    tag_424:\n        /* \"#utility.yul\":16051:16057   */\n      dup5\n        /* \"#utility.yul\":16044:16048   */\n      dup5\n        /* \"#utility.yul\":16038:16049   */\n      sload\n        /* \"#utility.yul\":16010:16101   */\n      tag_242\n      jump\t// in\n    tag_423:\n        /* \"#utility.yul\":16004:16008   */\n      dup3\n        /* \"#utility.yul\":15997:16102   */\n      sstore\n        /* \"#utility.yul\":15915:16108   */\n      pop\n        /* \"#utility.yul\":15839:16108   */\n      pop\n      pop\n      pop\n      jump\t// out\n        /* \"#utility.yul\":16114:16187   */\n    tag_247:\n        /* \"#utility.yul\":16159:16162   */\n      0x00\n        /* \"#utility.yul\":16114:16187   */\n      swap1\n      jump\t// out\n        /* \"#utility.yul\":16193:16382   */\n    tag_248:\n        /* \"#utility.yul\":16270:16302   */\n      tag_427\n      tag_247\n      jump\t// in\n    tag_427:\n        /* \"#utility.yul\":16311:16376   */\n      tag_428\n        /* \"#utility.yul\":16369:16375   */\n      dup2\n        /* \"#utility.yul\":16361:16367   */\n      dup5\n        /* \"#utility.yul\":16355:16359   */\n      dup5\n        /* \"#utility.yul\":16311:16376   */\n      tag_246\n      jump\t// in\n    tag_428:\n        /* \"#utility.yul\":16246:16382   */\n      pop\n        /* \"#utility.yul\":16193:16382   */\n      pop\n      pop\n      jump\t// out\n        /* \"#utility.yul\":16388:16574   */\n    tag_249:\n        /* \"#utility.yul\":16448:16568   */\n    tag_430:\n        /* \"#utility.yul\":16465:16468   */\n      dup2\n        /* \"#utility.yul\":16458:16463   */\n      dup2\n        /* \"#utility.yul\":16455:16469   */\n      lt\n        /* \"#utility.yul\":16448:16568   */\n      iszero\n      tag_432\n      jumpi\n        /* \"#utility.yul\":16519:16558   */\n      tag_433\n        /* \"#utility.yul\":16556:16557   */\n      0x00\n        /* \"#utility.yul\":16549:16554   */\n      dup3\n        /* \"#utility.yul\":16519:16558   */\n      tag_248\n      jump\t// in\n    tag_433:\n        /* \"#utility.yul\":16492:16493   */\n      0x01\n        /* \"#utility.yul\":16485:16490   */\n      dup2\n        /* \"#utility.yul\":16481:16494   */\n      add\n        /* \"#utility.yul\":16472:16494   */\n      swap1\n      pop\n        /* \"#utility.yul\":16448:16568   */\n      jump(tag_430)\n    tag_432:\n        /* \"#utility.yul\":16388:16574   */\n      pop\n      pop\n      jump\t// out\n        /* \"#utility.yul\":16580:17123   */\n    tag_250:\n        /* \"#utility.yul\":16681:16683   */\n      0x1f\n        /* \"#utility.yul\":16676:16679   */\n      dup3\n        /* \"#utility.yul\":16673:16684   */\n      gt\n        /* \"#utility.yul\":16670:17116   */\n      iszero\n      tag_435\n      jumpi\n        /* \"#utility.yul\":16715:16753   */\n      tag_436\n        /* \"#utility.yul\":16747:16752   */\n      dup2\n        /* \"#utility.yul\":16715:16753   */\n      tag_239\n      jump\t// in\n    tag_436:\n        /* \"#utility.yul\":16799:16828   */\n      tag_437\n        /* \"#utility.yul\":16817:16827   */\n      dup5\n        /* \"#utility.yul\":16799:16828   */\n      tag_240\n      jump\t// in\n    tag_437:\n        /* \"#utility.yul\":16789:16797   */\n      dup2\n        /* \"#utility.yul\":16785:16829   */\n      add\n        /* \"#utility.yul\":16982:16984   */\n      0x20\n        /* \"#utility.yul\":16970:16980   */\n      dup6\n        /* \"#utility.yul\":16967:16985   */\n      lt\n        /* \"#utility.yul\":16964:17013   */\n      iszero\n      tag_438\n      jumpi\n        /* \"#utility.yul\":17003:17011   */\n      dup2\n        /* \"#utility.yul\":16988:17011   */\n      swap1\n      pop\n        /* \"#utility.yul\":16964:17013   */\n    tag_438:\n        /* \"#utility.yul\":17026:17106   */\n      tag_439\n        /* \"#utility.yul\":17082:17104   */\n      tag_440\n        /* \"#utility.yul\":17100:17103   */\n      dup6\n        /* \"#utility.yul\":17082:17104   */\n      tag_240\n      jump\t// in\n    tag_440:\n        /* \"#utility.yul\":17072:17080   */\n      dup4\n        /* \"#utility.yul\":17068:17105   */\n      add\n        /* \"#utility.yul\":17055:17066   */\n      dup3\n        /* \"#utility.yul\":17026:17106   */\n      tag_249\n      jump\t// in\n    tag_439:\n        /* \"#utility.yul\":16685:17116   */\n      pop\n      pop\n        /* \"#utility.yul\":16670:17116   */\n    tag_435:\n        /* \"#utility.yul\":16580:17123   */\n      pop\n      pop\n      pop\n      jump\t// out\n        /* \"#utility.yul\":17129:17246   */\n    tag_251:\n        /* \"#utility.yul\":17183:17191   */\n      0x00\n        /* \"#utility.yul\":17233:17238   */\n      dup3\n        /* \"#utility.yul\":17227:17231   */\n      dup3\n        /* \"#utility.yul\":17223:17239   */\n      shr\n        /* \"#utility.yul\":17202:17239   */\n      swap1\n      pop\n        /* \"#utility.yul\":17129:17246   */\n      swap3\n      swap2\n      pop\n      pop\n      jump\t// out\n        /* \"#utility.yul\":17252:17421   */\n    tag_252:\n        /* \"#utility.yul\":17296:17302   */\n      0x00\n        /* \"#utility.yul\":17329:17380   */\n      tag_443\n        /* \"#utility.yul\":17377:17378   */\n      0x00\n        /* \"#utility.yul\":17373:17379   */\n      not\n        /* \"#utility.yul\":17365:17370   */\n      dup5\n        /* \"#utility.yul\":17362:17363   */\n      0x08\n        /* \"#utility.yul\":17358:17371   */\n      mul\n        /* \"#utility.yul\":17329:17380   */\n      tag_251\n      jump\t// in\n    tag_443:\n        /* \"#utility.yul\":17325:17381   */\n      not\n        /* \"#utility.yul\":17410:17414   */\n      dup1\n        /* \"#utility.yul\":17404:17408   */\n      dup4\n        /* \"#utility.yul\":17400:17415   */\n      and\n        /* \"#utility.yul\":17390:17415   */\n      swap2\n      pop\n        /* \"#utility.yul\":17303:17421   */\n      pop\n        /* \"#utility.yul\":17252:17421   */\n      swap3\n      swap2\n      pop\n      pop\n      jump\t// out\n        /* \"#utility.yul\":17426:17721   */\n    tag_253:\n        /* \"#utility.yul\":17502:17506   */\n      0x00\n        /* \"#utility.yul\":17648:17677   */\n      tag_445\n        /* \"#utility.yul\":17673:17676   */\n      dup4\n        /* \"#utility.yul\":17667:17671   */\n      dup4\n        /* \"#utility.yul\":17648:17677   */\n      tag_252\n      jump\t// in\n    tag_445:\n        /* \"#utility.yul\":17640:17677   */\n      swap2\n      pop\n        /* \"#utility.yul\":17710:17713   */\n      dup3\n        /* \"#utility.yul\":17707:17708   */\n      0x02\n        /* \"#utility.yul\":17703:17714   */\n      mul\n        /* \"#utility.yul\":17697:17701   */\n      dup3\n        /* \"#utility.yul\":17694:17715   */\n      or\n        /* \"#utility.yul\":17686:17715   */\n      swap1\n      pop\n        /* \"#utility.yul\":17426:17721   */\n      swap3\n      swap2\n      pop\n      pop\n      jump\t// out\n        /* \"#utility.yul\":17726:19121   */\n    tag_60:\n        /* \"#utility.yul\":17843:17880   */\n      tag_447\n        /* \"#utility.yul\":17876:17879   */\n      dup3\n        /* \"#utility.yul\":17843:17880   */\n      tag_232\n      jump\t// in\n    tag_447:\n        /* \"#utility.yul\":17945:17963   */\n      0xffffffffffffffff\n        /* \"#utility.yul\":17937:17943   */\n      dup2\n        /* \"#utility.yul\":17934:17964   */\n      gt\n        /* \"#utility.yul\":17931:17987   */\n      iszero\n      tag_448\n      jumpi\n        /* \"#utility.yul\":17967:17985   */\n      tag_449\n      tag_195\n      jump\t// in\n    tag_449:\n        /* \"#utility.yul\":17931:17987   */\n    tag_448:\n        /* \"#utility.yul\":18011:18049   */\n      tag_450\n        /* \"#utility.yul\":18043:18047   */\n      dup3\n        /* \"#utility.yul\":18037:18048   */\n      sload\n        /* \"#utility.yul\":18011:18049   */\n      tag_85\n      jump\t// in\n    tag_450:\n        /* \"#utility.yul\":18096:18163   */\n      tag_451\n        /* \"#utility.yul\":18156:18162   */\n      dup3\n        /* \"#utility.yul\":18148:18154   */\n      dup3\n        /* \"#utility.yul\":18142:18146   */\n      dup6\n        /* \"#utility.yul\":18096:18163   */\n      tag_250\n      jump\t// in\n    tag_451:\n        /* \"#utility.yul\":18190:18191   */\n      0x00\n        /* \"#utility.yul\":18214:18218   */\n      0x20\n        /* \"#utility.yul\":18201:18218   */\n      swap1\n      pop\n        /* \"#utility.yul\":18246:18248   */\n      0x1f\n        /* \"#utility.yul\":18238:18244   */\n      dup4\n        /* \"#utility.yul\":18235:18249   */\n      gt\n        /* \"#utility.yul\":18263:18264   */\n      0x01\n        /* \"#utility.yul\":18258:18876   */\n      dup2\n      eq\n      tag_453\n      jumpi\n        /* \"#utility.yul\":18920:18921   */\n      0x00\n        /* \"#utility.yul\":18937:18943   */\n      dup5\n        /* \"#utility.yul\":18934:19011   */\n      iszero\n      tag_454\n      jumpi\n        /* \"#utility.yul\":18986:18995   */\n      dup3\n        /* \"#utility.yul\":18981:18984   */\n      dup8\n        /* \"#utility.yul\":18977:18996   */\n      add\n        /* \"#utility.yul\":18971:18997   */\n      mload\n        /* \"#utility.yul\":18962:18997   */\n      swap1\n      pop\n        /* \"#utility.yul\":18934:19011   */\n    tag_454:\n        /* \"#utility.yul\":19037:19104   */\n      tag_455\n        /* \"#utility.yul\":19097:19103   */\n      dup6\n        /* \"#utility.yul\":19090:19095   */\n      dup3\n        /* \"#utility.yul\":19037:19104   */\n      tag_253\n      jump\t// in\n    tag_455:\n        /* \"#utility.yul\":19031:19035   */\n      dup7\n        /* \"#utility.yul\":19024:19105   */\n      sstore\n        /* \"#utility.yul\":18893:19115   */\n      pop\n        /* \"#utility.yul\":18228:19115   */\n      jump(tag_452)\n        /* \"#utility.yul\":18258:18876   */\n    tag_453:\n        /* \"#utility.yul\":18310:18314   */\n      0x1f\n        /* \"#utility.yul\":18306:18315   */\n      not\n        /* \"#utility.yul\":18298:18304   */\n      dup5\n        /* \"#utility.yul\":18294:18316   */\n      and\n        /* \"#utility.yul\":18344:18381   */\n      tag_456\n        /* \"#utility.yul\":18376:18380   */\n      dup7\n        /* \"#utility.yul\":18344:18381   */\n      tag_239\n      jump\t// in\n    tag_456:\n        /* \"#utility.yul\":18403:18404   */\n      0x00\n        /* \"#utility.yul\":18417:18625   */\n    tag_457:\n        /* \"#utility.yul\":18431:18438   */\n      dup3\n        /* \"#utility.yul\":18428:18429   */\n      dup2\n        /* \"#utility.yul\":18425:18439   */\n      lt\n        /* \"#utility.yul\":18417:18625   */\n      iszero\n      tag_459\n      jumpi\n        /* \"#utility.yul\":18510:18519   */\n      dup5\n        /* \"#utility.yul\":18505:18508   */\n      dup10\n        /* \"#utility.yul\":18501:18520   */\n      add\n        /* \"#utility.yul\":18495:18521   */\n      mload\n        /* \"#utility.yul\":18487:18493   */\n      dup3\n        /* \"#utility.yul\":18480:18522   */\n      sstore\n        /* \"#utility.yul\":18561:18562   */\n      0x01\n        /* \"#utility.yul\":18553:18559   */\n      dup3\n        /* \"#utility.yul\":18549:18563   */\n      add\n        /* \"#utility.yul\":18539:18563   */\n      swap2\n      pop\n        /* \"#utility.yul\":18608:18610   */\n      0x20\n        /* \"#utility.yul\":18597:18606   */\n      dup6\n        /* \"#utility.yul\":18593:18611   */\n      add\n        /* \"#utility.yul\":18580:18611   */\n      swap5\n      pop\n        /* \"#utility.yul\":18454:18458   */\n      0x20\n        /* \"#utility.yul\":18451:18452   */\n      dup2\n        /* \"#utility.yul\":18447:18459   */\n      add\n        /* \"#utility.yul\":18442:18459   */\n      swap1\n      pop\n        /* \"#utility.yul\":18417:18625   */\n      jump(tag_457)\n    tag_459:\n        /* \"#utility.yul\":18653:18659   */\n      dup7\n        /* \"#utility.yul\":18644:18651   */\n      dup4\n        /* \"#utility.yul\":18641:18660   */\n      lt\n        /* \"#utility.yul\":18638:18817   */\n      iszero\n      tag_460\n      jumpi\n        /* \"#utility.yul\":18711:18720   */\n      dup5\n        /* \"#utility.yul\":18706:18709   */\n      dup10\n        /* \"#utility.yul\":18702:18721   */\n      add\n        /* \"#utility.yul\":18696:18722   */\n      mload\n        /* \"#utility.yul\":18754:18802   */\n      tag_461\n        /* \"#utility.yul\":18796:18800   */\n      0x1f\n        /* \"#utility.yul\":18788:18794   */\n      dup10\n        /* \"#utility.yul\":18784:18801   */\n      and\n        /* \"#utility.yul\":18773:18782   */\n      dup3\n        /* \"#utility.yul\":18754:18802   */\n      tag_252\n      jump\t// in\n    tag_461:\n        /* \"#utility.yul\":18746:18752   */\n      dup4\n        /* \"#utility.yul\":18739:18803   */\n      sstore\n        /* \"#utility.yul\":18661:18817   */\n      pop\n        /* \"#utility.yul\":18638:18817   */\n    tag_460:\n        /* \"#utility.yul\":18863:18864   */\n      0x01\n        /* \"#utility.yul\":18859:18860   */\n      0x02\n        /* \"#utility.yul\":18851:18857   */\n      dup9\n        /* \"#utility.yul\":18847:18861   */\n      mul\n        /* \"#utility.yul\":18843:18865   */\n      add\n        /* \"#utility.yul\":18837:18841   */\n      dup9\n        /* \"#utility.yul\":18830:18866   */\n      sstore\n        /* \"#utility.yul\":18265:18876   */\n      pop\n      pop\n      pop\n        /* \"#utility.yul\":18228:19115   */\n    tag_452:\n      pop\n        /* \"#utility.yul\":17818:19121   */\n      pop\n      pop\n      pop\n        /* \"#utility.yul\":17726:19121   */\n      pop\n      pop\n      jump\t// out\n        /* \"#utility.yul\":19127:19298   */\n    tag_254:\n        /* \"#utility.yul\":19267:19290   */\n      0x506572616e20746964616b206469697a696e6b616e0000000000000000000000\n        /* \"#utility.yul\":19263:19264   */\n      0x00\n        /* \"#utility.yul\":19255:19261   */\n      dup3\n        /* \"#utility.yul\":19251:19265   */\n      add\n        /* \"#utility.yul\":19244:19291   */\n      mstore\n        /* \"#utility.yul\":19127:19298   */\n      pop\n      jump\t// out\n        /* \"#utility.yul\":19304:19670   */\n    tag_255:\n        /* \"#utility.yul\":19446:19449   */\n      0x00\n        /* \"#utility.yul\":19467:19534   */\n      tag_464\n        /* \"#utility.yul\":19531:19533   */\n      0x15\n        /* \"#utility.yul\":19526:19529   */\n      dup4\n        /* \"#utility.yul\":19467:19534   */\n      tag_233\n      jump\t// in\n    tag_464:\n        /* \"#utility.yul\":19460:19534   */\n      swap2\n      pop\n        /* \"#utility.yul\":19543:19636   */\n      tag_465\n        /* \"#utility.yul\":19632:19635   */\n      dup3\n        /* \"#utility.yul\":19543:19636   */\n      tag_254\n      jump\t// in\n    tag_465:\n        /* \"#utility.yul\":19661:19663   */\n      0x20\n        /* \"#utility.yul\":19656:19659   */\n      dup3\n        /* \"#utility.yul\":19652:19664   */\n      add\n        /* \"#utility.yul\":19645:19664   */\n      swap1\n      pop\n        /* \"#utility.yul\":19304:19670   */\n      swap2\n      swap1\n      pop\n      jump\t// out\n        /* \"#utility.yul\":19676:20095   */\n    tag_70:\n        /* \"#utility.yul\":19842:19846   */\n      0x00\n        /* \"#utility.yul\":19880:19882   */\n      0x20\n        /* \"#utility.yul\":19869:19878   */\n      dup3\n        /* \"#utility.yul\":19865:19883   */\n      add\n        /* \"#utility.yul\":19857:19883   */\n      swap1\n      pop\n        /* \"#utility.yul\":19929:19938   */\n      dup2\n        /* \"#utility.yul\":19923:19927   */\n      dup2\n        /* \"#utility.yul\":19919:19939   */\n      sub\n        /* \"#utility.yul\":19915:19916   */\n      0x00\n        /* \"#utility.yul\":19904:19913   */\n      dup4\n        /* \"#utility.yul\":19900:19917   */\n      add\n        /* \"#utility.yul\":19893:19940   */\n      mstore\n        /* \"#utility.yul\":19957:20088   */\n      tag_467\n        /* \"#utility.yul\":20083:20087   */\n      dup2\n        /* \"#utility.yul\":19957:20088   */\n      tag_255\n      jump\t// in\n    tag_467:\n        /* \"#utility.yul\":19949:20088   */\n      swap1\n      pop\n        /* \"#utility.yul\":19676:20095   */\n      swap2\n      swap1\n      pop\n      jump\t// out\n        /* \"#utility.yul\":20101:20249   */\n    tag_256:\n        /* \"#utility.yul\":20203:20214   */\n      0x00\n        /* \"#utility.yul\":20240:20243   */\n      dup2\n        /* \"#utility.yul\":20225:20243   */\n      swap1\n      pop\n        /* \"#utility.yul\":20101:20249   */\n      swap3\n      swap2\n      pop\n      pop\n      jump\t// out\n        /* \"#utility.yul\":20255:20645   */\n    tag_257:\n        /* \"#utility.yul\":20361:20364   */\n      0x00\n        /* \"#utility.yul\":20389:20428   */\n      tag_470\n        /* \"#utility.yul\":20422:20427   */\n      dup3\n        /* \"#utility.yul\":20389:20428   */\n      tag_232\n      jump\t// in\n    tag_470:\n        /* \"#utility.yul\":20444:20533   */\n      tag_471\n        /* \"#utility.yul\":20526:20532   */\n      dup2\n        /* \"#utility.yul\":20521:20524   */\n      dup6\n        /* \"#utility.yul\":20444:20533   */\n      tag_256\n      jump\t// in\n    tag_471:\n        /* \"#utility.yul\":20437:20533   */\n      swap4\n      pop\n        /* \"#utility.yul\":20542:20607   */\n      tag_472\n        /* \"#utility.yul\":20600:20606   */\n      dup2\n        /* \"#utility.yul\":20595:20598   */\n      dup6\n        /* \"#utility.yul\":20588:20592   */\n      0x20\n        /* \"#utility.yul\":20581:20586   */\n      dup7\n        /* \"#utility.yul\":20577:20593   */\n      add\n        /* \"#utility.yul\":20542:20607   */\n      tag_234\n      jump\t// in\n    tag_472:\n        /* \"#utility.yul\":20632:20638   */\n      dup1\n        /* \"#utility.yul\":20627:20630   */\n      dup5\n        /* \"#utility.yul\":20623:20639   */\n      add\n        /* \"#utility.yul\":20616:20639   */\n      swap2\n      pop\n        /* \"#utility.yul\":20365:20645   */\n      pop\n        /* \"#utility.yul\":20255:20645   */\n      swap3\n      swap2\n      pop\n      pop\n      jump\t// out\n        /* \"#utility.yul\":20651:21086   */\n    tag_75:\n        /* \"#utility.yul\":20831:20834   */\n      0x00\n        /* \"#utility.yul\":20853:20948   */\n      tag_474\n        /* \"#utility.yul\":20944:20947   */\n      dup3\n        /* \"#utility.yul\":20935:20941   */\n      dup6\n        /* \"#utility.yul\":20853:20948   */\n      tag_257\n      jump\t// in\n    tag_474:\n        /* \"#utility.yul\":20846:20948   */\n      swap2\n      pop\n        /* \"#utility.yul\":20965:21060   */\n      tag_475\n        /* \"#utility.yul\":21056:21059   */\n      dup3\n        /* \"#utility.yul\":21047:21053   */\n      dup5\n        /* \"#utility.yul\":20965:21060   */\n      tag_257\n      jump\t// in\n    tag_475:\n        /* \"#utility.yul\":20958:21060   */\n      swap2\n      pop\n        /* \"#utility.yul\":21077:21080   */\n      dup2\n        /* \"#utility.yul\":21070:21080   */\n      swap1\n      pop\n        /* \"#utility.yul\":20651:21086   */\n      swap4\n      swap3\n      pop\n      pop\n      pop\n      jump\t// out\n        /* \"#utility.yul\":21092:21367   */\n    tag_77:\n        /* \"#utility.yul\":21224:21227   */\n      0x00\n        /* \"#utility.yul\":21246:21341   */\n      tag_477\n        /* \"#utility.yul\":21337:21340   */\n      dup3\n        /* \"#utility.yul\":21328:21334   */\n      dup5\n        /* \"#utility.yul\":21246:21341   */\n      tag_257\n      jump\t// in\n    tag_477:\n        /* \"#utility.yul\":21239:21341   */\n      swap2\n      pop\n        /* \"#utility.yul\":21358:21361   */\n      dup2\n        /* \"#utility.yul\":21351:21361   */\n      swap1\n      pop\n        /* \"#utility.yul\":21092:21367   */\n      swap3\n      swap2\n      pop\n      pop\n      jump\t// out\n        /* \"#utility.yul\":21373:21531   */\n    tag_258:\n        /* \"#utility.yul\":21513:21523   */\n      0x54657274756e6461000000000000000000000000000000000000000000000000\n        /* \"#utility.yul\":21509:21510   */\n      0x00\n        /* \"#utility.yul\":21501:21507   */\n      dup3\n        /* \"#utility.yul\":21497:21511   */\n      add\n        /* \"#utility.yul\":21490:21524   */\n      mstore\n        /* \"#utility.yul\":21373:21531   */\n      pop\n      jump\t// out\n        /* \"#utility.yul\":21537:21902   */\n    tag_259:\n        /* \"#utility.yul\":21679:21682   */\n      0x00\n        /* \"#utility.yul\":21700:21766   */\n      tag_480\n        /* \"#utility.yul\":21764:21765   */\n      0x08\n        /* \"#utility.yul\":21759:21762   */\n      dup4\n        /* \"#utility.yul\":21700:21766   */\n      tag_233\n      jump\t// in\n    tag_480:\n        /* \"#utility.yul\":21693:21766   */\n      swap2\n      pop\n        /* \"#utility.yul\":21775:21868   */\n      tag_481\n        /* \"#utility.yul\":21864:21867   */\n      dup3\n        /* \"#utility.yul\":21775:21868   */\n      tag_258\n      jump\t// in\n    tag_481:\n        /* \"#utility.yul\":21893:21895   */\n      0x20\n        /* \"#utility.yul\":21888:21891   */\n      dup3\n        /* \"#utility.yul\":21884:21896   */\n      add\n        /* \"#utility.yul\":21877:21896   */\n      swap1\n      pop\n        /* \"#utility.yul\":21537:21902   */\n      swap2\n      swap1\n      pop\n      jump\t// out\n        /* \"#utility.yul\":21908:23173   */\n    tag_161:\n        /* \"#utility.yul\":22282:22286   */\n      0x00\n        /* \"#utility.yul\":22320:22323   */\n      0xe0\n        /* \"#utility.yul\":22309:22318   */\n      dup3\n        /* \"#utility.yul\":22305:22324   */\n      add\n        /* \"#utility.yul\":22297:22324   */\n      swap1\n      pop\n        /* \"#utility.yul\":22370:22379   */\n      dup2\n        /* \"#utility.yul\":22364:22368   */\n      dup2\n        /* \"#utility.yul\":22360:22380   */\n      sub\n        /* \"#utility.yul\":22356:22357   */\n      0x00\n        /* \"#utility.yul\":22345:22354   */\n      dup4\n        /* \"#utility.yul\":22341:22358   */\n      add\n        /* \"#utility.yul\":22334:22381   */\n      mstore\n        /* \"#utility.yul\":22398:22476   */\n      tag_483\n        /* \"#utility.yul\":22471:22475   */\n      dup2\n        /* \"#utility.yul\":22462:22468   */\n      dup10\n        /* \"#utility.yul\":22398:22476   */\n      tag_235\n      jump\t// in\n    tag_483:\n        /* \"#utility.yul\":22390:22476   */\n      swap1\n      pop\n        /* \"#utility.yul\":22523:22532   */\n      dup2\n        /* \"#utility.yul\":22517:22521   */\n      dup2\n        /* \"#utility.yul\":22513:22533   */\n      sub\n        /* \"#utility.yul\":22508:22510   */\n      0x20\n        /* \"#utility.yul\":22497:22506   */\n      dup4\n        /* \"#utility.yul\":22493:22511   */\n      add\n        /* \"#utility.yul\":22486:22534   */\n      mstore\n        /* \"#utility.yul\":22551:22629   */\n      tag_484\n        /* \"#utility.yul\":22624:22628   */\n      dup2\n        /* \"#utility.yul\":22615:22621   */\n      dup9\n        /* \"#utility.yul\":22551:22629   */\n      tag_235\n      jump\t// in\n    tag_484:\n        /* \"#utility.yul\":22543:22629   */\n      swap1\n      pop\n        /* \"#utility.yul\":22639:22711   */\n      tag_485\n        /* \"#utility.yul\":22707:22709   */\n      0x40\n        /* \"#utility.yul\":22696:22705   */\n      dup4\n        /* \"#utility.yul\":22692:22710   */\n      add\n        /* \"#utility.yul\":22683:22689   */\n      dup8\n        /* \"#utility.yul\":22639:22711   */\n      tag_236\n      jump\t// in\n    tag_485:\n        /* \"#utility.yul\":22721:22793   */\n      tag_486\n        /* \"#utility.yul\":22789:22791   */\n      0x60\n        /* \"#utility.yul\":22778:22787   */\n      dup4\n        /* \"#utility.yul\":22774:22792   */\n      add\n        /* \"#utility.yul\":22765:22771   */\n      dup7\n        /* \"#utility.yul\":22721:22793   */\n      tag_237\n      jump\t// in\n    tag_486:\n        /* \"#utility.yul\":22803:22876   */\n      tag_487\n        /* \"#utility.yul\":22871:22874   */\n      0x80\n        /* \"#utility.yul\":22860:22869   */\n      dup4\n        /* \"#utility.yul\":22856:22875   */\n      add\n        /* \"#utility.yul\":22847:22853   */\n      dup6\n        /* \"#utility.yul\":22803:22876   */\n      tag_237\n      jump\t// in\n    tag_487:\n        /* \"#utility.yul\":22886:22959   */\n      tag_488\n        /* \"#utility.yul\":22954:22957   */\n      0xa0\n        /* \"#utility.yul\":22943:22952   */\n      dup4\n        /* \"#utility.yul\":22939:22958   */\n      add\n        /* \"#utility.yul\":22930:22936   */\n      dup5\n        /* \"#utility.yul\":22886:22959   */\n      tag_236\n      jump\t// in\n    tag_488:\n        /* \"#utility.yul\":23007:23016   */\n      dup2\n        /* \"#utility.yul\":23001:23005   */\n      dup2\n        /* \"#utility.yul\":22997:23017   */\n      sub\n        /* \"#utility.yul\":22991:22994   */\n      0xc0\n        /* \"#utility.yul\":22980:22989   */\n      dup4\n        /* \"#utility.yul\":22976:22995   */\n      add\n        /* \"#utility.yul\":22969:23018   */\n      mstore\n        /* \"#utility.yul\":23035:23166   */\n      tag_489\n        /* \"#utility.yul\":23161:23165   */\n      dup2\n        /* \"#utility.yul\":23035:23166   */\n      tag_259\n      jump\t// in\n    tag_489:\n        /* \"#utility.yul\":23027:23166   */\n      swap1\n      pop\n        /* \"#utility.yul\":21908:23173   */\n      swap8\n      swap7\n      pop\n      pop\n      pop\n      pop\n      pop\n      pop\n      pop\n      jump\t// out\n        /* \"#utility.yul\":23179:23418   */\n    tag_260:\n        /* \"#utility.yul\":23319:23353   */\n      0x48616e79612070656e6572696d612079616e672062697361206d656e676f6e66\n        /* \"#utility.yul\":23315:23316   */\n      0x00\n        /* \"#utility.yul\":23307:23313   */\n      dup3\n        /* \"#utility.yul\":23303:23317   */\n      add\n        /* \"#utility.yul\":23296:23354   */\n      mstore\n        /* \"#utility.yul\":23388:23410   */\n      0x69726d617369207472616e73616b736920696e69000000000000000000000000\n        /* \"#utility.yul\":23383:23385   */\n      0x20\n        /* \"#utility.yul\":23375:23381   */\n      dup3\n        /* \"#utility.yul\":23371:23386   */\n      add\n        /* \"#utility.yul\":23364:23411   */\n      mstore\n        /* \"#utility.yul\":23179:23418   */\n      pop\n      jump\t// out\n        /* \"#utility.yul\":23424:23790   */\n    tag_261:\n        /* \"#utility.yul\":23566:23569   */\n      0x00\n        /* \"#utility.yul\":23587:23654   */\n      tag_492\n        /* \"#utility.yul\":23651:23653   */\n      0x34\n        /* \"#utility.yul\":23646:23649   */\n      dup4\n        /* \"#utility.yul\":23587:23654   */\n      tag_233\n      jump\t// in\n    tag_492:\n        /* \"#utility.yul\":23580:23654   */\n      swap2\n      pop\n        /* \"#utility.yul\":23663:23756   */\n      tag_493\n        /* \"#utility.yul\":23752:23755   */\n      dup3\n        /* \"#utility.yul\":23663:23756   */\n      tag_260\n      jump\t// in\n    tag_493:\n        /* \"#utility.yul\":23781:23783   */\n      0x40\n        /* \"#utility.yul\":23776:23779   */\n      dup3\n        /* \"#utility.yul\":23772:23784   */\n      add\n        /* \"#utility.yul\":23765:23784   */\n      swap1\n      pop\n        /* \"#utility.yul\":23424:23790   */\n      swap2\n      swap1\n      pop\n      jump\t// out\n        /* \"#utility.yul\":23796:24215   */\n    tag_166:\n        /* \"#utility.yul\":23962:23966   */\n      0x00\n        /* \"#utility.yul\":24000:24002   */\n      0x20\n        /* \"#utility.yul\":23989:23998   */\n      dup3\n        /* \"#utility.yul\":23985:24003   */\n      add\n        /* \"#utility.yul\":23977:24003   */\n      swap1\n      pop\n        /* \"#utility.yul\":24049:24058   */\n      dup2\n        /* \"#utility.yul\":24043:24047   */\n      dup2\n        /* \"#utility.yul\":24039:24059   */\n      sub\n        /* \"#utility.yul\":24035:24036   */\n      0x00\n        /* \"#utility.yul\":24024:24033   */\n      dup4\n        /* \"#utility.yul\":24020:24037   */\n      add\n        /* \"#utility.yul\":24013:24060   */\n      mstore\n        /* \"#utility.yul\":24077:24208   */\n      tag_495\n        /* \"#utility.yul\":24203:24207   */\n      dup2\n        /* \"#utility.yul\":24077:24208   */\n      tag_261\n      jump\t// in\n    tag_495:\n        /* \"#utility.yul\":24069:24208   */\n      swap1\n      pop\n        /* \"#utility.yul\":23796:24215   */\n      swap2\n      swap1\n      pop\n      jump\t// out\n        /* \"#utility.yul\":24221:24644   */\n    tag_171:\n        /* \"#utility.yul\":24362:24366   */\n      0x00\n        /* \"#utility.yul\":24400:24402   */\n      0x40\n        /* \"#utility.yul\":24389:24398   */\n      dup3\n        /* \"#utility.yul\":24385:24403   */\n      add\n        /* \"#utility.yul\":24377:24403   */\n      swap1\n      pop\n        /* \"#utility.yul\":24449:24458   */\n      dup2\n        /* \"#utility.yul\":24443:24447   */\n      dup2\n        /* \"#utility.yul\":24439:24459   */\n      sub\n        /* \"#utility.yul\":24435:24436   */\n      0x00\n        /* \"#utility.yul\":24424:24433   */\n      dup4\n        /* \"#utility.yul\":24420:24437   */\n      add\n        /* \"#utility.yul\":24413:24460   */\n      mstore\n        /* \"#utility.yul\":24477:24555   */\n      tag_497\n        /* \"#utility.yul\":24550:24554   */\n      dup2\n        /* \"#utility.yul\":24541:24547   */\n      dup6\n        /* \"#utility.yul\":24477:24555   */\n      tag_235\n      jump\t// in\n    tag_497:\n        /* \"#utility.yul\":24469:24555   */\n      swap1\n      pop\n        /* \"#utility.yul\":24565:24637   */\n      tag_498\n        /* \"#utility.yul\":24633:24635   */\n      0x20\n        /* \"#utility.yul\":24622:24631   */\n      dup4\n        /* \"#utility.yul\":24618:24636   */\n      add\n        /* \"#utility.yul\":24609:24615   */\n      dup5\n        /* \"#utility.yul\":24565:24637   */\n      tag_237\n      jump\t// in\n    tag_498:\n        /* \"#utility.yul\":24221:24644   */\n      swap4\n      swap3\n      pop\n      pop\n      pop\n      jump\t// out\n        /* \"#utility.yul\":24650:24830   */\n    tag_262:\n        /* \"#utility.yul\":24698:24775   */\n      0x4e487b7100000000000000000000000000000000000000000000000000000000\n        /* \"#utility.yul\":24695:24696   */\n      0x00\n        /* \"#utility.yul\":24688:24776   */\n      mstore\n        /* \"#utility.yul\":24795:24799   */\n      0x11\n        /* \"#utility.yul\":24792:24793   */\n      0x04\n        /* \"#utility.yul\":24785:24800   */\n      mstore\n        /* \"#utility.yul\":24819:24823   */\n      0x24\n        /* \"#utility.yul\":24816:24817   */\n      0x00\n        /* \"#utility.yul\":24809:24824   */\n      revert\n        /* \"#utility.yul\":24836:25069   */\n    tag_190:\n        /* \"#utility.yul\":24875:24878   */\n      0x00\n        /* \"#utility.yul\":24898:24922   */\n      tag_501\n        /* \"#utility.yul\":24916:24921   */\n      dup3\n        /* \"#utility.yul\":24898:24922   */\n      tag_229\n      jump\t// in\n    tag_501:\n        /* \"#utility.yul\":24889:24922   */\n      swap2\n      pop\n        /* \"#utility.yul\":24944:25010   */\n      0xffffffffffffffffffffffffffffffffffffffffffffffffffffffffffffffff\n        /* \"#utility.yul\":24937:24942   */\n      dup3\n        /* \"#utility.yul\":24934:25011   */\n      sub\n        /* \"#utility.yul\":24931:25034   */\n      tag_502\n      jumpi\n        /* \"#utility.yul\":25014:25032   */\n      tag_503\n      tag_262\n      jump\t// in\n    tag_503:\n        /* \"#utility.yul\":24931:25034   */\n    tag_502:\n        /* \"#utility.yul\":25061:25062   */\n      0x01\n        /* \"#utility.yul\":25054:25059   */\n      dup3\n        /* \"#utility.yul\":25050:25063   */\n      add\n        /* \"#utility.yul\":25043:25063   */\n      swap1\n      pop\n        /* \"#utility.yul\":24836:25069   */\n      swap2\n      swap1\n      pop\n      jump\t// out\n        /* \"#utility.yul\":25075:25255   */\n    tag_263:\n        /* \"#utility.yul\":25123:25200   */\n      0x4e487b7100000000000000000000000000000000000000000000000000000000\n        /* \"#utility.yul\":25120:25121   */\n      0x00\n        /* \"#utility.yul\":25113:25201   */\n      mstore\n        /* \"#utility.yul\":25220:25224   */\n      0x12\n        /* \"#utility.yul\":25217:25218   */\n      0x04\n        /* \"#utility.yul\":25210:25225   */\n      mstore\n        /* \"#utility.yul\":25244:25248   */\n      0x24\n        /* \"#utility.yul\":25241:25242   */\n      0x00\n        /* \"#utility.yul\":25234:25249   */\n      revert\n        /* \"#utility.yul\":25261:25446   */\n    tag_192:\n        /* \"#utility.yul\":25301:25302   */\n      0x00\n        /* \"#utility.yul\":25318:25338   */\n      tag_506\n        /* \"#utility.yul\":25336:25337   */\n      dup3\n        /* \"#utility.yul\":25318:25338   */\n      tag_229\n      jump\t// in\n    tag_506:\n        /* \"#utility.yul\":25313:25338   */\n      swap2\n      pop\n        /* \"#utility.yul\":25352:25372   */\n      tag_507\n        /* \"#utility.yul\":25370:25371   */\n      dup4\n        /* \"#utility.yul\":25352:25372   */\n      tag_229\n      jump\t// in\n    tag_507:\n        /* \"#utility.yul\":25347:25372   */\n      swap3\n      pop\n        /* \"#utility.yul\":25391:25392   */\n      dup3\n        /* \"#utility.yul\":25381:25416   */\n      tag_508\n      jumpi\n        /* \"#utility.yul\":25396:25414   */\n      tag_509\n      tag_263\n      jump\t// in\n    tag_509:\n        /* \"#utility.yul\":25381:25416   */\n    tag_508:\n        /* \"#utility.yul\":25438:25439   */\n      dup3\n        /* \"#utility.yul\":25435:25436   */\n      dup3\n        /* \"#utility.yul\":25431:25440   */\n      div\n        /* \"#utility.yul\":25426:25440   */\n      swap1\n      pop\n        /* \"#utility.yul\":25261:25446   */\n      swap3\n      swap2\n      pop\n      pop\n      jump\t// out\n        /* \"#utility.yul\":25452:25646   */\n    tag_200:\n        /* \"#utility.yul\":25492:25496   */\n      0x00\n        /* \"#utility.yul\":25512:25532   */\n      tag_511\n        /* \"#utility.yul\":25530:25531   */\n      dup3\n        /* \"#utility.yul\":25512:25532   */\n      tag_229\n      jump\t// in\n    tag_511:\n        /* \"#utility.yul\":25507:25532   */\n      swap2\n      pop\n        /* \"#utility.yul\":25546:25566   */\n      tag_512\n        /* \"#utility.yul\":25564:25565   */\n      dup4\n        /* \"#utility.yul\":25546:25566   */\n      tag_229\n      jump\t// in\n    tag_512:\n        /* \"#utility.yul\":25541:25566   */\n      swap3\n      pop\n        /* \"#utility.yul\":25590:25591   */\n      dup3\n        /* \"#utility.yul\":25587:25588   */\n      dup3\n        /* \"#utility.yul\":25583:25592   */\n      sub\n        /* \"#utility.yul\":25575:25592   */\n      swap1\n      pop\n        /* \"#utility.yul\":25614:25615   */\n      dup2\n        /* \"#utility.yul\":25608:25612   */\n      dup2\n        /* \"#utility.yul\":25605:25616   */\n      gt\n        /* \"#utility.yul\":25602:25639   */\n      iszero\n      tag_513\n      jumpi\n        /* \"#utility.yul\":25619:25637   */\n      tag_514\n      tag_262\n      jump\t// in\n    tag_514:\n        /* \"#utility.yul\":25602:25639   */\n    tag_513:\n        /* \"#utility.yul\":25452:25646   */\n      swap3\n      swap2\n      pop\n      pop\n      jump\t// out\n        /* \"#utility.yul\":25652:26062   */\n    tag_203:\n        /* \"#utility.yul\":25692:25699   */\n      0x00\n        /* \"#utility.yul\":25715:25735   */\n      tag_516\n        /* \"#utility.yul\":25733:25734   */\n      dup3\n        /* \"#utility.yul\":25715:25735   */\n      tag_229\n      jump\t// in\n    tag_516:\n        /* \"#utility.yul\":25710:25735   */\n      swap2\n      pop\n        /* \"#utility.yul\":25749:25769   */\n      tag_517\n        /* \"#utility.yul\":25767:25768   */\n      dup4\n        /* \"#utility.yul\":25749:25769   */\n      tag_229\n      jump\t// in\n    tag_517:\n        /* \"#utility.yul\":25744:25769   */\n      swap3\n      pop\n        /* \"#utility.yul\":25804:25805   */\n      dup3\n        /* \"#utility.yul\":25801:25802   */\n      dup3\n        /* \"#utility.yul\":25797:25806   */\n      mul\n        /* \"#utility.yul\":25826:25856   */\n      tag_518\n        /* \"#utility.yul\":25844:25855   */\n      dup2\n        /* \"#utility.yul\":25826:25856   */\n      tag_229\n      jump\t// in\n    tag_518:\n        /* \"#utility.yul\":25815:25856   */\n      swap2\n      pop\n        /* \"#utility.yul\":26005:26006   */\n      dup3\n        /* \"#utility.yul\":25996:26003   */\n      dup3\n        /* \"#utility.yul\":25992:26007   */\n      div\n        /* \"#utility.yul\":25989:25990   */\n      dup5\n        /* \"#utility.yul\":25986:26008   */\n      eq\n        /* \"#utility.yul\":25966:25967   */\n      dup4\n        /* \"#utility.yul\":25959:25968   */\n      iszero\n        /* \"#utility.yul\":25939:26022   */\n      or\n        /* \"#utility.yul\":25916:26055   */\n      tag_519\n      jumpi\n        /* \"#utility.yul\":26035:26053   */\n      tag_520\n      tag_262\n      jump\t// in\n    tag_520:\n        /* \"#utility.yul\":25916:26055   */\n    tag_519:\n        /* \"#utility.yul\":25700:26062   */\n      pop\n        /* \"#utility.yul\":25652:26062   */\n      swap3\n      swap2\n      pop\n      pop\n      jump\t// out\n        /* \"#utility.yul\":26068:26154   */\n    tag_264:\n        /* \"#utility.yul\":26103:26110   */\n      0x00\n        /* \"#utility.yul\":26143:26147   */\n      0xff\n        /* \"#utility.yul\":26136:26141   */\n      dup3\n        /* \"#utility.yul\":26132:26148   */\n      and\n        /* \"#utility.yul\":26121:26148   */\n      swap1\n      pop\n        /* \"#utility.yul\":26068:26154   */\n      swap2\n      swap1\n      pop\n      jump\t// out\n        /* \"#utility.yul\":26160:26348   */\n    tag_206:\n        /* \"#utility.yul\":26198:26201   */\n      0x00\n        /* \"#utility.yul\":26217:26235   */\n      tag_523\n        /* \"#utility.yul\":26233:26234   */\n      dup3\n        /* \"#utility.yul\":26217:26235   */\n      tag_264\n      jump\t// in\n    tag_523:\n        /* \"#utility.yul\":26212:26235   */\n      swap2\n      pop\n        /* \"#utility.yul\":26249:26267   */\n      tag_524\n        /* \"#utility.yul\":26265:26266   */\n      dup4\n        /* \"#utility.yul\":26249:26267   */\n      tag_264\n      jump\t// in\n    tag_524:\n        /* \"#utility.yul\":26244:26267   */\n      swap3\n      pop\n        /* \"#utility.yul\":26290:26291   */\n      dup3\n        /* \"#utility.yul\":26287:26288   */\n      dup3\n        /* \"#utility.yul\":26283:26292   */\n      add\n        /* \"#utility.yul\":26276:26292   */\n      swap1\n      pop\n        /* \"#utility.yul\":26313:26317   */\n      0xff\n        /* \"#utility.yul\":26308:26311   */\n      dup2\n        /* \"#utility.yul\":26305:26318   */\n      gt\n        /* \"#utility.yul\":26302:26341   */\n      iszero\n      tag_525\n      jumpi\n        /* \"#utility.yul\":26321:26339   */\n      tag_526\n      tag_262\n      jump\t// in\n    tag_526:\n        /* \"#utility.yul\":26302:26341   */\n    tag_525:\n        /* \"#utility.yul\":26160:26348   */\n      swap3\n      swap2\n      pop\n      pop\n      jump\t// out\n        /* \"#utility.yul\":26354:26534   */\n    tag_209:\n        /* \"#utility.yul\":26402:26479   */\n      0x4e487b7100000000000000000000000000000000000000000000000000000000\n        /* \"#utility.yul\":26399:26400   */\n      0x00\n        /* \"#utility.yul\":26392:26480   */\n      mstore\n        /* \"#utility.yul\":26499:26503   */\n      0x32\n        /* \"#utility.yul\":26496:26497   */\n      0x04\n        /* \"#utility.yul\":26489:26504   */\n      mstore\n        /* \"#utility.yul\":26523:26527   */\n      0x24\n        /* \"#utility.yul\":26520:26521   */\n      0x00\n        /* \"#utility.yul\":26513:26528   */\n      revert\n\n    auxdata: 0xa264697066735822122012069b8196dece8267fb03de3e758be2e0fb9ce8882799fb491456c4876b61bb64736f6c634300081a0033\n}\n",
				"bytecode": {
					"linkReferences": {},
					"object": "608060405234801561000f575f80fd5b50335f73ffffffffffffffffffffffffffffffffffffffff168173ffffffffffffffffffffffffffffffffffffffff1603610081575f6040517f1e4fbdf70000000000000000000000000000000000000000000000000000000081526004016100789190610196565b60405180910390fd5b6100908161009660201b60201c565b506101af565b5f805f9054906101000a900473ffffffffffffffffffffffffffffffffffffffff169050815f806101000a81548173ffffffffffffffffffffffffffffffffffffffff021916908373ffffffffffffffffffffffffffffffffffffffff1602179055508173ffffffffffffffffffffffffffffffffffffffff168173ffffffffffffffffffffffffffffffffffffffff167f8be0079c531659141344cd1fd0a4f28419497f9722a3daafe3b4186f6b6457e060405160405180910390a35050565b5f73ffffffffffffffffffffffffffffffffffffffff82169050919050565b5f61018082610157565b9050919050565b61019081610176565b82525050565b5f6020820190506101a95f830184610187565b92915050565b61238c806101bc5f395ff3fe608060405234801561000f575f80fd5b506004361061009c575f3560e01c80639412bf4a116100645780639412bf4a14610136578063a87430ba1461016d578063e532460b146101a3578063ebac5e1d146101bf578063f2fde38b146101db5761009c565b80630e7414d3146100a057806322e6a4fe146100bc5780636a624fd9146100d8578063715018a61461010e5780638da5cb5b14610118575b5f80fd5b6100ba60048036038101906100b59190611725565b6101f7565b005b6100d660048036038101906100d1919061184e565b610390565b005b6100f260048036038101906100ed919061192b565b610611565b60405161010597969594939291906119f0565b60405180910390f35b610116610837565b005b61012061084a565b60405161012d9190611a72565b60405180910390f35b610150600480360381019061014b919061192b565b610871565b604051610164989796959493929190611a8b565b60405180910390f35b61018760048036038101906101829190611b23565b610b04565b60405161019a9796959493929190611b4e565b60405180910390f35b6101bd60048036038101906101b89190611bde565b610dff565b005b6101d960048036038101906101d4919061192b565b6110aa565b005b6101f560048036038101906101f09190611b23565b6111fa565b005b6101ff61127e565b6040518060e001604052808873ffffffffffffffffffffffffffffffffffffffff1681526020018781526020018681526020018581526020018481526020018381526020018281525060015f8973ffffffffffffffffffffffffffffffffffffffff1673ffffffffffffffffffffffffffffffffffffffff1681526020019081526020015f205f820151815f015f6101000a81548173ffffffffffffffffffffffffffffffffffffffff021916908373ffffffffffffffffffffffffffffffffffffffff16021790555060208201518160010190816102de9190611e74565b506040820151816002015560608201518160030190816102fe9190611e74565b5060808201518160040190816103149190611e74565b5060a082015181600501908161032a9190611e74565b5060c08201518160060190816103409190611e74565b509050507fc37e53df220b9d40fa53f3b01f7312eeaf9901ac9905768d53f1b08b5b498bd58787878787878760405161037f9796959493929190611b4e565b60405180910390a150505050505050565b5f60015f3373ffffffffffffffffffffffffffffffffffffffff1673ffffffffffffffffffffffffffffffffffffffff1681526020019081526020015f20600201541180156104205750600560015f3373ffffffffffffffffffffffffffffffffffffffff1673ffffffffffffffffffffffffffffffffffffffff1681526020019081526020015f206002015411155b61045f576040517f08c379a000000000000000000000000000000000000000000000000000000000815260040161045690611f8d565b60405180910390fd5b5f8661046a42611305565b60405160200161047b929190611fe5565b60405160208183030381529060405290506040518061010001604052808281526020018881526020018781526020018681526020018581526020018481526020018381526020013373ffffffffffffffffffffffffffffffffffffffff168152506003826040516104ec9190612008565b90815260200160405180910390205f820151815f01908161050d9190611e74565b5060208201518160010190816105239190611e74565b5060408201518160020190816105399190611e74565b50606082015181600301556080820151816004015560a0820151816005015560c082015181600601908161056d9190611e74565b5060e0820151816007015f6101000a81548173ffffffffffffffffffffffffffffffffffffffff021916908373ffffffffffffffffffffffffffffffffffffffff1602179055509050506105c381878733610dff565b7f1e9f7e0713c76c01ac54cd1a1fd3869e638b2c6908f95340ba377c059a608ea18188888888888833604051610600989796959493929190611a8b565b60405180910390a150505050505050565b6002818051602081018201805184825260208301602085012081835280955050505050505f91509050805f01805461064890611ca7565b80601f016020809104026020016040519081016040528092919081815260200182805461067490611ca7565b80156106bf5780601f10610696576101008083540402835291602001916106bf565b820191905f5260205f20905b8154815290600101906020018083116106a257829003601f168201915b5050505050908060010180546106d490611ca7565b80601f016020809104026020016040519081016040528092919081815260200182805461070090611ca7565b801561074b5780601f106107225761010080835404028352916020019161074b565b820191905f5260205f20905b81548152906001019060200180831161072e57829003601f168201915b505050505090806002015490806003015f9054906101000a900473ffffffffffffffffffffffffffffffffffffffff1690806004015f9054906101000a900473ffffffffffffffffffffffffffffffffffffffff16908060050154908060060180546107b690611ca7565b80601f01602080910402602001604051908101604052809291908181526020018280546107e290611ca7565b801561082d5780601f106108045761010080835404028352916020019161082d565b820191905f5260205f20905b81548152906001019060200180831161081057829003601f168201915b5050505050905087565b61083f61127e565b6108485f611483565b565b5f805f9054906101000a900473ffffffffffffffffffffffffffffffffffffffff16905090565b6003818051602081018201805184825260208301602085012081835280955050505050505f91509050805f0180546108a890611ca7565b80601f01602080910402602001604051908101604052809291908181526020018280546108d490611ca7565b801561091f5780601f106108f65761010080835404028352916020019161091f565b820191905f5260205f20905b81548152906001019060200180831161090257829003601f168201915b50505050509080600101805461093490611ca7565b80601f016020809104026020016040519081016040528092919081815260200182805461096090611ca7565b80156109ab5780601f10610982576101008083540402835291602001916109ab565b820191905f5260205f20905b81548152906001019060200180831161098e57829003601f168201915b5050505050908060020180546109c090611ca7565b80601f01602080910402602001604051908101604052809291908181526020018280546109ec90611ca7565b8015610a375780601f10610a0e57610100808354040283529160200191610a37565b820191905f5260205f20905b815481529060010190602001808311610a1a57829003601f168201915b505050505090806003015490806004015490806005015490806006018054610a5e90611ca7565b80601f0160208091040260200160405190810160405280929190818152602001828054610a8a90611ca7565b8015610ad55780601f10610aac57610100808354040283529160200191610ad5565b820191905f5260205f20905b815481529060010190602001808311610ab857829003601f168201915b505050505090806007015f9054906101000a900473ffffffffffffffffffffffffffffffffffffffff16905088565b6001602052805f5260405f205f91509050805f015f9054906101000a900473ffffffffffffffffffffffffffffffffffffffff1690806001018054610b4890611ca7565b80601f0160208091040260200160405190810160405280929190818152602001828054610b7490611ca7565b8015610bbf5780601f10610b9657610100808354040283529160200191610bbf565b820191905f5260205f20905b815481529060010190602001808311610ba257829003601f168201915b505050505090806002015490806003018054610bda90611ca7565b80601f0160208091040260200160405190810160405280929190818152602001828054610c0690611ca7565b8015610c515780601f10610c2857610100808354040283529160200191610c51565b820191905f5260205f20905b815481529060010190602001808311610c3457829003601f168201915b505050505090806004018054610c6690611ca7565b80601f0160208091040260200160405190810160405280929190818152602001828054610c9290611ca7565b8015610cdd5780601f10610cb457610100808354040283529160200191610cdd565b820191905f5260205f20905b815481529060010190602001808311610cc057829003601f168201915b505050505090806005018054610cf290611ca7565b80601f0160208091040260200160405190810160405280929190818152602001828054610d1e90611ca7565b8015610d695780601f10610d4057610100808354040283529160200191610d69565b820191905f5260205f20905b815481529060010190602001808311610d4c57829003601f168201915b505050505090806006018054610d7e90611ca7565b80601f0160208091040260200160405190810160405280929190818152602001828054610daa90611ca7565b8015610df55780601f10610dcc57610100808354040283529160200191610df5565b820191905f5260205f20905b815481529060010190602001808311610dd857829003601f168201915b5050505050905087565b5f60015f3373ffffffffffffffffffffffffffffffffffffffff1673ffffffffffffffffffffffffffffffffffffffff1681526020019081526020015f2060020154118015610e8f5750600560015f3373ffffffffffffffffffffffffffffffffffffffff1673ffffffffffffffffffffffffffffffffffffffff1681526020019081526020015f206002015411155b610ece576040517f08c379a0000000000000000000000000000000000000000000000000000000008152600401610ec590611f8d565b60405180910390fd5b6040518060e001604052808581526020018481526020018381526020013373ffffffffffffffffffffffffffffffffffffffff1681526020018273ffffffffffffffffffffffffffffffffffffffff1681526020014281526020016040518060400160405280600881526020017f54657274756e6461000000000000000000000000000000000000000000000000815250815250600285604051610f729190612008565b90815260200160405180910390205f820151815f019081610f939190611e74565b506020820151816001019081610fa99190611e74565b50604082015181600201556060820151816003015f6101000a81548173ffffffffffffffffffffffffffffffffffffffff021916908373ffffffffffffffffffffffffffffffffffffffff1602179055506080820151816004015f6101000a81548173ffffffffffffffffffffffffffffffffffffffff021916908373ffffffffffffffffffffffffffffffffffffffff16021790555060a0820151816005015560c082015181600601908161105f9190611e74565b509050507f4c1398facb24a2c5512d4e158a39aa72c8d583ad08d5cdbdb54322b5ac80ad9b84848433854260405161109c96959493929190612068565b60405180910390a150505050565b803373ffffffffffffffffffffffffffffffffffffffff166002826040516110d29190612008565b90815260200160405180910390206004015f9054906101000a900473ffffffffffffffffffffffffffffffffffffffff1673ffffffffffffffffffffffffffffffffffffffff1614611159576040517f08c379a000000000000000000000000000000000000000000000000000000000815260040161115090612158565b60405180910390fd5b6040518060400160405280600d81526020017f5465726b6f6e6669726d6173690000000000000000000000000000000000000081525060028360405161119f9190612008565b908152602001604051809103902060060190816111bc9190611e74565b507f68c681a1634fe788e939749303856066fa25a038a23654e0d77127e5d29f9e7882336040516111ee929190612176565b60405180910390a15050565b61120261127e565b5f73ffffffffffffffffffffffffffffffffffffffff168173ffffffffffffffffffffffffffffffffffffffff1603611272575f6040517f1e4fbdf70000000000000000000000000000000000000000000000000000000081526004016112699190611a72565b60405180910390fd5b61127b81611483565b50565b611286611544565b73ffffffffffffffffffffffffffffffffffffffff166112a461084a565b73ffffffffffffffffffffffffffffffffffffffff1614611303576112c7611544565b6040517f118cdaa70000000000000000000000000000000000000000000000000000000081526004016112fa9190611a72565b60405180910390fd5b565b60605f820361134b576040518060400160405280600181526020017f3000000000000000000000000000000000000000000000000000000000000000815250905061147e565b5f8290505f5b5f821461137a578080611363906121d1565b915050600a826113739190612245565b9150611351565b5f8167ffffffffffffffff811115611395576113946115ce565b5b6040519080825280601f01601f1916602001820160405280156113c75781602001600182028036833780820191505090505b5090505f8290505b5f8614611476576001816113e39190612275565b90505f600a80886113f49190612245565b6113fe91906122a8565b876114099190612275565b603061141591906122f5565b90505f8160f81b90508084848151811061143257611431612329565b5b60200101907effffffffffffffffffffffffffffffffffffffffffffffffffffffffffffff191690815f1a905350600a8861146d9190612245565b975050506113cf565b819450505050505b919050565b5f805f9054906101000a900473ffffffffffffffffffffffffffffffffffffffff169050815f806101000a81548173ffffffffffffffffffffffffffffffffffffffff021916908373ffffffffffffffffffffffffffffffffffffffff1602179055508173ffffffffffffffffffffffffffffffffffffffff168173ffffffffffffffffffffffffffffffffffffffff167f8be0079c531659141344cd1fd0a4f28419497f9722a3daafe3b4186f6b6457e060405160405180910390a35050565b5f33905090565b5f604051905090565b5f80fd5b5f80fd5b5f73ffffffffffffffffffffffffffffffffffffffff82169050919050565b5f6115858261155c565b9050919050565b6115958161157b565b811461159f575f80fd5b50565b5f813590506115b08161158c565b92915050565b5f80fd5b5f80fd5b5f601f19601f8301169050919050565b7f4e487b71000000000000000000000000000000000000000000000000000000005f52604160045260245ffd5b611604826115be565b810181811067ffffffffffffffff82111715611623576116226115ce565b5b80604052505050565b5f61163561154b565b905061164182826115fb565b919050565b5f67ffffffffffffffff8211156116605761165f6115ce565b5b611669826115be565b9050602081019050919050565b828183375f83830152505050565b5f61169661169184611646565b61162c565b9050828152602081018484840111156116b2576116b16115ba565b5b6116bd848285611676565b509392505050565b5f82601f8301126116d9576116d86115b6565b5b81356116e9848260208601611684565b91505092915050565b5f819050919050565b611704816116f2565b811461170e575f80fd5b50565b5f8135905061171f816116fb565b92915050565b5f805f805f805f60e0888a0312156117405761173f611554565b5b5f61174d8a828b016115a2565b975050602088013567ffffffffffffffff81111561176e5761176d611558565b5b61177a8a828b016116c5565b965050604061178b8a828b01611711565b955050606088013567ffffffffffffffff8111156117ac576117ab611558565b5b6117b88a828b016116c5565b945050608088013567ffffffffffffffff8111156117d9576117d8611558565b5b6117e58a828b016116c5565b93505060a088013567ffffffffffffffff81111561180657611805611558565b5b6118128a828b016116c5565b92505060c088013567ffffffffffffffff81111561183357611832611558565b5b61183f8a828b016116c5565b91505092959891949750929550565b5f805f805f8060c0878903121561186857611867611554565b5b5f87013567ffffffffffffffff81111561188557611884611558565b5b61189189828a016116c5565b965050602087013567ffffffffffffffff8111156118b2576118b1611558565b5b6118be89828a016116c5565b95505060406118cf89828a01611711565b94505060606118e089828a01611711565b93505060806118f189828a01611711565b92505060a087013567ffffffffffffffff81111561191257611911611558565b5b61191e89828a016116c5565b9150509295509295509295565b5f602082840312156119405761193f611554565b5b5f82013567ffffffffffffffff81111561195d5761195c611558565b5b611969848285016116c5565b91505092915050565b5f81519050919050565b5f82825260208201905092915050565b8281835e5f83830152505050565b5f6119a482611972565b6119ae818561197c565b93506119be81856020860161198c565b6119c7816115be565b840191505092915050565b6119db816116f2565b82525050565b6119ea8161157b565b82525050565b5f60e0820190508181035f830152611a08818a61199a565b90508181036020830152611a1c818961199a565b9050611a2b60408301886119d2565b611a3860608301876119e1565b611a4560808301866119e1565b611a5260a08301856119d2565b81810360c0830152611a64818461199a565b905098975050505050505050565b5f602082019050611a855f8301846119e1565b92915050565b5f610100820190508181035f830152611aa4818b61199a565b90508181036020830152611ab8818a61199a565b90508181036040830152611acc818961199a565b9050611adb60608301886119d2565b611ae860808301876119d2565b611af560a08301866119d2565b81810360c0830152611b07818561199a565b9050611b1660e08301846119e1565b9998505050505050505050565b5f60208284031215611b3857611b37611554565b5b5f611b45848285016115a2565b91505092915050565b5f60e082019050611b615f83018a6119e1565b8181036020830152611b73818961199a565b9050611b8260408301886119d2565b8181036060830152611b94818761199a565b90508181036080830152611ba8818661199a565b905081810360a0830152611bbc818561199a565b905081810360c0830152611bd0818461199a565b905098975050505050505050565b5f805f8060808587031215611bf657611bf5611554565b5b5f85013567ffffffffffffffff811115611c1357611c12611558565b5b611c1f878288016116c5565b945050602085013567ffffffffffffffff811115611c4057611c3f611558565b5b611c4c878288016116c5565b9350506040611c5d87828801611711565b9250506060611c6e878288016115a2565b91505092959194509250565b7f4e487b71000000000000000000000000000000000000000000000000000000005f52602260045260245ffd5b5f6002820490506001821680611cbe57607f821691505b602082108103611cd157611cd0611c7a565b5b50919050565b5f819050815f5260205f209050919050565b5f6020601f8301049050919050565b5f82821b905092915050565b5f60088302611d337fffffffffffffffffffffffffffffffffffffffffffffffffffffffffffffffff82611cf8565b611d3d8683611cf8565b95508019841693508086168417925050509392505050565b5f819050919050565b5f611d78611d73611d6e846116f2565b611d55565b6116f2565b9050919050565b5f819050919050565b611d9183611d5e565b611da5611d9d82611d7f565b848454611d04565b825550505050565b5f90565b611db9611dad565b611dc4818484611d88565b505050565b5b81811015611de757611ddc5f82611db1565b600181019050611dca565b5050565b601f821115611e2c57611dfd81611cd7565b611e0684611ce9565b81016020851015611e15578190505b611e29611e2185611ce9565b830182611dc9565b50505b505050565b5f82821c905092915050565b5f611e4c5f1984600802611e31565b1980831691505092915050565b5f611e648383611e3d565b9150826002028217905092915050565b611e7d82611972565b67ffffffffffffffff811115611e9657611e956115ce565b5b611ea08254611ca7565b611eab828285611deb565b5f60209050601f831160018114611edc575f8415611eca578287015190505b611ed48582611e59565b865550611f3b565b601f198416611eea86611cd7565b5f5b82811015611f1157848901518255600182019150602085019450602081019050611eec565b86831015611f2e5784890151611f2a601f891682611e3d565b8355505b6001600288020188555050505b505050505050565b7f506572616e20746964616b206469697a696e6b616e00000000000000000000005f82015250565b5f611f7760158361197c565b9150611f8282611f43565b602082019050919050565b5f6020820190508181035f830152611fa481611f6b565b9050919050565b5f81905092915050565b5f611fbf82611972565b611fc98185611fab565b9350611fd981856020860161198c565b80840191505092915050565b5f611ff08285611fb5565b9150611ffc8284611fb5565b91508190509392505050565b5f6120138284611fb5565b915081905092915050565b7f54657274756e64610000000000000000000000000000000000000000000000005f82015250565b5f61205260088361197c565b915061205d8261201e565b602082019050919050565b5f60e0820190508181035f830152612080818961199a565b90508181036020830152612094818861199a565b90506120a360408301876119d2565b6120b060608301866119e1565b6120bd60808301856119e1565b6120ca60a08301846119d2565b81810360c08301526120db81612046565b9050979650505050505050565b7f48616e79612070656e6572696d612079616e672062697361206d656e676f6e665f8201527f69726d617369207472616e73616b736920696e69000000000000000000000000602082015250565b5f61214260348361197c565b915061214d826120e8565b604082019050919050565b5f6020820190508181035f83015261216f81612136565b9050919050565b5f6040820190508181035f83015261218e818561199a565b905061219d60208301846119e1565b9392505050565b7f4e487b71000000000000000000000000000000000000000000000000000000005f52601160045260245ffd5b5f6121db826116f2565b91507fffffffffffffffffffffffffffffffffffffffffffffffffffffffffffffffff820361220d5761220c6121a4565b5b600182019050919050565b7f4e487b71000000000000000000000000000000000000000000000000000000005f52601260045260245ffd5b5f61224f826116f2565b915061225a836116f2565b92508261226a57612269612218565b5b828204905092915050565b5f61227f826116f2565b915061228a836116f2565b92508282039050818111156122a2576122a16121a4565b5b92915050565b5f6122b2826116f2565b91506122bd836116f2565b92508282026122cb816116f2565b915082820484148315176122e2576122e16121a4565b5b5092915050565b5f60ff82169050919050565b5f6122ff826122e9565b915061230a836122e9565b9250828201905060ff811115612323576123226121a4565b5b92915050565b7f4e487b71000000000000000000000000000000000000000000000000000000005f52603260045260245ffdfea264697066735822122012069b8196dece8267fb03de3e758be2e0fb9ce8882799fb491456c4876b61bb64736f6c634300081a0033",
					"opcodes": "PUSH1 0x80 PUSH1 0x40 MSTORE CALLVALUE DUP1 ISZERO PUSH2 0xF JUMPI PUSH0 DUP1 REVERT JUMPDEST POP CALLER PUSH0 PUSH20 0xFFFFFFFFFFFFFFFFFFFFFFFFFFFFFFFFFFFFFFFF AND DUP2 PUSH20 0xFFFFFFFFFFFFFFFFFFFFFFFFFFFFFFFFFFFFFFFF AND SUB PUSH2 0x81 JUMPI PUSH0 PUSH1 0x40 MLOAD PUSH32 0x1E4FBDF700000000000000000000000000000000000000000000000000000000 DUP2 MSTORE PUSH1 0x4 ADD PUSH2 0x78 SWAP2 SWAP1 PUSH2 0x196 JUMP JUMPDEST PUSH1 0x40 MLOAD DUP1 SWAP2 SUB SWAP1 REVERT JUMPDEST PUSH2 0x90 DUP2 PUSH2 0x96 PUSH1 0x20 SHL PUSH1 0x20 SHR JUMP JUMPDEST POP PUSH2 0x1AF JUMP JUMPDEST PUSH0 DUP1 PUSH0 SWAP1 SLOAD SWAP1 PUSH2 0x100 EXP SWAP1 DIV PUSH20 0xFFFFFFFFFFFFFFFFFFFFFFFFFFFFFFFFFFFFFFFF AND SWAP1 POP DUP2 PUSH0 DUP1 PUSH2 0x100 EXP DUP2 SLOAD DUP2 PUSH20 0xFFFFFFFFFFFFFFFFFFFFFFFFFFFFFFFFFFFFFFFF MUL NOT AND SWAP1 DUP4 PUSH20 0xFFFFFFFFFFFFFFFFFFFFFFFFFFFFFFFFFFFFFFFF AND MUL OR SWAP1 SSTORE POP DUP2 PUSH20 0xFFFFFFFFFFFFFFFFFFFFFFFFFFFFFFFFFFFFFFFF AND DUP2 PUSH20 0xFFFFFFFFFFFFFFFFFFFFFFFFFFFFFFFFFFFFFFFF AND PUSH32 0x8BE0079C531659141344CD1FD0A4F28419497F9722A3DAAFE3B4186F6B6457E0 PUSH1 0x40 MLOAD PUSH1 0x40 MLOAD DUP1 SWAP2 SUB SWAP1 LOG3 POP POP JUMP JUMPDEST PUSH0 PUSH20 0xFFFFFFFFFFFFFFFFFFFFFFFFFFFFFFFFFFFFFFFF DUP3 AND SWAP1 POP SWAP2 SWAP1 POP JUMP JUMPDEST PUSH0 PUSH2 0x180 DUP3 PUSH2 0x157 JUMP JUMPDEST SWAP1 POP SWAP2 SWAP1 POP JUMP JUMPDEST PUSH2 0x190 DUP2 PUSH2 0x176 JUMP JUMPDEST DUP3 MSTORE POP POP JUMP JUMPDEST PUSH0 PUSH1 0x20 DUP3 ADD SWAP1 POP PUSH2 0x1A9 PUSH0 DUP4 ADD DUP5 PUSH2 0x187 JUMP JUMPDEST SWAP3 SWAP2 POP POP JUMP JUMPDEST PUSH2 0x238C DUP1 PUSH2 0x1BC PUSH0 CODECOPY PUSH0 RETURN INVALID PUSH1 0x80 PUSH1 0x40 MSTORE CALLVALUE DUP1 ISZERO PUSH2 0xF JUMPI PUSH0 DUP1 REVERT JUMPDEST POP PUSH1 0x4 CALLDATASIZE LT PUSH2 0x9C JUMPI PUSH0 CALLDATALOAD PUSH1 0xE0 SHR DUP1 PUSH4 0x9412BF4A GT PUSH2 0x64 JUMPI DUP1 PUSH4 0x9412BF4A EQ PUSH2 0x136 JUMPI DUP1 PUSH4 0xA87430BA EQ PUSH2 0x16D JUMPI DUP1 PUSH4 0xE532460B EQ PUSH2 0x1A3 JUMPI DUP1 PUSH4 0xEBAC5E1D EQ PUSH2 0x1BF JUMPI DUP1 PUSH4 0xF2FDE38B EQ PUSH2 0x1DB JUMPI PUSH2 0x9C JUMP JUMPDEST DUP1 PUSH4 0xE7414D3 EQ PUSH2 0xA0 JUMPI DUP1 PUSH4 0x22E6A4FE EQ PUSH2 0xBC JUMPI DUP1 PUSH4 0x6A624FD9 EQ PUSH2 0xD8 JUMPI DUP1 PUSH4 0x715018A6 EQ PUSH2 0x10E JUMPI DUP1 PUSH4 0x8DA5CB5B EQ PUSH2 0x118 JUMPI JUMPDEST PUSH0 DUP1 REVERT JUMPDEST PUSH2 0xBA PUSH1 0x4 DUP1 CALLDATASIZE SUB DUP2 ADD SWAP1 PUSH2 0xB5 SWAP2 SWAP1 PUSH2 0x1725 JUMP JUMPDEST PUSH2 0x1F7 JUMP JUMPDEST STOP JUMPDEST PUSH2 0xD6 PUSH1 0x4 DUP1 CALLDATASIZE SUB DUP2 ADD SWAP1 PUSH2 0xD1 SWAP2 SWAP1 PUSH2 0x184E JUMP JUMPDEST PUSH2 0x390 JUMP JUMPDEST STOP JUMPDEST PUSH2 0xF2 PUSH1 0x4 DUP1 CALLDATASIZE SUB DUP2 ADD SWAP1 PUSH2 0xED SWAP2 SWAP1 PUSH2 0x192B JUMP JUMPDEST PUSH2 0x611 JUMP JUMPDEST PUSH1 0x40 MLOAD PUSH2 0x105 SWAP8 SWAP7 SWAP6 SWAP5 SWAP4 SWAP3 SWAP2 SWAP1 PUSH2 0x19F0 JUMP JUMPDEST PUSH1 0x40 MLOAD DUP1 SWAP2 SUB SWAP1 RETURN JUMPDEST PUSH2 0x116 PUSH2 0x837 JUMP JUMPDEST STOP JUMPDEST PUSH2 0x120 PUSH2 0x84A JUMP JUMPDEST PUSH1 0x40 MLOAD PUSH2 0x12D SWAP2 SWAP1 PUSH2 0x1A72 JUMP JUMPDEST PUSH1 0x40 MLOAD DUP1 SWAP2 SUB SWAP1 RETURN JUMPDEST PUSH2 0x150 PUSH1 0x4 DUP1 CALLDATASIZE SUB DUP2 ADD SWAP1 PUSH2 0x14B SWAP2 SWAP1 PUSH2 0x192B JUMP JUMPDEST PUSH2 0x871 JUMP JUMPDEST PUSH1 0x40 MLOAD PUSH2 0x164 SWAP9 SWAP8 SWAP7 SWAP6 SWAP5 SWAP4 SWAP3 SWAP2 SWAP1 PUSH2 0x1A8B JUMP JUMPDEST PUSH1 0x40 MLOAD DUP1 SWAP2 SUB SWAP1 RETURN JUMPDEST PUSH2 0x187 PUSH1 0x4 DUP1 CALLDATASIZE SUB DUP2 ADD SWAP1 PUSH2 0x182 SWAP2 SWAP1 PUSH2 0x1B23 JUMP JUMPDEST PUSH2 0xB04 JUMP JUMPDEST PUSH1 0x40 MLOAD PUSH2 0x19A SWAP8 SWAP7 SWAP6 SWAP5 SWAP4 SWAP3 SWAP2 SWAP1 PUSH2 0x1B4E JUMP JUMPDEST PUSH1 0x40 MLOAD DUP1 SWAP2 SUB SWAP1 RETURN JUMPDEST PUSH2 0x1BD PUSH1 0x4 DUP1 CALLDATASIZE SUB DUP2 ADD SWAP1 PUSH2 0x1B8 SWAP2 SWAP1 PUSH2 0x1BDE JUMP JUMPDEST PUSH2 0xDFF JUMP JUMPDEST STOP JUMPDEST PUSH2 0x1D9 PUSH1 0x4 DUP1 CALLDATASIZE SUB DUP2 ADD SWAP1 PUSH2 0x1D4 SWAP2 SWAP1 PUSH2 0x192B JUMP JUMPDEST PUSH2 0x10AA JUMP JUMPDEST STOP JUMPDEST PUSH2 0x1F5 PUSH1 0x4 DUP1 CALLDATASIZE SUB DUP2 ADD SWAP1 PUSH2 0x1F0 SWAP2 SWAP1 PUSH2 0x1B23 JUMP JUMPDEST PUSH2 0x11FA JUMP JUMPDEST STOP JUMPDEST PUSH2 0x1FF PUSH2 0x127E JUMP JUMPDEST PUSH1 0x40 MLOAD DUP1 PUSH1 0xE0 ADD PUSH1 0x40 MSTORE DUP1 DUP9 PUSH20 0xFFFFFFFFFFFFFFFFFFFFFFFFFFFFFFFFFFFFFFFF AND DUP2 MSTORE PUSH1 0x20 ADD DUP8 DUP2 MSTORE PUSH1 0x20 ADD DUP7 DUP2 MSTORE PUSH1 0x20 ADD DUP6 DUP2 MSTORE PUSH1 0x20 ADD DUP5 DUP2 MSTORE PUSH1 0x20 ADD DUP4 DUP2 MSTORE PUSH1 0x20 ADD DUP3 DUP2 MSTORE POP PUSH1 0x1 PUSH0 DUP10 PUSH20 0xFFFFFFFFFFFFFFFFFFFFFFFFFFFFFFFFFFFFFFFF AND PUSH20 0xFFFFFFFFFFFFFFFFFFFFFFFFFFFFFFFFFFFFFFFF AND DUP2 MSTORE PUSH1 0x20 ADD SWAP1 DUP2 MSTORE PUSH1 0x20 ADD PUSH0 KECCAK256 PUSH0 DUP3 ADD MLOAD DUP2 PUSH0 ADD PUSH0 PUSH2 0x100 EXP DUP2 SLOAD DUP2 PUSH20 0xFFFFFFFFFFFFFFFFFFFFFFFFFFFFFFFFFFFFFFFF MUL NOT AND SWAP1 DUP4 PUSH20 0xFFFFFFFFFFFFFFFFFFFFFFFFFFFFFFFFFFFFFFFF AND MUL OR SWAP1 SSTORE POP PUSH1 0x20 DUP3 ADD MLOAD DUP2 PUSH1 0x1 ADD SWAP1 DUP2 PUSH2 0x2DE SWAP2 SWAP1 PUSH2 0x1E74 JUMP JUMPDEST POP PUSH1 0x40 DUP3 ADD MLOAD DUP2 PUSH1 0x2 ADD SSTORE PUSH1 0x60 DUP3 ADD MLOAD DUP2 PUSH1 0x3 ADD SWAP1 DUP2 PUSH2 0x2FE SWAP2 SWAP1 PUSH2 0x1E74 JUMP JUMPDEST POP PUSH1 0x80 DUP3 ADD MLOAD DUP2 PUSH1 0x4 ADD SWAP1 DUP2 PUSH2 0x314 SWAP2 SWAP1 PUSH2 0x1E74 JUMP JUMPDEST POP PUSH1 0xA0 DUP3 ADD MLOAD DUP2 PUSH1 0x5 ADD SWAP1 DUP2 PUSH2 0x32A SWAP2 SWAP1 PUSH2 0x1E74 JUMP JUMPDEST POP PUSH1 0xC0 DUP3 ADD MLOAD DUP2 PUSH1 0x6 ADD SWAP1 DUP2 PUSH2 0x340 SWAP2 SWAP1 PUSH2 0x1E74 JUMP JUMPDEST POP SWAP1 POP POP PUSH32 0xC37E53DF220B9D40FA53F3B01F7312EEAF9901AC9905768D53F1B08B5B498BD5 DUP8 DUP8 DUP8 DUP8 DUP8 DUP8 DUP8 PUSH1 0x40 MLOAD PUSH2 0x37F SWAP8 SWAP7 SWAP6 SWAP5 SWAP4 SWAP3 SWAP2 SWAP1 PUSH2 0x1B4E JUMP JUMPDEST PUSH1 0x40 MLOAD DUP1 SWAP2 SUB SWAP1 LOG1 POP POP POP POP POP POP POP JUMP JUMPDEST PUSH0 PUSH1 0x1 PUSH0 CALLER PUSH20 0xFFFFFFFFFFFFFFFFFFFFFFFFFFFFFFFFFFFFFFFF AND PUSH20 0xFFFFFFFFFFFFFFFFFFFFFFFFFFFFFFFFFFFFFFFF AND DUP2 MSTORE PUSH1 0x20 ADD SWAP1 DUP2 MSTORE PUSH1 0x20 ADD PUSH0 KECCAK256 PUSH1 0x2 ADD SLOAD GT DUP1 ISZERO PUSH2 0x420 JUMPI POP PUSH1 0x5 PUSH1 0x1 PUSH0 CALLER PUSH20 0xFFFFFFFFFFFFFFFFFFFFFFFFFFFFFFFFFFFFFFFF AND PUSH20 0xFFFFFFFFFFFFFFFFFFFFFFFFFFFFFFFFFFFFFFFF AND DUP2 MSTORE PUSH1 0x20 ADD SWAP1 DUP2 MSTORE PUSH1 0x20 ADD PUSH0 KECCAK256 PUSH1 0x2 ADD SLOAD GT ISZERO JUMPDEST PUSH2 0x45F JUMPI PUSH1 0x40 MLOAD PUSH32 0x8C379A000000000000000000000000000000000000000000000000000000000 DUP2 MSTORE PUSH1 0x4 ADD PUSH2 0x456 SWAP1 PUSH2 0x1F8D JUMP JUMPDEST PUSH1 0x40 MLOAD DUP1 SWAP2 SUB SWAP1 REVERT JUMPDEST PUSH0 DUP7 PUSH2 0x46A TIMESTAMP PUSH2 0x1305 JUMP JUMPDEST PUSH1 0x40 MLOAD PUSH1 0x20 ADD PUSH2 0x47B SWAP3 SWAP2 SWAP1 PUSH2 0x1FE5 JUMP JUMPDEST PUSH1 0x40 MLOAD PUSH1 0x20 DUP2 DUP4 SUB SUB DUP2 MSTORE SWAP1 PUSH1 0x40 MSTORE SWAP1 POP PUSH1 0x40 MLOAD DUP1 PUSH2 0x100 ADD PUSH1 0x40 MSTORE DUP1 DUP3 DUP2 MSTORE PUSH1 0x20 ADD DUP9 DUP2 MSTORE PUSH1 0x20 ADD DUP8 DUP2 MSTORE PUSH1 0x20 ADD DUP7 DUP2 MSTORE PUSH1 0x20 ADD DUP6 DUP2 MSTORE PUSH1 0x20 ADD DUP5 DUP2 MSTORE PUSH1 0x20 ADD DUP4 DUP2 MSTORE PUSH1 0x20 ADD CALLER PUSH20 0xFFFFFFFFFFFFFFFFFFFFFFFFFFFFFFFFFFFFFFFF AND DUP2 MSTORE POP PUSH1 0x3 DUP3 PUSH1 0x40 MLOAD PUSH2 0x4EC SWAP2 SWAP1 PUSH2 0x2008 JUMP JUMPDEST SWAP1 DUP2 MSTORE PUSH1 0x20 ADD PUSH1 0x40 MLOAD DUP1 SWAP2 SUB SWAP1 KECCAK256 PUSH0 DUP3 ADD MLOAD DUP2 PUSH0 ADD SWAP1 DUP2 PUSH2 0x50D SWAP2 SWAP1 PUSH2 0x1E74 JUMP JUMPDEST POP PUSH1 0x20 DUP3 ADD MLOAD DUP2 PUSH1 0x1 ADD SWAP1 DUP2 PUSH2 0x523 SWAP2 SWAP1 PUSH2 0x1E74 JUMP JUMPDEST POP PUSH1 0x40 DUP3 ADD MLOAD DUP2 PUSH1 0x2 ADD SWAP1 DUP2 PUSH2 0x539 SWAP2 SWAP1 PUSH2 0x1E74 JUMP JUMPDEST POP PUSH1 0x60 DUP3 ADD MLOAD DUP2 PUSH1 0x3 ADD SSTORE PUSH1 0x80 DUP3 ADD MLOAD DUP2 PUSH1 0x4 ADD SSTORE PUSH1 0xA0 DUP3 ADD MLOAD DUP2 PUSH1 0x5 ADD SSTORE PUSH1 0xC0 DUP3 ADD MLOAD DUP2 PUSH1 0x6 ADD SWAP1 DUP2 PUSH2 0x56D SWAP2 SWAP1 PUSH2 0x1E74 JUMP JUMPDEST POP PUSH1 0xE0 DUP3 ADD MLOAD DUP2 PUSH1 0x7 ADD PUSH0 PUSH2 0x100 EXP DUP2 SLOAD DUP2 PUSH20 0xFFFFFFFFFFFFFFFFFFFFFFFFFFFFFFFFFFFFFFFF MUL NOT AND SWAP1 DUP4 PUSH20 0xFFFFFFFFFFFFFFFFFFFFFFFFFFFFFFFFFFFFFFFF AND MUL OR SWAP1 SSTORE POP SWAP1 POP POP PUSH2 0x5C3 DUP2 DUP8 DUP8 CALLER PUSH2 0xDFF JUMP JUMPDEST PUSH32 0x1E9F7E0713C76C01AC54CD1A1FD3869E638B2C6908F95340BA377C059A608EA1 DUP2 DUP9 DUP9 DUP9 DUP9 DUP9 DUP9 CALLER PUSH1 0x40 MLOAD PUSH2 0x600 SWAP9 SWAP8 SWAP7 SWAP6 SWAP5 SWAP4 SWAP3 SWAP2 SWAP1 PUSH2 0x1A8B JUMP JUMPDEST PUSH1 0x40 MLOAD DUP1 SWAP2 SUB SWAP1 LOG1 POP POP POP POP POP POP POP JUMP JUMPDEST PUSH1 0x2 DUP2 DUP1 MLOAD PUSH1 0x20 DUP2 ADD DUP3 ADD DUP1 MLOAD DUP5 DUP3 MSTORE PUSH1 0x20 DUP4 ADD PUSH1 0x20 DUP6 ADD KECCAK256 DUP2 DUP4 MSTORE DUP1 SWAP6 POP POP POP POP POP POP PUSH0 SWAP2 POP SWAP1 POP DUP1 PUSH0 ADD DUP1 SLOAD PUSH2 0x648 SWAP1 PUSH2 0x1CA7 JUMP JUMPDEST DUP1 PUSH1 0x1F ADD PUSH1 0x20 DUP1 SWAP2 DIV MUL PUSH1 0x20 ADD PUSH1 0x40 MLOAD SWAP1 DUP2 ADD PUSH1 0x40 MSTORE DUP1 SWAP3 SWAP2 SWAP1 DUP2 DUP2 MSTORE PUSH1 0x20 ADD DUP3 DUP1 SLOAD PUSH2 0x674 SWAP1 PUSH2 0x1CA7 JUMP JUMPDEST DUP1 ISZERO PUSH2 0x6BF JUMPI DUP1 PUSH1 0x1F LT PUSH2 0x696 JUMPI PUSH2 0x100 DUP1 DUP4 SLOAD DIV MUL DUP4 MSTORE SWAP2 PUSH1 0x20 ADD SWAP2 PUSH2 0x6BF JUMP JUMPDEST DUP3 ADD SWAP2 SWAP1 PUSH0 MSTORE PUSH1 0x20 PUSH0 KECCAK256 SWAP1 JUMPDEST DUP2 SLOAD DUP2 MSTORE SWAP1 PUSH1 0x1 ADD SWAP1 PUSH1 0x20 ADD DUP1 DUP4 GT PUSH2 0x6A2 JUMPI DUP3 SWAP1 SUB PUSH1 0x1F AND DUP3 ADD SWAP2 JUMPDEST POP POP POP POP POP SWAP1 DUP1 PUSH1 0x1 ADD DUP1 SLOAD PUSH2 0x6D4 SWAP1 PUSH2 0x1CA7 JUMP JUMPDEST DUP1 PUSH1 0x1F ADD PUSH1 0x20 DUP1 SWAP2 DIV MUL PUSH1 0x20 ADD PUSH1 0x40 MLOAD SWAP1 DUP2 ADD PUSH1 0x40 MSTORE DUP1 SWAP3 SWAP2 SWAP1 DUP2 DUP2 MSTORE PUSH1 0x20 ADD DUP3 DUP1 SLOAD PUSH2 0x700 SWAP1 PUSH2 0x1CA7 JUMP JUMPDEST DUP1 ISZERO PUSH2 0x74B JUMPI DUP1 PUSH1 0x1F LT PUSH2 0x722 JUMPI PUSH2 0x100 DUP1 DUP4 SLOAD DIV MUL DUP4 MSTORE SWAP2 PUSH1 0x20 ADD SWAP2 PUSH2 0x74B JUMP JUMPDEST DUP3 ADD SWAP2 SWAP1 PUSH0 MSTORE PUSH1 0x20 PUSH0 KECCAK256 SWAP1 JUMPDEST DUP2 SLOAD DUP2 MSTORE SWAP1 PUSH1 0x1 ADD SWAP1 PUSH1 0x20 ADD DUP1 DUP4 GT PUSH2 0x72E JUMPI DUP3 SWAP1 SUB PUSH1 0x1F AND DUP3 ADD SWAP2 JUMPDEST POP POP POP POP POP SWAP1 DUP1 PUSH1 0x2 ADD SLOAD SWAP1 DUP1 PUSH1 0x3 ADD PUSH0 SWAP1 SLOAD SWAP1 PUSH2 0x100 EXP SWAP1 DIV PUSH20 0xFFFFFFFFFFFFFFFFFFFFFFFFFFFFFFFFFFFFFFFF AND SWAP1 DUP1 PUSH1 0x4 ADD PUSH0 SWAP1 SLOAD SWAP1 PUSH2 0x100 EXP SWAP1 DIV PUSH20 0xFFFFFFFFFFFFFFFFFFFFFFFFFFFFFFFFFFFFFFFF AND SWAP1 DUP1 PUSH1 0x5 ADD SLOAD SWAP1 DUP1 PUSH1 0x6 ADD DUP1 SLOAD PUSH2 0x7B6 SWAP1 PUSH2 0x1CA7 JUMP JUMPDEST DUP1 PUSH1 0x1F ADD PUSH1 0x20 DUP1 SWAP2 DIV MUL PUSH1 0x20 ADD PUSH1 0x40 MLOAD SWAP1 DUP2 ADD PUSH1 0x40 MSTORE DUP1 SWAP3 SWAP2 SWAP1 DUP2 DUP2 MSTORE PUSH1 0x20 ADD DUP3 DUP1 SLOAD PUSH2 0x7E2 SWAP1 PUSH2 0x1CA7 JUMP JUMPDEST DUP1 ISZERO PUSH2 0x82D JUMPI DUP1 PUSH1 0x1F LT PUSH2 0x804 JUMPI PUSH2 0x100 DUP1 DUP4 SLOAD DIV MUL DUP4 MSTORE SWAP2 PUSH1 0x20 ADD SWAP2 PUSH2 0x82D JUMP JUMPDEST DUP3 ADD SWAP2 SWAP1 PUSH0 MSTORE PUSH1 0x20 PUSH0 KECCAK256 SWAP1 JUMPDEST DUP2 SLOAD DUP2 MSTORE SWAP1 PUSH1 0x1 ADD SWAP1 PUSH1 0x20 ADD DUP1 DUP4 GT PUSH2 0x810 JUMPI DUP3 SWAP1 SUB PUSH1 0x1F AND DUP3 ADD SWAP2 JUMPDEST POP POP POP POP POP SWAP1 POP DUP8 JUMP JUMPDEST PUSH2 0x83F PUSH2 0x127E JUMP JUMPDEST PUSH2 0x848 PUSH0 PUSH2 0x1483 JUMP JUMPDEST JUMP JUMPDEST PUSH0 DUP1 PUSH0 SWAP1 SLOAD SWAP1 PUSH2 0x100 EXP SWAP1 DIV PUSH20 0xFFFFFFFFFFFFFFFFFFFFFFFFFFFFFFFFFFFFFFFF AND SWAP1 POP SWAP1 JUMP JUMPDEST PUSH1 0x3 DUP2 DUP1 MLOAD PUSH1 0x20 DUP2 ADD DUP3 ADD DUP1 MLOAD DUP5 DUP3 MSTORE PUSH1 0x20 DUP4 ADD PUSH1 0x20 DUP6 ADD KECCAK256 DUP2 DUP4 MSTORE DUP1 SWAP6 POP POP POP POP POP POP PUSH0 SWAP2 POP SWAP1 POP DUP1 PUSH0 ADD DUP1 SLOAD PUSH2 0x8A8 SWAP1 PUSH2 0x1CA7 JUMP JUMPDEST DUP1 PUSH1 0x1F ADD PUSH1 0x20 DUP1 SWAP2 DIV MUL PUSH1 0x20 ADD PUSH1 0x40 MLOAD SWAP1 DUP2 ADD PUSH1 0x40 MSTORE DUP1 SWAP3 SWAP2 SWAP1 DUP2 DUP2 MSTORE PUSH1 0x20 ADD DUP3 DUP1 SLOAD PUSH2 0x8D4 SWAP1 PUSH2 0x1CA7 JUMP JUMPDEST DUP1 ISZERO PUSH2 0x91F JUMPI DUP1 PUSH1 0x1F LT PUSH2 0x8F6 JUMPI PUSH2 0x100 DUP1 DUP4 SLOAD DIV MUL DUP4 MSTORE SWAP2 PUSH1 0x20 ADD SWAP2 PUSH2 0x91F JUMP JUMPDEST DUP3 ADD SWAP2 SWAP1 PUSH0 MSTORE PUSH1 0x20 PUSH0 KECCAK256 SWAP1 JUMPDEST DUP2 SLOAD DUP2 MSTORE SWAP1 PUSH1 0x1 ADD SWAP1 PUSH1 0x20 ADD DUP1 DUP4 GT PUSH2 0x902 JUMPI DUP3 SWAP1 SUB PUSH1 0x1F AND DUP3 ADD SWAP2 JUMPDEST POP POP POP POP POP SWAP1 DUP1 PUSH1 0x1 ADD DUP1 SLOAD PUSH2 0x934 SWAP1 PUSH2 0x1CA7 JUMP JUMPDEST DUP1 PUSH1 0x1F ADD PUSH1 0x20 DUP1 SWAP2 DIV MUL PUSH1 0x20 ADD PUSH1 0x40 MLOAD SWAP1 DUP2 ADD PUSH1 0x40 MSTORE DUP1 SWAP3 SWAP2 SWAP1 DUP2 DUP2 MSTORE PUSH1 0x20 ADD DUP3 DUP1 SLOAD PUSH2 0x960 SWAP1 PUSH2 0x1CA7 JUMP JUMPDEST DUP1 ISZERO PUSH2 0x9AB JUMPI DUP1 PUSH1 0x1F LT PUSH2 0x982 JUMPI PUSH2 0x100 DUP1 DUP4 SLOAD DIV MUL DUP4 MSTORE SWAP2 PUSH1 0x20 ADD SWAP2 PUSH2 0x9AB JUMP JUMPDEST DUP3 ADD SWAP2 SWAP1 PUSH0 MSTORE PUSH1 0x20 PUSH0 KECCAK256 SWAP1 JUMPDEST DUP2 SLOAD DUP2 MSTORE SWAP1 PUSH1 0x1 ADD SWAP1 PUSH1 0x20 ADD DUP1 DUP4 GT PUSH2 0x98E JUMPI DUP3 SWAP1 SUB PUSH1 0x1F AND DUP3 ADD SWAP2 JUMPDEST POP POP POP POP POP SWAP1 DUP1 PUSH1 0x2 ADD DUP1 SLOAD PUSH2 0x9C0 SWAP1 PUSH2 0x1CA7 JUMP JUMPDEST DUP1 PUSH1 0x1F ADD PUSH1 0x20 DUP1 SWAP2 DIV MUL PUSH1 0x20 ADD PUSH1 0x40 MLOAD SWAP1 DUP2 ADD PUSH1 0x40 MSTORE DUP1 SWAP3 SWAP2 SWAP1 DUP2 DUP2 MSTORE PUSH1 0x20 ADD DUP3 DUP1 SLOAD PUSH2 0x9EC SWAP1 PUSH2 0x1CA7 JUMP JUMPDEST DUP1 ISZERO PUSH2 0xA37 JUMPI DUP1 PUSH1 0x1F LT PUSH2 0xA0E JUMPI PUSH2 0x100 DUP1 DUP4 SLOAD DIV MUL DUP4 MSTORE SWAP2 PUSH1 0x20 ADD SWAP2 PUSH2 0xA37 JUMP JUMPDEST DUP3 ADD SWAP2 SWAP1 PUSH0 MSTORE PUSH1 0x20 PUSH0 KECCAK256 SWAP1 JUMPDEST DUP2 SLOAD DUP2 MSTORE SWAP1 PUSH1 0x1 ADD SWAP1 PUSH1 0x20 ADD DUP1 DUP4 GT PUSH2 0xA1A JUMPI DUP3 SWAP1 SUB PUSH1 0x1F AND DUP3 ADD SWAP2 JUMPDEST POP POP POP POP POP SWAP1 DUP1 PUSH1 0x3 ADD SLOAD SWAP1 DUP1 PUSH1 0x4 ADD SLOAD SWAP1 DUP1 PUSH1 0x5 ADD SLOAD SWAP1 DUP1 PUSH1 0x6 ADD DUP1 SLOAD PUSH2 0xA5E SWAP1 PUSH2 0x1CA7 JUMP JUMPDEST DUP1 PUSH1 0x1F ADD PUSH1 0x20 DUP1 SWAP2 DIV MUL PUSH1 0x20 ADD PUSH1 0x40 MLOAD SWAP1 DUP2 ADD PUSH1 0x40 MSTORE DUP1 SWAP3 SWAP2 SWAP1 DUP2 DUP2 MSTORE PUSH1 0x20 ADD DUP3 DUP1 SLOAD PUSH2 0xA8A SWAP1 PUSH2 0x1CA7 JUMP JUMPDEST DUP1 ISZERO PUSH2 0xAD5 JUMPI DUP1 PUSH1 0x1F LT PUSH2 0xAAC JUMPI PUSH2 0x100 DUP1 DUP4 SLOAD DIV MUL DUP4 MSTORE SWAP2 PUSH1 0x20 ADD SWAP2 PUSH2 0xAD5 JUMP JUMPDEST DUP3 ADD SWAP2 SWAP1 PUSH0 MSTORE PUSH1 0x20 PUSH0 KECCAK256 SWAP1 JUMPDEST DUP2 SLOAD DUP2 MSTORE SWAP1 PUSH1 0x1 ADD SWAP1 PUSH1 0x20 ADD DUP1 DUP4 GT PUSH2 0xAB8 JUMPI DUP3 SWAP1 SUB PUSH1 0x1F AND DUP3 ADD SWAP2 JUMPDEST POP POP POP POP POP SWAP1 DUP1 PUSH1 0x7 ADD PUSH0 SWAP1 SLOAD SWAP1 PUSH2 0x100 EXP SWAP1 DIV PUSH20 0xFFFFFFFFFFFFFFFFFFFFFFFFFFFFFFFFFFFFFFFF AND SWAP1 POP DUP9 JUMP JUMPDEST PUSH1 0x1 PUSH1 0x20 MSTORE DUP1 PUSH0 MSTORE PUSH1 0x40 PUSH0 KECCAK256 PUSH0 SWAP2 POP SWAP1 POP DUP1 PUSH0 ADD PUSH0 SWAP1 SLOAD SWAP1 PUSH2 0x100 EXP SWAP1 DIV PUSH20 0xFFFFFFFFFFFFFFFFFFFFFFFFFFFFFFFFFFFFFFFF AND SWAP1 DUP1 PUSH1 0x1 ADD DUP1 SLOAD PUSH2 0xB48 SWAP1 PUSH2 0x1CA7 JUMP JUMPDEST DUP1 PUSH1 0x1F ADD PUSH1 0x20 DUP1 SWAP2 DIV MUL PUSH1 0x20 ADD PUSH1 0x40 MLOAD SWAP1 DUP2 ADD PUSH1 0x40 MSTORE DUP1 SWAP3 SWAP2 SWAP1 DUP2 DUP2 MSTORE PUSH1 0x20 ADD DUP3 DUP1 SLOAD PUSH2 0xB74 SWAP1 PUSH2 0x1CA7 JUMP JUMPDEST DUP1 ISZERO PUSH2 0xBBF JUMPI DUP1 PUSH1 0x1F LT PUSH2 0xB96 JUMPI PUSH2 0x100 DUP1 DUP4 SLOAD DIV MUL DUP4 MSTORE SWAP2 PUSH1 0x20 ADD SWAP2 PUSH2 0xBBF JUMP JUMPDEST DUP3 ADD SWAP2 SWAP1 PUSH0 MSTORE PUSH1 0x20 PUSH0 KECCAK256 SWAP1 JUMPDEST DUP2 SLOAD DUP2 MSTORE SWAP1 PUSH1 0x1 ADD SWAP1 PUSH1 0x20 ADD DUP1 DUP4 GT PUSH2 0xBA2 JUMPI DUP3 SWAP1 SUB PUSH1 0x1F AND DUP3 ADD SWAP2 JUMPDEST POP POP POP POP POP SWAP1 DUP1 PUSH1 0x2 ADD SLOAD SWAP1 DUP1 PUSH1 0x3 ADD DUP1 SLOAD PUSH2 0xBDA SWAP1 PUSH2 0x1CA7 JUMP JUMPDEST DUP1 PUSH1 0x1F ADD PUSH1 0x20 DUP1 SWAP2 DIV MUL PUSH1 0x20 ADD PUSH1 0x40 MLOAD SWAP1 DUP2 ADD PUSH1 0x40 MSTORE DUP1 SWAP3 SWAP2 SWAP1 DUP2 DUP2 MSTORE PUSH1 0x20 ADD DUP3 DUP1 SLOAD PUSH2 0xC06 SWAP1 PUSH2 0x1CA7 JUMP JUMPDEST DUP1 ISZERO PUSH2 0xC51 JUMPI DUP1 PUSH1 0x1F LT PUSH2 0xC28 JUMPI PUSH2 0x100 DUP1 DUP4 SLOAD DIV MUL DUP4 MSTORE SWAP2 PUSH1 0x20 ADD SWAP2 PUSH2 0xC51 JUMP JUMPDEST DUP3 ADD SWAP2 SWAP1 PUSH0 MSTORE PUSH1 0x20 PUSH0 KECCAK256 SWAP1 JUMPDEST DUP2 SLOAD DUP2 MSTORE SWAP1 PUSH1 0x1 ADD SWAP1 PUSH1 0x20 ADD DUP1 DUP4 GT PUSH2 0xC34 JUMPI DUP3 SWAP1 SUB PUSH1 0x1F AND DUP3 ADD SWAP2 JUMPDEST POP POP POP POP POP SWAP1 DUP1 PUSH1 0x4 ADD DUP1 SLOAD PUSH2 0xC66 SWAP1 PUSH2 0x1CA7 JUMP JUMPDEST DUP1 PUSH1 0x1F ADD PUSH1 0x20 DUP1 SWAP2 DIV MUL PUSH1 0x20 ADD PUSH1 0x40 MLOAD SWAP1 DUP2 ADD PUSH1 0x40 MSTORE DUP1 SWAP3 SWAP2 SWAP1 DUP2 DUP2 MSTORE PUSH1 0x20 ADD DUP3 DUP1 SLOAD PUSH2 0xC92 SWAP1 PUSH2 0x1CA7 JUMP JUMPDEST DUP1 ISZERO PUSH2 0xCDD JUMPI DUP1 PUSH1 0x1F LT PUSH2 0xCB4 JUMPI PUSH2 0x100 DUP1 DUP4 SLOAD DIV MUL DUP4 MSTORE SWAP2 PUSH1 0x20 ADD SWAP2 PUSH2 0xCDD JUMP JUMPDEST DUP3 ADD SWAP2 SWAP1 PUSH0 MSTORE PUSH1 0x20 PUSH0 KECCAK256 SWAP1 JUMPDEST DUP2 SLOAD DUP2 MSTORE SWAP1 PUSH1 0x1 ADD SWAP1 PUSH1 0x20 ADD DUP1 DUP4 GT PUSH2 0xCC0 JUMPI DUP3 SWAP1 SUB PUSH1 0x1F AND DUP3 ADD SWAP2 JUMPDEST POP POP POP POP POP SWAP1 DUP1 PUSH1 0x5 ADD DUP1 SLOAD PUSH2 0xCF2 SWAP1 PUSH2 0x1CA7 JUMP JUMPDEST DUP1 PUSH1 0x1F ADD PUSH1 0x20 DUP1 SWAP2 DIV MUL PUSH1 0x20 ADD PUSH1 0x40 MLOAD SWAP1 DUP2 ADD PUSH1 0x40 MSTORE DUP1 SWAP3 SWAP2 SWAP1 DUP2 DUP2 MSTORE PUSH1 0x20 ADD DUP3 DUP1 SLOAD PUSH2 0xD1E SWAP1 PUSH2 0x1CA7 JUMP JUMPDEST DUP1 ISZERO PUSH2 0xD69 JUMPI DUP1 PUSH1 0x1F LT PUSH2 0xD40 JUMPI PUSH2 0x100 DUP1 DUP4 SLOAD DIV MUL DUP4 MSTORE SWAP2 PUSH1 0x20 ADD SWAP2 PUSH2 0xD69 JUMP JUMPDEST DUP3 ADD SWAP2 SWAP1 PUSH0 MSTORE PUSH1 0x20 PUSH0 KECCAK256 SWAP1 JUMPDEST DUP2 SLOAD DUP2 MSTORE SWAP1 PUSH1 0x1 ADD SWAP1 PUSH1 0x20 ADD DUP1 DUP4 GT PUSH2 0xD4C JUMPI DUP3 SWAP1 SUB PUSH1 0x1F AND DUP3 ADD SWAP2 JUMPDEST POP POP POP POP POP SWAP1 DUP1 PUSH1 0x6 ADD DUP1 SLOAD PUSH2 0xD7E SWAP1 PUSH2 0x1CA7 JUMP JUMPDEST DUP1 PUSH1 0x1F ADD PUSH1 0x20 DUP1 SWAP2 DIV MUL PUSH1 0x20 ADD PUSH1 0x40 MLOAD SWAP1 DUP2 ADD PUSH1 0x40 MSTORE DUP1 SWAP3 SWAP2 SWAP1 DUP2 DUP2 MSTORE PUSH1 0x20 ADD DUP3 DUP1 SLOAD PUSH2 0xDAA SWAP1 PUSH2 0x1CA7 JUMP JUMPDEST DUP1 ISZERO PUSH2 0xDF5 JUMPI DUP1 PUSH1 0x1F LT PUSH2 0xDCC JUMPI PUSH2 0x100 DUP1 DUP4 SLOAD DIV MUL DUP4 MSTORE SWAP2 PUSH1 0x20 ADD SWAP2 PUSH2 0xDF5 JUMP JUMPDEST DUP3 ADD SWAP2 SWAP1 PUSH0 MSTORE PUSH1 0x20 PUSH0 KECCAK256 SWAP1 JUMPDEST DUP2 SLOAD DUP2 MSTORE SWAP1 PUSH1 0x1 ADD SWAP1 PUSH1 0x20 ADD DUP1 DUP4 GT PUSH2 0xDD8 JUMPI DUP3 SWAP1 SUB PUSH1 0x1F AND DUP3 ADD SWAP2 JUMPDEST POP POP POP POP POP SWAP1 POP DUP8 JUMP JUMPDEST PUSH0 PUSH1 0x1 PUSH0 CALLER PUSH20 0xFFFFFFFFFFFFFFFFFFFFFFFFFFFFFFFFFFFFFFFF AND PUSH20 0xFFFFFFFFFFFFFFFFFFFFFFFFFFFFFFFFFFFFFFFF AND DUP2 MSTORE PUSH1 0x20 ADD SWAP1 DUP2 MSTORE PUSH1 0x20 ADD PUSH0 KECCAK256 PUSH1 0x2 ADD SLOAD GT DUP1 ISZERO PUSH2 0xE8F JUMPI POP PUSH1 0x5 PUSH1 0x1 PUSH0 CALLER PUSH20 0xFFFFFFFFFFFFFFFFFFFFFFFFFFFFFFFFFFFFFFFF AND PUSH20 0xFFFFFFFFFFFFFFFFFFFFFFFFFFFFFFFFFFFFFFFF AND DUP2 MSTORE PUSH1 0x20 ADD SWAP1 DUP2 MSTORE PUSH1 0x20 ADD PUSH0 KECCAK256 PUSH1 0x2 ADD SLOAD GT ISZERO JUMPDEST PUSH2 0xECE JUMPI PUSH1 0x40 MLOAD PUSH32 0x8C379A000000000000000000000000000000000000000000000000000000000 DUP2 MSTORE PUSH1 0x4 ADD PUSH2 0xEC5 SWAP1 PUSH2 0x1F8D JUMP JUMPDEST PUSH1 0x40 MLOAD DUP1 SWAP2 SUB SWAP1 REVERT JUMPDEST PUSH1 0x40 MLOAD DUP1 PUSH1 0xE0 ADD PUSH1 0x40 MSTORE DUP1 DUP6 DUP2 MSTORE PUSH1 0x20 ADD DUP5 DUP2 MSTORE PUSH1 0x20 ADD DUP4 DUP2 MSTORE PUSH1 0x20 ADD CALLER PUSH20 0xFFFFFFFFFFFFFFFFFFFFFFFFFFFFFFFFFFFFFFFF AND DUP2 MSTORE PUSH1 0x20 ADD DUP3 PUSH20 0xFFFFFFFFFFFFFFFFFFFFFFFFFFFFFFFFFFFFFFFF AND DUP2 MSTORE PUSH1 0x20 ADD TIMESTAMP DUP2 MSTORE PUSH1 0x20 ADD PUSH1 0x40 MLOAD DUP1 PUSH1 0x40 ADD PUSH1 0x40 MSTORE DUP1 PUSH1 0x8 DUP2 MSTORE PUSH1 0x20 ADD PUSH32 0x54657274756E6461000000000000000000000000000000000000000000000000 DUP2 MSTORE POP DUP2 MSTORE POP PUSH1 0x2 DUP6 PUSH1 0x40 MLOAD PUSH2 0xF72 SWAP2 SWAP1 PUSH2 0x2008 JUMP JUMPDEST SWAP1 DUP2 MSTORE PUSH1 0x20 ADD PUSH1 0x40 MLOAD DUP1 SWAP2 SUB SWAP1 KECCAK256 PUSH0 DUP3 ADD MLOAD DUP2 PUSH0 ADD SWAP1 DUP2 PUSH2 0xF93 SWAP2 SWAP1 PUSH2 0x1E74 JUMP JUMPDEST POP PUSH1 0x20 DUP3 ADD MLOAD DUP2 PUSH1 0x1 ADD SWAP1 DUP2 PUSH2 0xFA9 SWAP2 SWAP1 PUSH2 0x1E74 JUMP JUMPDEST POP PUSH1 0x40 DUP3 ADD MLOAD DUP2 PUSH1 0x2 ADD SSTORE PUSH1 0x60 DUP3 ADD MLOAD DUP2 PUSH1 0x3 ADD PUSH0 PUSH2 0x100 EXP DUP2 SLOAD DUP2 PUSH20 0xFFFFFFFFFFFFFFFFFFFFFFFFFFFFFFFFFFFFFFFF MUL NOT AND SWAP1 DUP4 PUSH20 0xFFFFFFFFFFFFFFFFFFFFFFFFFFFFFFFFFFFFFFFF AND MUL OR SWAP1 SSTORE POP PUSH1 0x80 DUP3 ADD MLOAD DUP2 PUSH1 0x4 ADD PUSH0 PUSH2 0x100 EXP DUP2 SLOAD DUP2 PUSH20 0xFFFFFFFFFFFFFFFFFFFFFFFFFFFFFFFFFFFFFFFF MUL NOT AND SWAP1 DUP4 PUSH20 0xFFFFFFFFFFFFFFFFFFFFFFFFFFFFFFFFFFFFFFFF AND MUL OR SWAP1 SSTORE POP PUSH1 0xA0 DUP3 ADD MLOAD DUP2 PUSH1 0x5 ADD SSTORE PUSH1 0xC0 DUP3 ADD MLOAD DUP2 PUSH1 0x6 ADD SWAP1 DUP2 PUSH2 0x105F SWAP2 SWAP1 PUSH2 0x1E74 JUMP JUMPDEST POP SWAP1 POP POP PUSH32 0x4C1398FACB24A2C5512D4E158A39AA72C8D583AD08D5CDBDB54322B5AC80AD9B DUP5 DUP5 DUP5 CALLER DUP6 TIMESTAMP PUSH1 0x40 MLOAD PUSH2 0x109C SWAP7 SWAP6 SWAP5 SWAP4 SWAP3 SWAP2 SWAP1 PUSH2 0x2068 JUMP JUMPDEST PUSH1 0x40 MLOAD DUP1 SWAP2 SUB SWAP1 LOG1 POP POP POP POP JUMP JUMPDEST DUP1 CALLER PUSH20 0xFFFFFFFFFFFFFFFFFFFFFFFFFFFFFFFFFFFFFFFF AND PUSH1 0x2 DUP3 PUSH1 0x40 MLOAD PUSH2 0x10D2 SWAP2 SWAP1 PUSH2 0x2008 JUMP JUMPDEST SWAP1 DUP2 MSTORE PUSH1 0x20 ADD PUSH1 0x40 MLOAD DUP1 SWAP2 SUB SWAP1 KECCAK256 PUSH1 0x4 ADD PUSH0 SWAP1 SLOAD SWAP1 PUSH2 0x100 EXP SWAP1 DIV PUSH20 0xFFFFFFFFFFFFFFFFFFFFFFFFFFFFFFFFFFFFFFFF AND PUSH20 0xFFFFFFFFFFFFFFFFFFFFFFFFFFFFFFFFFFFFFFFF AND EQ PUSH2 0x1159 JUMPI PUSH1 0x40 MLOAD PUSH32 0x8C379A000000000000000000000000000000000000000000000000000000000 DUP2 MSTORE PUSH1 0x4 ADD PUSH2 0x1150 SWAP1 PUSH2 0x2158 JUMP JUMPDEST PUSH1 0x40 MLOAD DUP1 SWAP2 SUB SWAP1 REVERT JUMPDEST PUSH1 0x40 MLOAD DUP1 PUSH1 0x40 ADD PUSH1 0x40 MSTORE DUP1 PUSH1 0xD DUP2 MSTORE PUSH1 0x20 ADD PUSH32 0x5465726B6F6E6669726D61736900000000000000000000000000000000000000 DUP2 MSTORE POP PUSH1 0x2 DUP4 PUSH1 0x40 MLOAD PUSH2 0x119F SWAP2 SWAP1 PUSH2 0x2008 JUMP JUMPDEST SWAP1 DUP2 MSTORE PUSH1 0x20 ADD PUSH1 0x40 MLOAD DUP1 SWAP2 SUB SWAP1 KECCAK256 PUSH1 0x6 ADD SWAP1 DUP2 PUSH2 0x11BC SWAP2 SWAP1 PUSH2 0x1E74 JUMP JUMPDEST POP PUSH32 0x68C681A1634FE788E939749303856066FA25A038A23654E0D77127E5D29F9E78 DUP3 CALLER PUSH1 0x40 MLOAD PUSH2 0x11EE SWAP3 SWAP2 SWAP1 PUSH2 0x2176 JUMP JUMPDEST PUSH1 0x40 MLOAD DUP1 SWAP2 SUB SWAP1 LOG1 POP POP JUMP JUMPDEST PUSH2 0x1202 PUSH2 0x127E JUMP JUMPDEST PUSH0 PUSH20 0xFFFFFFFFFFFFFFFFFFFFFFFFFFFFFFFFFFFFFFFF AND DUP2 PUSH20 0xFFFFFFFFFFFFFFFFFFFFFFFFFFFFFFFFFFFFFFFF AND SUB PUSH2 0x1272 JUMPI PUSH0 PUSH1 0x40 MLOAD PUSH32 0x1E4FBDF700000000000000000000000000000000000000000000000000000000 DUP2 MSTORE PUSH1 0x4 ADD PUSH2 0x1269 SWAP2 SWAP1 PUSH2 0x1A72 JUMP JUMPDEST PUSH1 0x40 MLOAD DUP1 SWAP2 SUB SWAP1 REVERT JUMPDEST PUSH2 0x127B DUP2 PUSH2 0x1483 JUMP JUMPDEST POP JUMP JUMPDEST PUSH2 0x1286 PUSH2 0x1544 JUMP JUMPDEST PUSH20 0xFFFFFFFFFFFFFFFFFFFFFFFFFFFFFFFFFFFFFFFF AND PUSH2 0x12A4 PUSH2 0x84A JUMP JUMPDEST PUSH20 0xFFFFFFFFFFFFFFFFFFFFFFFFFFFFFFFFFFFFFFFF AND EQ PUSH2 0x1303 JUMPI PUSH2 0x12C7 PUSH2 0x1544 JUMP JUMPDEST PUSH1 0x40 MLOAD PUSH32 0x118CDAA700000000000000000000000000000000000000000000000000000000 DUP2 MSTORE PUSH1 0x4 ADD PUSH2 0x12FA SWAP2 SWAP1 PUSH2 0x1A72 JUMP JUMPDEST PUSH1 0x40 MLOAD DUP1 SWAP2 SUB SWAP1 REVERT JUMPDEST JUMP JUMPDEST PUSH1 0x60 PUSH0 DUP3 SUB PUSH2 0x134B JUMPI PUSH1 0x40 MLOAD DUP1 PUSH1 0x40 ADD PUSH1 0x40 MSTORE DUP1 PUSH1 0x1 DUP2 MSTORE PUSH1 0x20 ADD PUSH32 0x3000000000000000000000000000000000000000000000000000000000000000 DUP2 MSTORE POP SWAP1 POP PUSH2 0x147E JUMP JUMPDEST PUSH0 DUP3 SWAP1 POP PUSH0 JUMPDEST PUSH0 DUP3 EQ PUSH2 0x137A JUMPI DUP1 DUP1 PUSH2 0x1363 SWAP1 PUSH2 0x21D1 JUMP JUMPDEST SWAP2 POP POP PUSH1 0xA DUP3 PUSH2 0x1373 SWAP2 SWAP1 PUSH2 0x2245 JUMP JUMPDEST SWAP2 POP PUSH2 0x1351 JUMP JUMPDEST PUSH0 DUP2 PUSH8 0xFFFFFFFFFFFFFFFF DUP2 GT ISZERO PUSH2 0x1395 JUMPI PUSH2 0x1394 PUSH2 0x15CE JUMP JUMPDEST JUMPDEST PUSH1 0x40 MLOAD SWAP1 DUP1 DUP3 MSTORE DUP1 PUSH1 0x1F ADD PUSH1 0x1F NOT AND PUSH1 0x20 ADD DUP3 ADD PUSH1 0x40 MSTORE DUP1 ISZERO PUSH2 0x13C7 JUMPI DUP2 PUSH1 0x20 ADD PUSH1 0x1 DUP3 MUL DUP1 CALLDATASIZE DUP4 CALLDATACOPY DUP1 DUP3 ADD SWAP2 POP POP SWAP1 POP JUMPDEST POP SWAP1 POP PUSH0 DUP3 SWAP1 POP JUMPDEST PUSH0 DUP7 EQ PUSH2 0x1476 JUMPI PUSH1 0x1 DUP2 PUSH2 0x13E3 SWAP2 SWAP1 PUSH2 0x2275 JUMP JUMPDEST SWAP1 POP PUSH0 PUSH1 0xA DUP1 DUP9 PUSH2 0x13F4 SWAP2 SWAP1 PUSH2 0x2245 JUMP JUMPDEST PUSH2 0x13FE SWAP2 SWAP1 PUSH2 0x22A8 JUMP JUMPDEST DUP8 PUSH2 0x1409 SWAP2 SWAP1 PUSH2 0x2275 JUMP JUMPDEST PUSH1 0x30 PUSH2 0x1415 SWAP2 SWAP1 PUSH2 0x22F5 JUMP JUMPDEST SWAP1 POP PUSH0 DUP2 PUSH1 0xF8 SHL SWAP1 POP DUP1 DUP5 DUP5 DUP2 MLOAD DUP2 LT PUSH2 0x1432 JUMPI PUSH2 0x1431 PUSH2 0x2329 JUMP JUMPDEST JUMPDEST PUSH1 0x20 ADD ADD SWAP1 PUSH31 0xFFFFFFFFFFFFFFFFFFFFFFFFFFFFFFFFFFFFFFFFFFFFFFFFFFFFFFFFFFFFFF NOT AND SWAP1 DUP2 PUSH0 BYTE SWAP1 MSTORE8 POP PUSH1 0xA DUP9 PUSH2 0x146D SWAP2 SWAP1 PUSH2 0x2245 JUMP JUMPDEST SWAP8 POP POP POP PUSH2 0x13CF JUMP JUMPDEST DUP2 SWAP5 POP POP POP POP POP JUMPDEST SWAP2 SWAP1 POP JUMP JUMPDEST PUSH0 DUP1 PUSH0 SWAP1 SLOAD SWAP1 PUSH2 0x100 EXP SWAP1 DIV PUSH20 0xFFFFFFFFFFFFFFFFFFFFFFFFFFFFFFFFFFFFFFFF AND SWAP1 POP DUP2 PUSH0 DUP1 PUSH2 0x100 EXP DUP2 SLOAD DUP2 PUSH20 0xFFFFFFFFFFFFFFFFFFFFFFFFFFFFFFFFFFFFFFFF MUL NOT AND SWAP1 DUP4 PUSH20 0xFFFFFFFFFFFFFFFFFFFFFFFFFFFFFFFFFFFFFFFF AND MUL OR SWAP1 SSTORE POP DUP2 PUSH20 0xFFFFFFFFFFFFFFFFFFFFFFFFFFFFFFFFFFFFFFFF AND DUP2 PUSH20 0xFFFFFFFFFFFFFFFFFFFFFFFFFFFFFFFFFFFFFFFF AND PUSH32 0x8BE0079C531659141344CD1FD0A4F28419497F9722A3DAAFE3B4186F6B6457E0 PUSH1 0x40 MLOAD PUSH1 0x40 MLOAD DUP1 SWAP2 SUB SWAP1 LOG3 POP POP JUMP JUMPDEST PUSH0 CALLER SWAP1 POP SWAP1 JUMP JUMPDEST PUSH0 PUSH1 0x40 MLOAD SWAP1 POP SWAP1 JUMP JUMPDEST PUSH0 DUP1 REVERT JUMPDEST PUSH0 DUP1 REVERT JUMPDEST PUSH0 PUSH20 0xFFFFFFFFFFFFFFFFFFFFFFFFFFFFFFFFFFFFFFFF DUP3 AND SWAP1 POP SWAP2 SWAP1 POP JUMP JUMPDEST PUSH0 PUSH2 0x1585 DUP3 PUSH2 0x155C JUMP JUMPDEST SWAP1 POP SWAP2 SWAP1 POP JUMP JUMPDEST PUSH2 0x1595 DUP2 PUSH2 0x157B JUMP JUMPDEST DUP2 EQ PUSH2 0x159F JUMPI PUSH0 DUP1 REVERT JUMPDEST POP JUMP JUMPDEST PUSH0 DUP2 CALLDATALOAD SWAP1 POP PUSH2 0x15B0 DUP2 PUSH2 0x158C JUMP JUMPDEST SWAP3 SWAP2 POP POP JUMP JUMPDEST PUSH0 DUP1 REVERT JUMPDEST PUSH0 DUP1 REVERT JUMPDEST PUSH0 PUSH1 0x1F NOT PUSH1 0x1F DUP4 ADD AND SWAP1 POP SWAP2 SWAP1 POP JUMP JUMPDEST PUSH32 0x4E487B7100000000000000000000000000000000000000000000000000000000 PUSH0 MSTORE PUSH1 0x41 PUSH1 0x4 MSTORE PUSH1 0x24 PUSH0 REVERT JUMPDEST PUSH2 0x1604 DUP3 PUSH2 0x15BE JUMP JUMPDEST DUP2 ADD DUP2 DUP2 LT PUSH8 0xFFFFFFFFFFFFFFFF DUP3 GT OR ISZERO PUSH2 0x1623 JUMPI PUSH2 0x1622 PUSH2 0x15CE JUMP JUMPDEST JUMPDEST DUP1 PUSH1 0x40 MSTORE POP POP POP JUMP JUMPDEST PUSH0 PUSH2 0x1635 PUSH2 0x154B JUMP JUMPDEST SWAP1 POP PUSH2 0x1641 DUP3 DUP3 PUSH2 0x15FB JUMP JUMPDEST SWAP2 SWAP1 POP JUMP JUMPDEST PUSH0 PUSH8 0xFFFFFFFFFFFFFFFF DUP3 GT ISZERO PUSH2 0x1660 JUMPI PUSH2 0x165F PUSH2 0x15CE JUMP JUMPDEST JUMPDEST PUSH2 0x1669 DUP3 PUSH2 0x15BE JUMP JUMPDEST SWAP1 POP PUSH1 0x20 DUP2 ADD SWAP1 POP SWAP2 SWAP1 POP JUMP JUMPDEST DUP3 DUP2 DUP4 CALLDATACOPY PUSH0 DUP4 DUP4 ADD MSTORE POP POP POP JUMP JUMPDEST PUSH0 PUSH2 0x1696 PUSH2 0x1691 DUP5 PUSH2 0x1646 JUMP JUMPDEST PUSH2 0x162C JUMP JUMPDEST SWAP1 POP DUP3 DUP2 MSTORE PUSH1 0x20 DUP2 ADD DUP5 DUP5 DUP5 ADD GT ISZERO PUSH2 0x16B2 JUMPI PUSH2 0x16B1 PUSH2 0x15BA JUMP JUMPDEST JUMPDEST PUSH2 0x16BD DUP5 DUP3 DUP6 PUSH2 0x1676 JUMP JUMPDEST POP SWAP4 SWAP3 POP POP POP JUMP JUMPDEST PUSH0 DUP3 PUSH1 0x1F DUP4 ADD SLT PUSH2 0x16D9 JUMPI PUSH2 0x16D8 PUSH2 0x15B6 JUMP JUMPDEST JUMPDEST DUP2 CALLDATALOAD PUSH2 0x16E9 DUP5 DUP3 PUSH1 0x20 DUP7 ADD PUSH2 0x1684 JUMP JUMPDEST SWAP2 POP POP SWAP3 SWAP2 POP POP JUMP JUMPDEST PUSH0 DUP2 SWAP1 POP SWAP2 SWAP1 POP JUMP JUMPDEST PUSH2 0x1704 DUP2 PUSH2 0x16F2 JUMP JUMPDEST DUP2 EQ PUSH2 0x170E JUMPI PUSH0 DUP1 REVERT JUMPDEST POP JUMP JUMPDEST PUSH0 DUP2 CALLDATALOAD SWAP1 POP PUSH2 0x171F DUP2 PUSH2 0x16FB JUMP JUMPDEST SWAP3 SWAP2 POP POP JUMP JUMPDEST PUSH0 DUP1 PUSH0 DUP1 PUSH0 DUP1 PUSH0 PUSH1 0xE0 DUP9 DUP11 SUB SLT ISZERO PUSH2 0x1740 JUMPI PUSH2 0x173F PUSH2 0x1554 JUMP JUMPDEST JUMPDEST PUSH0 PUSH2 0x174D DUP11 DUP3 DUP12 ADD PUSH2 0x15A2 JUMP JUMPDEST SWAP8 POP POP PUSH1 0x20 DUP9 ADD CALLDATALOAD PUSH8 0xFFFFFFFFFFFFFFFF DUP2 GT ISZERO PUSH2 0x176E JUMPI PUSH2 0x176D PUSH2 0x1558 JUMP JUMPDEST JUMPDEST PUSH2 0x177A DUP11 DUP3 DUP12 ADD PUSH2 0x16C5 JUMP JUMPDEST SWAP7 POP POP PUSH1 0x40 PUSH2 0x178B DUP11 DUP3 DUP12 ADD PUSH2 0x1711 JUMP JUMPDEST SWAP6 POP POP PUSH1 0x60 DUP9 ADD CALLDATALOAD PUSH8 0xFFFFFFFFFFFFFFFF DUP2 GT ISZERO PUSH2 0x17AC JUMPI PUSH2 0x17AB PUSH2 0x1558 JUMP JUMPDEST JUMPDEST PUSH2 0x17B8 DUP11 DUP3 DUP12 ADD PUSH2 0x16C5 JUMP JUMPDEST SWAP5 POP POP PUSH1 0x80 DUP9 ADD CALLDATALOAD PUSH8 0xFFFFFFFFFFFFFFFF DUP2 GT ISZERO PUSH2 0x17D9 JUMPI PUSH2 0x17D8 PUSH2 0x1558 JUMP JUMPDEST JUMPDEST PUSH2 0x17E5 DUP11 DUP3 DUP12 ADD PUSH2 0x16C5 JUMP JUMPDEST SWAP4 POP POP PUSH1 0xA0 DUP9 ADD CALLDATALOAD PUSH8 0xFFFFFFFFFFFFFFFF DUP2 GT ISZERO PUSH2 0x1806 JUMPI PUSH2 0x1805 PUSH2 0x1558 JUMP JUMPDEST JUMPDEST PUSH2 0x1812 DUP11 DUP3 DUP12 ADD PUSH2 0x16C5 JUMP JUMPDEST SWAP3 POP POP PUSH1 0xC0 DUP9 ADD CALLDATALOAD PUSH8 0xFFFFFFFFFFFFFFFF DUP2 GT ISZERO PUSH2 0x1833 JUMPI PUSH2 0x1832 PUSH2 0x1558 JUMP JUMPDEST JUMPDEST PUSH2 0x183F DUP11 DUP3 DUP12 ADD PUSH2 0x16C5 JUMP JUMPDEST SWAP2 POP POP SWAP3 SWAP6 SWAP9 SWAP2 SWAP5 SWAP8 POP SWAP3 SWAP6 POP JUMP JUMPDEST PUSH0 DUP1 PUSH0 DUP1 PUSH0 DUP1 PUSH1 0xC0 DUP8 DUP10 SUB SLT ISZERO PUSH2 0x1868 JUMPI PUSH2 0x1867 PUSH2 0x1554 JUMP JUMPDEST JUMPDEST PUSH0 DUP8 ADD CALLDATALOAD PUSH8 0xFFFFFFFFFFFFFFFF DUP2 GT ISZERO PUSH2 0x1885 JUMPI PUSH2 0x1884 PUSH2 0x1558 JUMP JUMPDEST JUMPDEST PUSH2 0x1891 DUP10 DUP3 DUP11 ADD PUSH2 0x16C5 JUMP JUMPDEST SWAP7 POP POP PUSH1 0x20 DUP8 ADD CALLDATALOAD PUSH8 0xFFFFFFFFFFFFFFFF DUP2 GT ISZERO PUSH2 0x18B2 JUMPI PUSH2 0x18B1 PUSH2 0x1558 JUMP JUMPDEST JUMPDEST PUSH2 0x18BE DUP10 DUP3 DUP11 ADD PUSH2 0x16C5 JUMP JUMPDEST SWAP6 POP POP PUSH1 0x40 PUSH2 0x18CF DUP10 DUP3 DUP11 ADD PUSH2 0x1711 JUMP JUMPDEST SWAP5 POP POP PUSH1 0x60 PUSH2 0x18E0 DUP10 DUP3 DUP11 ADD PUSH2 0x1711 JUMP JUMPDEST SWAP4 POP POP PUSH1 0x80 PUSH2 0x18F1 DUP10 DUP3 DUP11 ADD PUSH2 0x1711 JUMP JUMPDEST SWAP3 POP POP PUSH1 0xA0 DUP8 ADD CALLDATALOAD PUSH8 0xFFFFFFFFFFFFFFFF DUP2 GT ISZERO PUSH2 0x1912 JUMPI PUSH2 0x1911 PUSH2 0x1558 JUMP JUMPDEST JUMPDEST PUSH2 0x191E DUP10 DUP3 DUP11 ADD PUSH2 0x16C5 JUMP JUMPDEST SWAP2 POP POP SWAP3 SWAP6 POP SWAP3 SWAP6 POP SWAP3 SWAP6 JUMP JUMPDEST PUSH0 PUSH1 0x20 DUP3 DUP5 SUB SLT ISZERO PUSH2 0x1940 JUMPI PUSH2 0x193F PUSH2 0x1554 JUMP JUMPDEST JUMPDEST PUSH0 DUP3 ADD CALLDATALOAD PUSH8 0xFFFFFFFFFFFFFFFF DUP2 GT ISZERO PUSH2 0x195D JUMPI PUSH2 0x195C PUSH2 0x1558 JUMP JUMPDEST JUMPDEST PUSH2 0x1969 DUP5 DUP3 DUP6 ADD PUSH2 0x16C5 JUMP JUMPDEST SWAP2 POP POP SWAP3 SWAP2 POP POP JUMP JUMPDEST PUSH0 DUP2 MLOAD SWAP1 POP SWAP2 SWAP1 POP JUMP JUMPDEST PUSH0 DUP3 DUP3 MSTORE PUSH1 0x20 DUP3 ADD SWAP1 POP SWAP3 SWAP2 POP POP JUMP JUMPDEST DUP3 DUP2 DUP4 MCOPY PUSH0 DUP4 DUP4 ADD MSTORE POP POP POP JUMP JUMPDEST PUSH0 PUSH2 0x19A4 DUP3 PUSH2 0x1972 JUMP JUMPDEST PUSH2 0x19AE DUP2 DUP6 PUSH2 0x197C JUMP JUMPDEST SWAP4 POP PUSH2 0x19BE DUP2 DUP6 PUSH1 0x20 DUP7 ADD PUSH2 0x198C JUMP JUMPDEST PUSH2 0x19C7 DUP2 PUSH2 0x15BE JUMP JUMPDEST DUP5 ADD SWAP2 POP POP SWAP3 SWAP2 POP POP JUMP JUMPDEST PUSH2 0x19DB DUP2 PUSH2 0x16F2 JUMP JUMPDEST DUP3 MSTORE POP POP JUMP JUMPDEST PUSH2 0x19EA DUP2 PUSH2 0x157B JUMP JUMPDEST DUP3 MSTORE POP POP JUMP JUMPDEST PUSH0 PUSH1 0xE0 DUP3 ADD SWAP1 POP DUP2 DUP2 SUB PUSH0 DUP4 ADD MSTORE PUSH2 0x1A08 DUP2 DUP11 PUSH2 0x199A JUMP JUMPDEST SWAP1 POP DUP2 DUP2 SUB PUSH1 0x20 DUP4 ADD MSTORE PUSH2 0x1A1C DUP2 DUP10 PUSH2 0x199A JUMP JUMPDEST SWAP1 POP PUSH2 0x1A2B PUSH1 0x40 DUP4 ADD DUP9 PUSH2 0x19D2 JUMP JUMPDEST PUSH2 0x1A38 PUSH1 0x60 DUP4 ADD DUP8 PUSH2 0x19E1 JUMP JUMPDEST PUSH2 0x1A45 PUSH1 0x80 DUP4 ADD DUP7 PUSH2 0x19E1 JUMP JUMPDEST PUSH2 0x1A52 PUSH1 0xA0 DUP4 ADD DUP6 PUSH2 0x19D2 JUMP JUMPDEST DUP2 DUP2 SUB PUSH1 0xC0 DUP4 ADD MSTORE PUSH2 0x1A64 DUP2 DUP5 PUSH2 0x199A JUMP JUMPDEST SWAP1 POP SWAP9 SWAP8 POP POP POP POP POP POP POP POP JUMP JUMPDEST PUSH0 PUSH1 0x20 DUP3 ADD SWAP1 POP PUSH2 0x1A85 PUSH0 DUP4 ADD DUP5 PUSH2 0x19E1 JUMP JUMPDEST SWAP3 SWAP2 POP POP JUMP JUMPDEST PUSH0 PUSH2 0x100 DUP3 ADD SWAP1 POP DUP2 DUP2 SUB PUSH0 DUP4 ADD MSTORE PUSH2 0x1AA4 DUP2 DUP12 PUSH2 0x199A JUMP JUMPDEST SWAP1 POP DUP2 DUP2 SUB PUSH1 0x20 DUP4 ADD MSTORE PUSH2 0x1AB8 DUP2 DUP11 PUSH2 0x199A JUMP JUMPDEST SWAP1 POP DUP2 DUP2 SUB PUSH1 0x40 DUP4 ADD MSTORE PUSH2 0x1ACC DUP2 DUP10 PUSH2 0x199A JUMP JUMPDEST SWAP1 POP PUSH2 0x1ADB PUSH1 0x60 DUP4 ADD DUP9 PUSH2 0x19D2 JUMP JUMPDEST PUSH2 0x1AE8 PUSH1 0x80 DUP4 ADD DUP8 PUSH2 0x19D2 JUMP JUMPDEST PUSH2 0x1AF5 PUSH1 0xA0 DUP4 ADD DUP7 PUSH2 0x19D2 JUMP JUMPDEST DUP2 DUP2 SUB PUSH1 0xC0 DUP4 ADD MSTORE PUSH2 0x1B07 DUP2 DUP6 PUSH2 0x199A JUMP JUMPDEST SWAP1 POP PUSH2 0x1B16 PUSH1 0xE0 DUP4 ADD DUP5 PUSH2 0x19E1 JUMP JUMPDEST SWAP10 SWAP9 POP POP POP POP POP POP POP POP POP JUMP JUMPDEST PUSH0 PUSH1 0x20 DUP3 DUP5 SUB SLT ISZERO PUSH2 0x1B38 JUMPI PUSH2 0x1B37 PUSH2 0x1554 JUMP JUMPDEST JUMPDEST PUSH0 PUSH2 0x1B45 DUP5 DUP3 DUP6 ADD PUSH2 0x15A2 JUMP JUMPDEST SWAP2 POP POP SWAP3 SWAP2 POP POP JUMP JUMPDEST PUSH0 PUSH1 0xE0 DUP3 ADD SWAP1 POP PUSH2 0x1B61 PUSH0 DUP4 ADD DUP11 PUSH2 0x19E1 JUMP JUMPDEST DUP2 DUP2 SUB PUSH1 0x20 DUP4 ADD MSTORE PUSH2 0x1B73 DUP2 DUP10 PUSH2 0x199A JUMP JUMPDEST SWAP1 POP PUSH2 0x1B82 PUSH1 0x40 DUP4 ADD DUP9 PUSH2 0x19D2 JUMP JUMPDEST DUP2 DUP2 SUB PUSH1 0x60 DUP4 ADD MSTORE PUSH2 0x1B94 DUP2 DUP8 PUSH2 0x199A JUMP JUMPDEST SWAP1 POP DUP2 DUP2 SUB PUSH1 0x80 DUP4 ADD MSTORE PUSH2 0x1BA8 DUP2 DUP7 PUSH2 0x199A JUMP JUMPDEST SWAP1 POP DUP2 DUP2 SUB PUSH1 0xA0 DUP4 ADD MSTORE PUSH2 0x1BBC DUP2 DUP6 PUSH2 0x199A JUMP JUMPDEST SWAP1 POP DUP2 DUP2 SUB PUSH1 0xC0 DUP4 ADD MSTORE PUSH2 0x1BD0 DUP2 DUP5 PUSH2 0x199A JUMP JUMPDEST SWAP1 POP SWAP9 SWAP8 POP POP POP POP POP POP POP POP JUMP JUMPDEST PUSH0 DUP1 PUSH0 DUP1 PUSH1 0x80 DUP6 DUP8 SUB SLT ISZERO PUSH2 0x1BF6 JUMPI PUSH2 0x1BF5 PUSH2 0x1554 JUMP JUMPDEST JUMPDEST PUSH0 DUP6 ADD CALLDATALOAD PUSH8 0xFFFFFFFFFFFFFFFF DUP2 GT ISZERO PUSH2 0x1C13 JUMPI PUSH2 0x1C12 PUSH2 0x1558 JUMP JUMPDEST JUMPDEST PUSH2 0x1C1F DUP8 DUP3 DUP9 ADD PUSH2 0x16C5 JUMP JUMPDEST SWAP5 POP POP PUSH1 0x20 DUP6 ADD CALLDATALOAD PUSH8 0xFFFFFFFFFFFFFFFF DUP2 GT ISZERO PUSH2 0x1C40 JUMPI PUSH2 0x1C3F PUSH2 0x1558 JUMP JUMPDEST JUMPDEST PUSH2 0x1C4C DUP8 DUP3 DUP9 ADD PUSH2 0x16C5 JUMP JUMPDEST SWAP4 POP POP PUSH1 0x40 PUSH2 0x1C5D DUP8 DUP3 DUP9 ADD PUSH2 0x1711 JUMP JUMPDEST SWAP3 POP POP PUSH1 0x60 PUSH2 0x1C6E DUP8 DUP3 DUP9 ADD PUSH2 0x15A2 JUMP JUMPDEST SWAP2 POP POP SWAP3 SWAP6 SWAP2 SWAP5 POP SWAP3 POP JUMP JUMPDEST PUSH32 0x4E487B7100000000000000000000000000000000000000000000000000000000 PUSH0 MSTORE PUSH1 0x22 PUSH1 0x4 MSTORE PUSH1 0x24 PUSH0 REVERT JUMPDEST PUSH0 PUSH1 0x2 DUP3 DIV SWAP1 POP PUSH1 0x1 DUP3 AND DUP1 PUSH2 0x1CBE JUMPI PUSH1 0x7F DUP3 AND SWAP2 POP JUMPDEST PUSH1 0x20 DUP3 LT DUP2 SUB PUSH2 0x1CD1 JUMPI PUSH2 0x1CD0 PUSH2 0x1C7A JUMP JUMPDEST JUMPDEST POP SWAP2 SWAP1 POP JUMP JUMPDEST PUSH0 DUP2 SWAP1 POP DUP2 PUSH0 MSTORE PUSH1 0x20 PUSH0 KECCAK256 SWAP1 POP SWAP2 SWAP1 POP JUMP JUMPDEST PUSH0 PUSH1 0x20 PUSH1 0x1F DUP4 ADD DIV SWAP1 POP SWAP2 SWAP1 POP JUMP JUMPDEST PUSH0 DUP3 DUP3 SHL SWAP1 POP SWAP3 SWAP2 POP POP JUMP JUMPDEST PUSH0 PUSH1 0x8 DUP4 MUL PUSH2 0x1D33 PUSH32 0xFFFFFFFFFFFFFFFFFFFFFFFFFFFFFFFFFFFFFFFFFFFFFFFFFFFFFFFFFFFFFFFF DUP3 PUSH2 0x1CF8 JUMP JUMPDEST PUSH2 0x1D3D DUP7 DUP4 PUSH2 0x1CF8 JUMP JUMPDEST SWAP6 POP DUP1 NOT DUP5 AND SWAP4 POP DUP1 DUP7 AND DUP5 OR SWAP3 POP POP POP SWAP4 SWAP3 POP POP POP JUMP JUMPDEST PUSH0 DUP2 SWAP1 POP SWAP2 SWAP1 POP JUMP JUMPDEST PUSH0 PUSH2 0x1D78 PUSH2 0x1D73 PUSH2 0x1D6E DUP5 PUSH2 0x16F2 JUMP JUMPDEST PUSH2 0x1D55 JUMP JUMPDEST PUSH2 0x16F2 JUMP JUMPDEST SWAP1 POP SWAP2 SWAP1 POP JUMP JUMPDEST PUSH0 DUP2 SWAP1 POP SWAP2 SWAP1 POP JUMP JUMPDEST PUSH2 0x1D91 DUP4 PUSH2 0x1D5E JUMP JUMPDEST PUSH2 0x1DA5 PUSH2 0x1D9D DUP3 PUSH2 0x1D7F JUMP JUMPDEST DUP5 DUP5 SLOAD PUSH2 0x1D04 JUMP JUMPDEST DUP3 SSTORE POP POP POP POP JUMP JUMPDEST PUSH0 SWAP1 JUMP JUMPDEST PUSH2 0x1DB9 PUSH2 0x1DAD JUMP JUMPDEST PUSH2 0x1DC4 DUP2 DUP5 DUP5 PUSH2 0x1D88 JUMP JUMPDEST POP POP POP JUMP JUMPDEST JUMPDEST DUP2 DUP2 LT ISZERO PUSH2 0x1DE7 JUMPI PUSH2 0x1DDC PUSH0 DUP3 PUSH2 0x1DB1 JUMP JUMPDEST PUSH1 0x1 DUP2 ADD SWAP1 POP PUSH2 0x1DCA JUMP JUMPDEST POP POP JUMP JUMPDEST PUSH1 0x1F DUP3 GT ISZERO PUSH2 0x1E2C JUMPI PUSH2 0x1DFD DUP2 PUSH2 0x1CD7 JUMP JUMPDEST PUSH2 0x1E06 DUP5 PUSH2 0x1CE9 JUMP JUMPDEST DUP2 ADD PUSH1 0x20 DUP6 LT ISZERO PUSH2 0x1E15 JUMPI DUP2 SWAP1 POP JUMPDEST PUSH2 0x1E29 PUSH2 0x1E21 DUP6 PUSH2 0x1CE9 JUMP JUMPDEST DUP4 ADD DUP3 PUSH2 0x1DC9 JUMP JUMPDEST POP POP JUMPDEST POP POP POP JUMP JUMPDEST PUSH0 DUP3 DUP3 SHR SWAP1 POP SWAP3 SWAP2 POP POP JUMP JUMPDEST PUSH0 PUSH2 0x1E4C PUSH0 NOT DUP5 PUSH1 0x8 MUL PUSH2 0x1E31 JUMP JUMPDEST NOT DUP1 DUP4 AND SWAP2 POP POP SWAP3 SWAP2 POP POP JUMP JUMPDEST PUSH0 PUSH2 0x1E64 DUP4 DUP4 PUSH2 0x1E3D JUMP JUMPDEST SWAP2 POP DUP3 PUSH1 0x2 MUL DUP3 OR SWAP1 POP SWAP3 SWAP2 POP POP JUMP JUMPDEST PUSH2 0x1E7D DUP3 PUSH2 0x1972 JUMP JUMPDEST PUSH8 0xFFFFFFFFFFFFFFFF DUP2 GT ISZERO PUSH2 0x1E96 JUMPI PUSH2 0x1E95 PUSH2 0x15CE JUMP JUMPDEST JUMPDEST PUSH2 0x1EA0 DUP3 SLOAD PUSH2 0x1CA7 JUMP JUMPDEST PUSH2 0x1EAB DUP3 DUP3 DUP6 PUSH2 0x1DEB JUMP JUMPDEST PUSH0 PUSH1 0x20 SWAP1 POP PUSH1 0x1F DUP4 GT PUSH1 0x1 DUP2 EQ PUSH2 0x1EDC JUMPI PUSH0 DUP5 ISZERO PUSH2 0x1ECA JUMPI DUP3 DUP8 ADD MLOAD SWAP1 POP JUMPDEST PUSH2 0x1ED4 DUP6 DUP3 PUSH2 0x1E59 JUMP JUMPDEST DUP7 SSTORE POP PUSH2 0x1F3B JUMP JUMPDEST PUSH1 0x1F NOT DUP5 AND PUSH2 0x1EEA DUP7 PUSH2 0x1CD7 JUMP JUMPDEST PUSH0 JUMPDEST DUP3 DUP2 LT ISZERO PUSH2 0x1F11 JUMPI DUP5 DUP10 ADD MLOAD DUP3 SSTORE PUSH1 0x1 DUP3 ADD SWAP2 POP PUSH1 0x20 DUP6 ADD SWAP5 POP PUSH1 0x20 DUP2 ADD SWAP1 POP PUSH2 0x1EEC JUMP JUMPDEST DUP7 DUP4 LT ISZERO PUSH2 0x1F2E JUMPI DUP5 DUP10 ADD MLOAD PUSH2 0x1F2A PUSH1 0x1F DUP10 AND DUP3 PUSH2 0x1E3D JUMP JUMPDEST DUP4 SSTORE POP JUMPDEST PUSH1 0x1 PUSH1 0x2 DUP9 MUL ADD DUP9 SSTORE POP POP POP JUMPDEST POP POP POP POP POP POP JUMP JUMPDEST PUSH32 0x506572616E20746964616B206469697A696E6B616E0000000000000000000000 PUSH0 DUP3 ADD MSTORE POP JUMP JUMPDEST PUSH0 PUSH2 0x1F77 PUSH1 0x15 DUP4 PUSH2 0x197C JUMP JUMPDEST SWAP2 POP PUSH2 0x1F82 DUP3 PUSH2 0x1F43 JUMP JUMPDEST PUSH1 0x20 DUP3 ADD SWAP1 POP SWAP2 SWAP1 POP JUMP JUMPDEST PUSH0 PUSH1 0x20 DUP3 ADD SWAP1 POP DUP2 DUP2 SUB PUSH0 DUP4 ADD MSTORE PUSH2 0x1FA4 DUP2 PUSH2 0x1F6B JUMP JUMPDEST SWAP1 POP SWAP2 SWAP1 POP JUMP JUMPDEST PUSH0 DUP2 SWAP1 POP SWAP3 SWAP2 POP POP JUMP JUMPDEST PUSH0 PUSH2 0x1FBF DUP3 PUSH2 0x1972 JUMP JUMPDEST PUSH2 0x1FC9 DUP2 DUP6 PUSH2 0x1FAB JUMP JUMPDEST SWAP4 POP PUSH2 0x1FD9 DUP2 DUP6 PUSH1 0x20 DUP7 ADD PUSH2 0x198C JUMP JUMPDEST DUP1 DUP5 ADD SWAP2 POP POP SWAP3 SWAP2 POP POP JUMP JUMPDEST PUSH0 PUSH2 0x1FF0 DUP3 DUP6 PUSH2 0x1FB5 JUMP JUMPDEST SWAP2 POP PUSH2 0x1FFC DUP3 DUP5 PUSH2 0x1FB5 JUMP JUMPDEST SWAP2 POP DUP2 SWAP1 POP SWAP4 SWAP3 POP POP POP JUMP JUMPDEST PUSH0 PUSH2 0x2013 DUP3 DUP5 PUSH2 0x1FB5 JUMP JUMPDEST SWAP2 POP DUP2 SWAP1 POP SWAP3 SWAP2 POP POP JUMP JUMPDEST PUSH32 0x54657274756E6461000000000000000000000000000000000000000000000000 PUSH0 DUP3 ADD MSTORE POP JUMP JUMPDEST PUSH0 PUSH2 0x2052 PUSH1 0x8 DUP4 PUSH2 0x197C JUMP JUMPDEST SWAP2 POP PUSH2 0x205D DUP3 PUSH2 0x201E JUMP JUMPDEST PUSH1 0x20 DUP3 ADD SWAP1 POP SWAP2 SWAP1 POP JUMP JUMPDEST PUSH0 PUSH1 0xE0 DUP3 ADD SWAP1 POP DUP2 DUP2 SUB PUSH0 DUP4 ADD MSTORE PUSH2 0x2080 DUP2 DUP10 PUSH2 0x199A JUMP JUMPDEST SWAP1 POP DUP2 DUP2 SUB PUSH1 0x20 DUP4 ADD MSTORE PUSH2 0x2094 DUP2 DUP9 PUSH2 0x199A JUMP JUMPDEST SWAP1 POP PUSH2 0x20A3 PUSH1 0x40 DUP4 ADD DUP8 PUSH2 0x19D2 JUMP JUMPDEST PUSH2 0x20B0 PUSH1 0x60 DUP4 ADD DUP7 PUSH2 0x19E1 JUMP JUMPDEST PUSH2 0x20BD PUSH1 0x80 DUP4 ADD DUP6 PUSH2 0x19E1 JUMP JUMPDEST PUSH2 0x20CA PUSH1 0xA0 DUP4 ADD DUP5 PUSH2 0x19D2 JUMP JUMPDEST DUP2 DUP2 SUB PUSH1 0xC0 DUP4 ADD MSTORE PUSH2 0x20DB DUP2 PUSH2 0x2046 JUMP JUMPDEST SWAP1 POP SWAP8 SWAP7 POP POP POP POP POP POP POP JUMP JUMPDEST PUSH32 0x48616E79612070656E6572696D612079616E672062697361206D656E676F6E66 PUSH0 DUP3 ADD MSTORE PUSH32 0x69726D617369207472616E73616B736920696E69000000000000000000000000 PUSH1 0x20 DUP3 ADD MSTORE POP JUMP JUMPDEST PUSH0 PUSH2 0x2142 PUSH1 0x34 DUP4 PUSH2 0x197C JUMP JUMPDEST SWAP2 POP PUSH2 0x214D DUP3 PUSH2 0x20E8 JUMP JUMPDEST PUSH1 0x40 DUP3 ADD SWAP1 POP SWAP2 SWAP1 POP JUMP JUMPDEST PUSH0 PUSH1 0x20 DUP3 ADD SWAP1 POP DUP2 DUP2 SUB PUSH0 DUP4 ADD MSTORE PUSH2 0x216F DUP2 PUSH2 0x2136 JUMP JUMPDEST SWAP1 POP SWAP2 SWAP1 POP JUMP JUMPDEST PUSH0 PUSH1 0x40 DUP3 ADD SWAP1 POP DUP2 DUP2 SUB PUSH0 DUP4 ADD MSTORE PUSH2 0x218E DUP2 DUP6 PUSH2 0x199A JUMP JUMPDEST SWAP1 POP PUSH2 0x219D PUSH1 0x20 DUP4 ADD DUP5 PUSH2 0x19E1 JUMP JUMPDEST SWAP4 SWAP3 POP POP POP JUMP JUMPDEST PUSH32 0x4E487B7100000000000000000000000000000000000000000000000000000000 PUSH0 MSTORE PUSH1 0x11 PUSH1 0x4 MSTORE PUSH1 0x24 PUSH0 REVERT JUMPDEST PUSH0 PUSH2 0x21DB DUP3 PUSH2 0x16F2 JUMP JUMPDEST SWAP2 POP PUSH32 0xFFFFFFFFFFFFFFFFFFFFFFFFFFFFFFFFFFFFFFFFFFFFFFFFFFFFFFFFFFFFFFFF DUP3 SUB PUSH2 0x220D JUMPI PUSH2 0x220C PUSH2 0x21A4 JUMP JUMPDEST JUMPDEST PUSH1 0x1 DUP3 ADD SWAP1 POP SWAP2 SWAP1 POP JUMP JUMPDEST PUSH32 0x4E487B7100000000000000000000000000000000000000000000000000000000 PUSH0 MSTORE PUSH1 0x12 PUSH1 0x4 MSTORE PUSH1 0x24 PUSH0 REVERT JUMPDEST PUSH0 PUSH2 0x224F DUP3 PUSH2 0x16F2 JUMP JUMPDEST SWAP2 POP PUSH2 0x225A DUP4 PUSH2 0x16F2 JUMP JUMPDEST SWAP3 POP DUP3 PUSH2 0x226A JUMPI PUSH2 0x2269 PUSH2 0x2218 JUMP JUMPDEST JUMPDEST DUP3 DUP3 DIV SWAP1 POP SWAP3 SWAP2 POP POP JUMP JUMPDEST PUSH0 PUSH2 0x227F DUP3 PUSH2 0x16F2 JUMP JUMPDEST SWAP2 POP PUSH2 0x228A DUP4 PUSH2 0x16F2 JUMP JUMPDEST SWAP3 POP DUP3 DUP3 SUB SWAP1 POP DUP2 DUP2 GT ISZERO PUSH2 0x22A2 JUMPI PUSH2 0x22A1 PUSH2 0x21A4 JUMP JUMPDEST JUMPDEST SWAP3 SWAP2 POP POP JUMP JUMPDEST PUSH0 PUSH2 0x22B2 DUP3 PUSH2 0x16F2 JUMP JUMPDEST SWAP2 POP PUSH2 0x22BD DUP4 PUSH2 0x16F2 JUMP JUMPDEST SWAP3 POP DUP3 DUP3 MUL PUSH2 0x22CB DUP2 PUSH2 0x16F2 JUMP JUMPDEST SWAP2 POP DUP3 DUP3 DIV DUP5 EQ DUP4 ISZERO OR PUSH2 0x22E2 JUMPI PUSH2 0x22E1 PUSH2 0x21A4 JUMP JUMPDEST JUMPDEST POP SWAP3 SWAP2 POP POP JUMP JUMPDEST PUSH0 PUSH1 0xFF DUP3 AND SWAP1 POP SWAP2 SWAP1 POP JUMP JUMPDEST PUSH0 PUSH2 0x22FF DUP3 PUSH2 0x22E9 JUMP JUMPDEST SWAP2 POP PUSH2 0x230A DUP4 PUSH2 0x22E9 JUMP JUMPDEST SWAP3 POP DUP3 DUP3 ADD SWAP1 POP PUSH1 0xFF DUP2 GT ISZERO PUSH2 0x2323 JUMPI PUSH2 0x2322 PUSH2 0x21A4 JUMP JUMPDEST JUMPDEST SWAP3 SWAP2 POP POP JUMP JUMPDEST PUSH32 0x4E487B7100000000000000000000000000000000000000000000000000000000 PUSH0 MSTORE PUSH1 0x32 PUSH1 0x4 MSTORE PUSH1 0x24 PUSH0 REVERT INVALID LOG2 PUSH5 0x6970667358 0x22 SLT KECCAK256 SLT MOD SWAP12 DUP2 SWAP7 0xDE 0xCE DUP3 PUSH8 0xFB03DE3E758BE2E0 0xFB SWAP13 0xE8 DUP9 0x27 SWAP10 0xFB BLOBHASH EQ JUMP 0xC4 DUP8 PUSH12 0x61BB64736F6C634300081A00 CALLER "
				},
				"gasEstimates": {
					"creation": {
						"codeDepositCost": "1820000",
						"executionCost": "infinite",
						"totalCost": "infinite"
					},
					"external": {
						"addProduk(string,string,uint256,uint256,uint256,string)": "infinite",
						"addTransaksi(string,string,uint256,address)": "infinite",
						"addUser(address,string,uint256,string,string,string,string)": "infinite",
						"konfirmasiTransaksi(string)": "infinite",
						"owner()": "2604",
						"produk(string)": "infinite",
						"renounceOwnership()": "infinite",
						"transaksi(string)": "infinite",
						"transferOwnership(address)": "infinite",
						"users(address)": "infinite"
					},
					"internal": {
						"uint2str(uint256)": "infinite"
					}
				},
				"methodIdentifiers": {
					"addProduk(string,string,uint256,uint256,uint256,string)": "22e6a4fe",
					"addTransaksi(string,string,uint256,address)": "e532460b",
					"addUser(address,string,uint256,string,string,string,string)": "0e7414d3",
					"konfirmasiTransaksi(string)": "ebac5e1d",
					"owner()": "8da5cb5b",
					"produk(string)": "9412bf4a",
					"renounceOwnership()": "715018a6",
					"transaksi(string)": "6a624fd9",
					"transferOwnership(address)": "f2fde38b",
					"users(address)": "a87430ba"
				}
			},
			"storageLayout": {
				"storage": [
					{
						"astId": 8,
						"contract": "sc/traceability_coffee.sol:CoffeeSupplyChain",
						"label": "_owner",
						"offset": 0,
						"slot": "0",
						"type": "t_address"
					},
					{
						"astId": 234,
						"contract": "sc/traceability_coffee.sol:CoffeeSupplyChain",
						"label": "users",
						"offset": 0,
						"slot": "1",
						"type": "t_mapping(t_address,t_struct(User)197_storage)"
					},
					{
						"astId": 239,
						"contract": "sc/traceability_coffee.sol:CoffeeSupplyChain",
						"label": "transaksi",
						"offset": 0,
						"slot": "2",
						"type": "t_mapping(t_string_memory_ptr,t_struct(Transaksi)212_storage)"
					},
					{
						"astId": 244,
						"contract": "sc/traceability_coffee.sol:CoffeeSupplyChain",
						"label": "produk",
						"offset": 0,
						"slot": "3",
						"type": "t_mapping(t_string_memory_ptr,t_struct(Produk)229_storage)"
					}
				],
				"types": {
					"t_address": {
						"encoding": "inplace",
						"label": "address",
						"numberOfBytes": "20"
					},
					"t_mapping(t_address,t_struct(User)197_storage)": {
						"encoding": "mapping",
						"key": "t_address",
						"label": "mapping(address => struct CoffeeSupplyChain.User)",
						"numberOfBytes": "32",
						"value": "t_struct(User)197_storage"
					},
					"t_mapping(t_string_memory_ptr,t_struct(Produk)229_storage)": {
						"encoding": "mapping",
						"key": "t_string_memory_ptr",
						"label": "mapping(string => struct CoffeeSupplyChain.Produk)",
						"numberOfBytes": "32",
						"value": "t_struct(Produk)229_storage"
					},
					"t_mapping(t_string_memory_ptr,t_struct(Transaksi)212_storage)": {
						"encoding": "mapping",
						"key": "t_string_memory_ptr",
						"label": "mapping(string => struct CoffeeSupplyChain.Transaksi)",
						"numberOfBytes": "32",
						"value": "t_struct(Transaksi)212_storage"
					},
					"t_string_memory_ptr": {
						"encoding": "bytes",
						"label": "string",
						"numberOfBytes": "32"
					},
					"t_string_storage": {
						"encoding": "bytes",
						"label": "string",
						"numberOfBytes": "32"
					},
					"t_struct(Produk)229_storage": {
						"encoding": "inplace",
						"label": "struct CoffeeSupplyChain.Produk",
						"members": [
							{
								"astId": 214,
								"contract": "sc/traceability_coffee.sol:CoffeeSupplyChain",
								"label": "produkID",
								"offset": 0,
								"slot": "0",
								"type": "t_string_storage"
							},
							{
								"astId": 216,
								"contract": "sc/traceability_coffee.sol:CoffeeSupplyChain",
								"label": "kopiID",
								"offset": 0,
								"slot": "1",
								"type": "t_string_storage"
							},
							{
								"astId": 218,
								"contract": "sc/traceability_coffee.sol:CoffeeSupplyChain",
								"label": "varietas",
								"offset": 0,
								"slot": "2",
								"type": "t_string_storage"
							},
							{
								"astId": 220,
								"contract": "sc/traceability_coffee.sol:CoffeeSupplyChain",
								"label": "kuantitas",
								"offset": 0,
								"slot": "3",
								"type": "t_uint256"
							},
							{
								"astId": 222,
								"contract": "sc/traceability_coffee.sol:CoffeeSupplyChain",
								"label": "tanggalProduksi",
								"offset": 0,
								"slot": "4",
								"type": "t_uint256"
							},
							{
								"astId": 224,
								"contract": "sc/traceability_coffee.sol:CoffeeSupplyChain",
								"label": "tanggalKadaluarsa",
								"offset": 0,
								"slot": "5",
								"type": "t_uint256"
							},
							{
								"astId": 226,
								"contract": "sc/traceability_coffee.sol:CoffeeSupplyChain",
								"label": "foto",
								"offset": 0,
								"slot": "6",
								"type": "t_string_storage"
							},
							{
								"astId": 228,
								"contract": "sc/traceability_coffee.sol:CoffeeSupplyChain",
								"label": "pemilik",
								"offset": 0,
								"slot": "7",
								"type": "t_address"
							}
						],
						"numberOfBytes": "256"
					},
					"t_struct(Transaksi)212_storage": {
						"encoding": "inplace",
						"label": "struct CoffeeSupplyChain.Transaksi",
						"members": [
							{
								"astId": 199,
								"contract": "sc/traceability_coffee.sol:CoffeeSupplyChain",
								"label": "produkID",
								"offset": 0,
								"slot": "0",
								"type": "t_string_storage"
							},
							{
								"astId": 201,
								"contract": "sc/traceability_coffee.sol:CoffeeSupplyChain",
								"label": "varietas",
								"offset": 0,
								"slot": "1",
								"type": "t_string_storage"
							},
							{
								"astId": 203,
								"contract": "sc/traceability_coffee.sol:CoffeeSupplyChain",
								"label": "kuantitas",
								"offset": 0,
								"slot": "2",
								"type": "t_uint256"
							},
							{
								"astId": 205,
								"contract": "sc/traceability_coffee.sol:CoffeeSupplyChain",
								"label": "pengirim",
								"offset": 0,
								"slot": "3",
								"type": "t_address"
							},
							{
								"astId": 207,
								"contract": "sc/traceability_coffee.sol:CoffeeSupplyChain",
								"label": "penerima",
								"offset": 0,
								"slot": "4",
								"type": "t_address"
							},
							{
								"astId": 209,
								"contract": "sc/traceability_coffee.sol:CoffeeSupplyChain",
								"label": "tanggalTransaksi",
								"offset": 0,
								"slot": "5",
								"type": "t_uint256"
							},
							{
								"astId": 211,
								"contract": "sc/traceability_coffee.sol:CoffeeSupplyChain",
								"label": "status",
								"offset": 0,
								"slot": "6",
								"type": "t_string_storage"
							}
						],
						"numberOfBytes": "224"
					},
					"t_struct(User)197_storage": {
						"encoding": "inplace",
						"label": "struct CoffeeSupplyChain.User",
						"members": [
							{
								"astId": 184,
								"contract": "sc/traceability_coffee.sol:CoffeeSupplyChain",
								"label": "walletAddress",
								"offset": 0,
								"slot": "0",
								"type": "t_address"
							},
							{
								"astId": 186,
								"contract": "sc/traceability_coffee.sol:CoffeeSupplyChain",
								"label": "roleName",
								"offset": 0,
								"slot": "1",
								"type": "t_string_storage"
							},
							{
								"astId": 188,
								"contract": "sc/traceability_coffee.sol:CoffeeSupplyChain",
								"label": "roleID",
								"offset": 0,
								"slot": "2",
								"type": "t_uint256"
							},
							{
								"astId": 190,
								"contract": "sc/traceability_coffee.sol:CoffeeSupplyChain",
								"label": "nama",
								"offset": 0,
								"slot": "3",
								"type": "t_string_storage"
							},
							{
								"astId": 192,
								"contract": "sc/traceability_coffee.sol:CoffeeSupplyChain",
								"label": "telepon",
								"offset": 0,
								"slot": "4",
								"type": "t_string_storage"
							},
							{
								"astId": 194,
								"contract": "sc/traceability_coffee.sol:CoffeeSupplyChain",
								"label": "alamat",
								"offset": 0,
								"slot": "5",
								"type": "t_string_storage"
							},
							{
								"astId": 196,
								"contract": "sc/traceability_coffee.sol:CoffeeSupplyChain",
								"label": "foto",
								"offset": 0,
								"slot": "6",
								"type": "t_string_storage"
							}
						],
						"numberOfBytes": "224"
					},
					"t_uint256": {
						"encoding": "inplace",
						"label": "uint256",
						"numberOfBytes": "32"
					}
				}
			},
			"userdoc": {
				"kind": "user",
				"methods": {},
				"version": 1
			}
		}
	}
}